:020000040800F2
:100000000000052031D602085907000867070008DC
:100010006D0700087307000879070008000000005A
:100020000000000000000000000000007F07000842
:100030008D070008000000009B070008A9070008C2
:1000400081D6020881D6020881D6020881D602082C
:1000500081D6020881D60208B507000881D60208B9
:1000600081D6020881D6020881D6020881D602080C
:1000700081D6020881D6020881D6020881D60208FC
:1000800081D6020881D6020881D6020881D60208EC
:1000900081D6020881D6020881D6020881D60208DC
:1000A00081D6020881D6020881D6020881D60208CC
:1000B00081D6020881D6020881D6020881D60208BC
:1000C00081D6020881D6020881D6020881D60208AC
:1000D00081D6020881D6020881D6020881D602089C
:1000E00081D6020881D6020881D6020881D602088C
:1000F00081D6020881D6020881D6020881D602087C
:1001000081D6020881D6020881D6020881D602086B
:1001100081D6020881D6020881D6020881D602085B
:1001200081D6020881D6020881D6020881D602084B
:1001300081D6020881D6020881D6020881D602083B
:1001400081D6020881D6020881D6020881D602082B
:1001500081D6020881D6020881D6020881D602081B
:1001600081D6020881D6020881D6020881D602080B
:1001700081D6020881D6020881D60208000000005C
:1001800081D6020881D6020881D6020881D60208EB
:1001900081D6020881D6020881D6020881D60208DB
:1001A00081D6020881D6020881D6020881D60208CB
:0401B00081D60208EA
:1001C00010B5054C237833B9044B13B10448AFF391
:1001D00000800123237010BD5006002000000000A5
:1001E0003C15030808B5034B1BB103490348AFF3A3
:1001F000008008BD00000000540600203C150308E4
:10020000154B002B08BF134B9D46A3F5803A0021E8
:100210008B460F461348144A121A2FF056FF0F4B05
:10022000002B00D098470E4B002B00D098470020A1
:10023000002104000D000D48002802D00C48AFF347
:1002400000802FF013FF2000290000F01DF82FF090
:10025000F9FE00BF000008000000000000000000E0
:100260000000000050060020B81000200000000030
:100270000000000064560308000000205006002023
:1002800050060020B810002080B500AF06F0AEFC8C
:1002900000F08CF8002005F0FDF8012005F0FAF8D8
:1002A000022005F0F7F8032005F0F4F82F4B304A50
:1002B0001A602E4B4FF416525A602C4B00229A6053
:1002C0002A4B0022DA60294B00221A61274B0022B8
:1002D0009A61264B0C225A61244B0022DA61234892
:1002E00027F0F4FA0346002B01D000F00FF91F4865
:1002F00027F074F90346002B01D000F007F9012123
:10030000002005F0CBF905E0012005F0ABF96420F1
:1003100006F050FD174B1B68002BF5D0012005F0AF
:1003200083F941F288336F221349104827F00EFBFE
:100330000346002B01D000F0E9F8032005F056F940
:1003400041F288336F220D49084827F098FB034695
:10035000002B01D000F0DAF8022005F047F9084838
:100360002FF0D0FE07482FF0CDFEFEE7700C0020E6
:10037000001401406C06002004000020B00C002096
:1003800058150308A815030880B582B000AF78603F
:10039000391D4FF6FF730122034827F0D7FA7B6817
:1003A00018460837BD4680BD700C002080B596B059
:1003B00000AF002387F857300023BB60314B1B6C24
:1003C000304A43F0805313642E4B1B6C03F0805370
:1003D000BB60BB6800237B602B4B1B682A4A43F43D
:1003E00040431360284B1B6803F440437B607B68E9
:1003F0000123FB604FF480333B6102237B624FF4A7
:100400008003BB620823FB624FF4B4733B63022397
:100410007B630723BB630623FB6307F10C031846CA
:100420001AF0E2FE034687F8573097F85730002B52
:1004300000D0FEE715F07EF9034687F8573097F8AD
:100440005730002B00D0FEE70F233B6402237B6470
:100450000023BB644FF4A053FB644FF480533B650F
:1004600007F140030521184619F062FE034687F89C
:10047000573097F85730002B00D0FEE700BF5837B1
:10048000BD4680BD003802400070004080B582B09B
:1004900000AF7860002005F0A9F800BF0837BD461E
:1004A00080BD80B483B000AF0346FB80FB88012B86
:1004B00002D1044B01221A6000BF0C37BD465DF823
:1004C000047B70476C06002080B485B000AFF860F4
:1004D000B9601346FB800DE0FB681A78BB681B7897
:1004E0009A4201D0FB880BE0FB680133FB60BB68DC
:1004F0000133BB60FB885A1EFA80002BECD100232D
:1005000018461437BD465DF8047B704780B500AFD0
:10051000002005F06BF8FEE780B400AF164BD3F86F
:100520008830154A43F47003C2F88830134B1B68B7
:10053000124A43F001031360104B00229A600F4BE4
:100540001B680E4A23F0847323F4803313600B4B33
:100550000B4A5A60094B1B68084A23F48023136036
:10056000064B0022DA60044B4FF000629A6000BF35
:10057000BD465DF8047B704700ED00E000380240A6
:100580001030002480B487B000AF00233B6100230B
:100590007B610223FB600023BB6002237B60314B45
:1005A0009B6803F00C033B613B69042B07D0082BCD
:1005B00009D0002B3DD12C4B2C4A1A603DE02A4B30
:1005C0002B4A1A6039E0274B5B689B0D03F001034F
:1005D000BB60244B5B6803F03F037B60BB68002B70
:1005E0000CD0234A7B68B2FBF3F31E4A526892098F
:1005F000C2F3080202FB03F37B610BE01B4A7B683A
:10060000B2FBF3F3174A52689209C2F3080202FBE5
:1006100003F37B61134B5B681B0C03F00303013393
:100620005B00FB607A69FB68B2FBF3F30E4A136070
:1006300003E00D4B0D4A1A6000BF0A4B9B681B0973
:1006400003F00F030B4AD35C3B61074B1A683B690D
:1006500022FA03F3044A136000BF1C37BD465DF85D
:10066000047B704700380240740000200024F4002E
:1006700000127A00D015030880B58AB000AF786008
:1006800000233B61224B1B6B214A43F0040313639D
:100690001F4B1B6B03F004033B613B690023FB60B2
:1006A0001B4B1B6B1A4A43F004031363184B1B6B61
:1006B00003F00403FB60FB680023BB60144B5B6C1E
:1006C000134A43F020035364114B5B6C03F0200387
:1006D000BB60BB6840237B610223BB610123FB61DC
:1006E00003233B6208237B6207F114031946094880
:1006F0000BF07CF880237B6108237B6207F11403F5
:10070000194604480BF072F800BF2837BD4680BD7B
:10071000003802400008024080B582B000AF786027
:100720000B4B5B6A0A4A43F020035362084B5B6A37
:10073000074A23F020035362402106480BF000FAD9
:10074000802104480BF0FCF900BF0837BD4680BD8E
:10075000003802400008024080B400AF00BFBD4630
:100760005DF8047B704780B400AFFEE780B400AF53
:10077000FEE780B400AFFEE780B400AFFEE780B4D0
:1007800000AF00BFBD465DF8047B704780B400AF8A
:1007900000BFBD465DF8047B704780B400AF00BF6A
:1007A000BD465DF8047B704780B500AF06F0AAFA3D
:1007B00000BF80BD80B500AF01200BF03FFB00BF44
:1007C00080BD000090B585B000AF03463A60FB8065
:1007D0000B467B710023FB7300F0F8FB00223968A5
:1007E0001E4800F04DFB1D4B1D4A1A601B4829F0A6
:1007F000B1FE0346002B03D10021184800F027FA70
:10080000386800F078FB0346002B01D00123FB730E
:10081000FB7B002B0CD1134B9B689420984703461D
:10082000E02B03D1104B0F4A1A6001E00123FB7348
:10083000FB7B002B0CD10C4B1B681C687A79F98868
:100840003B689420A0470346002B01D00123FB7393
:10085000FB7B18461437BD4690BD00BF2C0D002011
:1008600004580140AC010020F40D002080B584B094
:1008700000AF786039600023FB73144B1B68DB68A2
:100880003A6892B27968942098470346002B01D0C9
:100890000123FB73FB7B002B13D13B68B3F5003FB7
:1008A00003D23B685B089BB201E04FF6FF731A4628
:1008B0007968074829F028FB0346002B01D0012363
:1008C000FB73FB7B18461037BD4680BDF40D00203E
:1008D0002C0D002080B582B000AF78600B467B8085
:1008E0007B881A467968034829F00EFB00BF083759
:1008F000BD4680BD2C0D002080B582B000AF002326
:10090000FB710D4B1B681B69942098470346002B15
:1009100001D00123FB71FB79002B07D1074829F097
:10092000A9F90346002B01D00123FB71FB7918467E
:100930000837BD4680BD00BFF40D00202C0D0020FF
:1009400080B582B000AF0023FB710D4B1B685B6963
:10095000942098470346002B01D00123FB71FB79BB
:10096000002B07D1074829F0A7F90346002B01D037
:100970000123FB71FB7918460837BD4680BD00BFD7
:10098000F40D00202C0D002080B584B000AF7860FD
:100990000023FB73104B1B689B6979689420984770
:1009A0000346002B01D00123FB73FB7B002B0DD1F1
:1009B0007B68012B02D1022006F0FCF9074829F0E0
:1009C000ACF90346002B01D00123FB73FB7B1846D7
:1009D0001037BD4680BD00BFF40D00202C0D002057
:1009E00080B584B000AF0346FB710023FB73084B56
:1009F0001B681B6AFA791146942098470346002B1E
:100A000001D00123FB73FB7B18461037BD4680BD28
:100A1000F40D002080B584B000AF78600023FB7334
:100A2000074B1B685B6A7968942098470346002B44
:100A300001D00123FB73FB7B18461037BD4680BDF8
:100A4000F40D002080B584B000AF0346FB71002395
:100A5000FB73084B1B689B6AFA79114694209847F0
:100A60000346002B01D00123FB73FB7B1846103794
:100A7000BD4680BDF40D002080B582B000AF786027
:100A8000002279680E4800F0FBF90D4B1B681A68CC
:100A90000B4B1B6822F480321A60094A7B68136290
:100AA000074828F0F1FC064B1B681A68044B1B68CA
:100AB00042F480321A6000BF0837BD4680BD00BFD7
:100AC0002C0D002080B582B000AF78607B6803F009
:100AD0000103002B0FD02A4B1B6F184607F0DEFED8
:100AE000274B1B6F4FF48072DA61254B1B6F184642
:100AF00007F026FE0DE0224B1B6F184607F0CEFED6
:100B00001F4B1B6F0022DA611D4B1B6F184607F04D
:100B100017FE7B6803F00403002B16D0184B1B68EC
:100B20001A68174B1B6822F480321A60144B00229B
:100B30009A62134828F0A8FC114B1B681A68104BE6
:100B40001B6842F480321A6016E00D4B1B681A686D
:100B50000B4B1B6822F480321A60094B4FF4805211
:100B60009A62074828F090FC054B1B681A68044BF2
:100B70001B6842F480321A6000BF0837BD4680BD52
:100B80002C0D002080B582B000AF78600C4B1B6844
:100B90001A680B4B1B6822F480321A60084A7B6883
:100BA0005366074828F070FC054B1B681A68044B15
:100BB0001B6842F480321A6000BF0837BD4680BD12
:100BC0002C0D002080B500AF00F000FA0021044891
:100BD00000F010F9034B00221A6000BF80BD00BF77
:100BE0002C0D0020F40D002080B582B000AF78609D
:100BF00000F018F800BF0837BD4680BD80B582B050
:100C000000AF786000F015F800BF0837BD4680BD22
:100C100080B582B000AF786000F012F800BF0837EE
:100C2000BD4680BD80B400AF00BFBD465DF8047B0B
:100C3000704780B400AF00BFBD465DF8047B7047CD
:100C400080B400AF00BFBD465DF8047B704780B53F
:100C50008CB000AF786039600023BB615F4B1B6BC9
:100C60005E4A43F0100313635C4B1B6B03F01003ED
:100C7000BB61BB690423FB6101233B6200237B62F0
:100C80000323BB6207F11C03194655480AF0AEFD69
:100C90000122042152480BF075F800237B614F4B71
:100CA0005B6C4E4A43F4800353644C4B5B6C03F41F
:100CB00080037B617B6900233B61484B1B6B474A88
:100CC00043F040031363454B1B6B03F040033B6150
:100CD0003B690023FB60414B1B6B404A43F0100310
:100CE00013633E4B1B6B03F01003FB60FB68802318
:100CF000FB6102233B6200237B620323BB6206236A
:100D0000FB6207F11C03194636480AF06FFD702399
:100D1000FB6102233B6200237B620323BB62062349
:100D2000FB6207F11C0319462D480AF05FFD002302
:100D3000BB602A4B1B6B294A43F480031363274B88
:100D40001B6B03F48003BB60BB687B681B68264A8F
:100D5000934237D1254B00225A60244B40229A609F
:100D6000224B0022DA60214B4FF480621A611F4B44
:100D70004FF400625A611D4B4FF400529A611B4BB5
:100D80004FF48072DA61194B4FF400321A62174B3C
:100D900004225A62154B03229A62144B0022DA6233
:100DA000124B00221A63114B114A1A607B680F4ADA
:100DB0001A670E4A7B6893630C4807F06FFD0B4877
:100DC00007F0BEFC002205213B2006F0FCFA3B2088
:100DD00006F015FB00BF3037BD4680BD003802402D
:100DE0000010024000180240045801407006002024
:100DF0005864024080B588B000AF786039603B200D
:100E000006F00BFB7B681B68194A934204D17B6890
:100E10001B6F184607F042FD7B681B681A687B68E9
:100E20001B6822F480321A600022042111480AF063
:100E3000A9FF8023FB60FB6819460F480AF080FE7B
:100E40007023FB60FB6819460A480AF079FE042308
:100E5000FB60FB68194607480AF072FE074B5B6CA3
:100E6000064A23F48003536400BF2037BD4680BD8B
:100E700004580140001002400018024000380240AF
:100E800080B594B000AFF860B9607A6007F11403E0
:100E9000184619F0DBFEBB6842F61132934209D0C6
:100EA000BB6845F22262934204D0BB684AF64442D2
:100EB00093420ED102237B6140F2AD13BB6102234A
:100EC0003B6213237B6307F11403184619F080FC7F
:100ED0000DE002237B614FF4AC73BB6107233B62DF
:100EE00001237B6307F11403184619F071FC00BF5E
:100EF0005037BD4680BD80B584B000AF7860002318
:100F0000FB73304B304A1A602E4B1B681A682D4B0E
:100F10001B6822F480321A602A4A7B681362294BCC
:100F20004FF48012DA61274B00225A60254B0022D1
:100F30005A61244B00225A63224B80229A63214B30
:100F40000022DA631F4B00221A641E4B00229A60B3
:100F50001C4B4FF400521A611A4B01229A61194B33
:100F600040225A64174B20229A64164B4FF4803269
:100F7000DA64144B00221A65124B4FF480225A6532
:100F8000104B00229A650F4B0022DA650D4B0422AC
:100F90001A660C4B0F225A660A4828F075FA034667
:100FA000002B01D00123FB73064B1B681A68054B0D
:100FB0001B6842F480321A60FB7B18461037BD462E
:100FC00080BD00BF2C0D00200458014080B500AF4B
:100FD000074B084A1A60064B1B681A68044B1B68CB
:100FE00022F480321A60024828F072FB00BF80BDF4
:100FF0002C0D00200458014080B584B000AFF8608B
:10100000B9607A6000F026FB00210E4800F036F946
:101010007A687968F86800F049FA0A4B0A4A1A6057
:10102000084811F00BFD0346002B03D100210548B1
:1010300000F053F9F86800F0D3FA0023184610378F
:10104000BD4680BD900E0020003C004080B584B0BD
:1010500000AF786039600123FB603B689BB21A46A1
:101060007968054811F05EFA0023FB60FB68DBB28B
:1010700018461037BD4680BD900E002080B582B066
:1010800000AF01237B60084811F008FB074B1B6C85
:10109000064A23F00403136400237B607B68DBB201
:1010A00018460837BD4680BD900E0020003802402B
:1010B00080B500AF024811F0F1FA0023184680BD58
:1010C000900E002080B500AF024811F049FB0023CC
:1010D000184680BD900E002080B483B000AF034658
:1010E000FB71FB799AB2044B1A80002318460C3727
:1010F000BD465DF8047B7047F800002080B500AF66
:1011000000F0A8FA0021034800F096F900F078FBFF
:1011100000BF80BD900E002080B5ADF5047D00AF0E
:101120003B1D18603B461960002387F80B320023F3
:1011300087F80A320023C7F80C320023C7F80C32B4
:101140004DE0D7F80C325B003A1D126813441B883F
:101150001B0A9BB287F80A32D7F80C325B003A1DA3
:10116000126813441B8887F80B3297F80B3203F090
:101170005503314AD35C5AB297F80A3203F055034B
:101180002D49CB5C1B015BB213435AB2D7F80C322A
:101190005B000133D1B207F10802D15497F80B324A
:1011A0005B08DBB203F05503234AD35C5AB297F8CD
:1011B0000A325B08DBB203F055031F49CB5C1B010D
:1011C0005BB213435AB2D7F80C325B00D1B207F1CD
:1011D0000802D154D7F80C320133C7F80C32D7F8D3
:1011E0000C327F2BADD90023C7F80C3219E007F180
:1011F0000802D7F80C32D018D7F80C325B003A4608
:101200001268D118D7F80C324C2202FB03F30B4AB8
:1012100013441A462EF010F9D7F80C320133C7F8F0
:101220000C32D7F80C32012BE1D90023184607F510
:101230000477BD4680BD00BF78000020F80D002077
:1012400080B582B000AF786000F032F800BF083798
:10125000BD4680BD80B582B000AF786000F02FF849
:1012600000BF0837BD4680BD80B582B000AF786052
:1012700000F02CF800BF0837BD4680BD80B592B0A5
:1012800000AF7860396007F10C03184619F0DEFCF6
:101290000123FB604FF4C0733B6102237B6107F1C4
:1012A0000C03184619F094FA00BF4837BD4680BDBC
:1012B00080B400AF00BFBD465DF8047B704780B4CA
:1012C00000AF00BFBD465DF8047B704780B400AF3F
:1012D00000BFBD465DF8047B704780B58CB000AFA1
:1012E0007860396000F020FA0023BB614C4B1B6C26
:1012F0004B4A43F400431364494B1B6C03F4004313
:10130000BB61BB6900237B61454B1B6B444A43F0C7
:1013100008031363424B1B6B03F008037B617B697B
:1013200000233B613E4B1B6B3D4A43F002031363BA
:101330003B4B1B6B03F002033B613B690823FB61E2
:1013400002233B6200237B620223BB620623FB6213
:1013500007F11C03194633480AF048FA4023FB61A1
:101360000523FB6207F11C0319462F480AF03EFAD9
:101370000023FB602A4B1B6B294A43F400131363C1
:10138000274B1B6B03F40013FB60FB687B681B6837
:10139000264A934237D1264B00225A60244B002222
:1013A0009A60234B0022DA60214B4FF480621A616D
:1013B0001F4B4FF400625A611D4B4FF400529A616B
:1013C0001B4B4FF48072DA61194B4FF400321A62F2
:1013D000174B00225A62164B03229A62144B0022CA
:1013E000DA62134B00221A63114B124A1A607B68AF
:1013F0000F4ADA630E4A7B6893630D4807F04EFA92
:101400000B4807F09DF9002206210D2005F0DBFFB7
:101410000D2005F0F4FF00BF3037BD4680BD00BF92
:101420000038024000040240000C0240003C004032
:10143000D00600204060024080B588B000AF7860E0
:1014400039600D2005F0E9FF7B681B68134A934261
:1014500004D17B68DB6B184607F020FA7B681B68B9
:10146000DA697B681B6822F48062DA610823FB601A
:10147000FB6819460A480AF063FB4023FB60FB68DF
:10148000194608480AF05CFB074B1B6C064A23F41C
:101490000043136400BF2037BD4680BD003C0040C0
:1014A00000040240000C02400038024080B586B0C3
:1014B00000AFF860B9607A6000237B6100233B6174
:1014C000424B1B6B414A43F4805313633F4B1B6BEE
:1014D00003F480533B613B6900237B616EE03C4A2F
:1014E0007B694C2101FB03F3134400221A80384A24
:1014F0007B694C2101FB03F31344023300221A8061
:10150000334A7B694C2101FB03F313440433314A12
:101510001A607B6898B22E4A7B694C2101FB03F369
:1015200013440A3302461A80BB6898B2284A7B6982
:101530004C2101FB03F31344083302461A807B69F4
:101540004C2202FB03F3224A134418462DF0EAFD15
:10155000FB68214AA2FB03239B0998B21F497A69C1
:1015600013465B0013445B000B44023302461A80AF
:101570001A497A6913465B0013445B000B44043339
:1015800018221A8015497A6913465B0013445B00E0
:101590000B4402221A807B694C2202FB03F30C4AA3
:1015A00098187A6913465B0013445B000B4A134496
:1015B00019462DF041FE7B6901337B617A69BB6876
:1015C0009A428CD300BF1837BD4680BD0038024018
:1015D000F80D0020489D807ED34D6210200D002024
:1015E00080B582B000AF7860184B194A1A60174B6B
:1015F0001B68DA69154B1B6822F48062DA617B682C
:101600009B00124A5361114B0022DA610F4B0022FA
:101610009A610E4B0022DA600C4B00221A610B4BD0
:101620004FF440725A60094B20229A60074810F02C
:10163000A9FA064B1B68DA69044B1B6842F4806206
:10164000DA6100BF0837BD4680BD00BF900E0020A4
:10165000003C004080B500AF074B084A1A60064BBB
:101660001B68DA69044B1B6822F48062DA61024865
:1016700010F0D8FB00BF80BD900E0020003C004061
:1016800080B58AB000AF786000233B611B4B1B6CB8
:101690001A4A43F004031364184B1B6C03F0040351
:1016A0003B613B690023FB60144B1B6B134A43F007
:1016B00008031363114B1B6B03F00803FB60FB680B
:1016C0000223BB610023FB6103233B6202237B6295
:1016D0004FF480537B6107F11403194608480AF060
:1016E00085F84FF400537B6107F114031946044851
:1016F0000AF07CF800BF2837BD4680BD00380240A4
:10170000000C024080B483B000AF7860054B1B6CC6
:10171000044A23F00403136400BF0C37BD465DF890
:10172000047B70470038024080B594B000AF324B64
:10173000324A1A60304B0122DA602F4B00225A6085
:101740002D4B00221A612C4B00229A602A48FFF789
:1017500097FF294820F0DCF902233B6401237B64D6
:101760000023BB640023FB6407F1400300221946F9
:10177000214821F091FB70237B610023BB61002392
:10178000FB6100233B6207F1140319461A4822F05B
:10179000E9F950237B6007233B600023BB600023F3
:1017A000FB6000233B613B461946134822F0ADFA2B
:1017B00060237B624FF48073BB630123BB62002311
:1017C000FB6200233B6300237B634FF40073FB63E6
:1017D00007F1240304221946074821F0F9FB0421EC
:1017E00005481FF01EFE0021034820F000FA00BF4C
:1017F0005037BD4680BD00BFB40D0020000800403A
:1018000080B500AF094B0A4A1A60042107481FF04F
:1018100045FE0021054820F00CFA044820F0A3F909
:101820000248FFF76FFF00BF80BD00BFB40D00206E
:101830000008004080B500AF04F057FA104BA0221A
:101840001A800F4B1B889BB240F6B831184604F043
:1018500082FA0346002B0FD0094BA6221A80084BB0
:101860001B889BB240F6B831184604F074FA034660
:10187000002B01D0012300E00023184680BD00BFEB
:101880003007002080B400AF00231846BD465DF845
:10189000047B704780B586B000AFF8600B467A6075
:1018A0007B817B681B887B617B681A880A4B1A8066
:1018B0000A4B1B8898B279897B69FA6804F033FA7D
:1018C0000346002B03D000F053F9012300E000236E
:1018D00018461837BD4680BDD80E002030070020BE
:1018E00080B586B000AFF8600B467A607B817B687C
:1018F0001B783B6100237B617B681A780E4B1A7062
:101900000E4B1B8898B279893B69FA6804F0F3F9A9
:101910000346002B03D000F02BF901237B6100F07C
:1019200011F90346002B01D0012300E07B69184622
:101930001837BD4680BD00BFDA0E002030070020FA
:1019400080B586B000AF78600B467B8013463B8045
:101950000023FB820023BB8200237B8200233B8287
:101960000023FB720023FB607B8803F003033B82B0
:101970003B8AC3F104037B823B889B08FB823B8844
:1019800003F00303BB823B8A002B42D1FB8A002B6E
:1019900025D1BB8ADBB2FB7207F10B027B881946AB
:1019A0007868FFF79DFFF860FB68002B00F0C580AA
:1019B000FB68C3E00423FB7207F10B027B88194626
:1019C0007868FFF78DFFF860FB68002B01D0FB689B
:1019D000B4E07B8804337B807B6804337B60FB8AC4
:1019E0005A1EFA82002BE5D1BB8A002B00F0A5809D
:1019F000BB8ADBB2FB7207F10B027B881946786861
:101A0000FFF76EFFF860FB68002B00F09680FB6824
:101A100094E0FB8A002B3CD13A887B8A9A4228D9F1
:101A20007B8ADBB2FB7207F10B027B881946786870
:101A3000FFF756FFF860FB68002B01D0FB687DE0E4
:101A40003B88DAB27B8ADBB2D31ADBB2FB727B8AC9
:101A50007A68D0187A887B8A13449BB207F10B020C
:101A60001946FFF73DFFF860FB68002B65D0FB6867
:101A700064E0BB8ADBB2FB7207F10B027B8819467C
:101A80007868FFF72DFFF860FB68002B55D0FB68E6
:101A900054E03A887B8AD31A3B803B889B08FB82C0
:101AA0003B8803F00303BB827B8A002B2DD07B8A0B
:101AB000DBB2FB7207F10B027B8819467868FFF7EF
:101AC0000FFFF860FB68002B01D0FB6836E07A88D6
:101AD0007B8A13447B807B8A7A6813447B6014E0A2
:101AE0000423FB7207F10B027B8819467868FFF725
:101AF000F7FEF860FB68002B01D0FB681EE07B88D6
:101B000004337B807B6804337B60FB8A5A1EFA8235
:101B1000002BE5D1BB8A002B0FD0BB8ADBB2FB7256
:101B200007F10B027B8819467868FFF7D9FEF86049
:101B3000FB68002B01D0FB6800E000231846183733
:101B4000BD4680BD80B500AF084B1B889BB240F6F8
:101B5000B831184604F0FFF80346002B03D000F01C
:101B600007F8022300E00023184680BD300700205C
:101B700080B400AF00BFBD465DF8047B704700BF76
:101B800080B500AF012000F003F80346184680BD81
:101B900080B596B000AF0346FB7146F625337B65F2
:101BA00000233B6500F03EF901F044FD934B944A5D
:101BB0001A60924807F07CFD7D237B620223BB62A2
:101BC0000023FB624FF224433B658C4B0122DA6019
:101BD0003B6D9B088B4AA2FB03239B0A874A9360B9
:101BE00007F124031946854807F048FCFB79002BD0
:101BF00008D1854B4FF4F0721A60844B4FF4487251
:101C00001A6007E0804B4FF448721A607F4B4FF424
:101C1000F0721A607C4B1B68FB647C4B1B68BB64D6
:101C200001237B640F233B641023FB630223BB630C
:101C300022237B6322233B63754B00221A60744B83
:101C400005225A60724B00221A62714B0022DA613F
:101C50006F4B00225A626E4B0222DA606C4B40F6E8
:101C6000FF729A616A4B00225A61694AFB6C1361E8
:101C7000BB6B3A6D02FB03F27B6DB2FBF3F3644A7C
:101C800093627B6B3A6D02FB03F27B6DB2FBF3F365
:101C90005F4AD362FA6CBB6B1A447B6B1A443B6B92
:101CA00013443A6D02FB03F27B6DB2FBF3F3584A27
:101CB0001363574A7B6C5363554A3B6C9363544A96
:101CC000FB6BD363524ABB6C1364514B4FF400421D
:101CD0005A644F4B10229A644D4B0022DA644C4BED
:101CE0004FF400521A654A4B4FF480525A65484BE4
:101CF0004FF400629A65464B4FF48062DA65444BBC
:101D00004FF400721A66424B4FF480725A66404993
:101D10003A4807F021FF2323FB6023233B61232361
:101D20007B612323BB610023FB610A233B6207F134
:101D30000C031946314808F073FABB6B013B354A76
:101D40005361BA6B7B6B1344013B324AD3612E4B18
:101D50001A68BB6B1A447B6B1344013B2D4A5362D8
:101D6000294B1A68BB6B1A447B6B1A443B6B1344B8
:101D7000013B284AD362244B1B68264A1366234B37
:101D80001B68244A5366244B08221A60224B4FF4E6
:101D9000C0721A61204B0722DA611F4B00229A623F
:101DA0001D4818F015FD1B4B002283F83420194BF9
:101DB000002283F83520174B002283F83620154B7C
:101DC00000221A61134B154A1A601149114813F089
:101DD0004BFB104812F0B6F8084808F051FB02F02F
:101DE000D7FE0F4800F00CFAFB791946002004F0EA
:101DF00042F8002318465837BD4680BD840F0020A6
:101E0000006C0140575E2143280100202C01002076
:101E100034070020DC0E0020BC08002000680140D0
:101E20000001002080B586B000AF00233B60164B58
:101E30001B6B154A43F080031363134B1B6B03F0BA
:101E400080033B603B6880237B601123BB600023E1
:101E5000FB6003233B613B1D19460C4809F0C6FC9F
:101E600000228021094809F08DFF142004F0A2FF10
:101E700001228021054809F085FF0A2004F09AFF1D
:101E800000BF1837BD4680BD00380240001C02402C
:101E900080B400AF034B1B681846BD465DF8047B59
:101EA000704700BF2801002080B400AF034B1B68BF
:101EB0001846BD465DF8047B704700BF2C0100202A
:101EC00080B483B000AF7860074B1B68074A3421A9
:101ED00001FB03F3134460337A681A6000BF0C37C8
:101EE000BD465DF8047B7047A0070020DC0E002093
:101EF00080B483B000AF7860074B1B68074A342179
:101F000001FB03F3134464337A681A6000BF0C3793
:101F1000BD465DF8047B7047A0070020DC0E002062
:101F200080B590B000AF03463960FB800023FB60B2
:101F3000FFF7AEFF03463B6100237B61FFF7B4FF71
:101F40000346BB610023FB613B683B63FF233B62AD
:101F500000237B62002387F83C30002387F83D3064
:101F6000002387F83E304FF4C063BB620723FB6257
:101F7000FFF78EFF03467B63FFF796FF0346BB63C5
:101F8000FA8807F10C031946124812F099F9FA88F9
:101F9000114913465B0013449B000B4404334FF07C
:101FA000FF321A60FA880C4913465B0013449B0009
:101FB0000B440833094A1A60FA88074913465B0044
:101FC00013449B000B444FF07F421A6000BF403720
:101FD000BD4680BDDC0E0020A407002000010020CB
:101FE00080B483B000AF7860044A7B68136000BFA0
:101FF0000C37BD465DF8047B704700BFA00700208A
:1020000080B483B000AF78600B46FB70FB78012B87
:1020100012D1194B1B681A467B68DB0113448433C9
:102020001B68154A126811467A68D2010A44843244
:1020300043F00103136011E00F4B1B681A467B68E5
:10204000DB01134484331B680B4A126811467A681B
:10205000D2010A44843223F001031360064B1B684B
:102060005A6A054B1B6842F001025A6200BF0C37E6
:10207000BD465DF8047B7047DC0E002080B582B061
:1020800000AF78600B46FB70FB787A68194603480E
:1020900012F000FC00BF0837BD4680BDDC0E0020FA
:1020A00080B582B000AF786039607A6839680348DB
:1020B00012F026FC00BF0837BD4680BDDC0E0020B4
:1020C00090B583B000AF0446084611461A46234631
:1020D000FB800346BB800B467B8013463B803988E0
:1020E0003A8BFB88064812F013FBB9887A88FB8884
:1020F000034812F053FB00BF0C37BD4690BD00BF34
:10210000DC0E002080B582B000AF786039607A685C
:102110003968054812F012F97968034812F0C0F9DD
:1021200000BF0837BD4680BDDC0E002080B582B000
:1021300000AF78607968034812F0EBF900BF083708
:10214000BD4680BDDC0E002080B483B000AF786057
:10215000074B1A68074913465B0013449B000B4466
:102160007A681A6000BF0C37BD465DF8047B704783
:10217000A0070020A407002080B400AF064B1A6817
:10218000064913465B0013449B000B441B6818462A
:10219000BD465DF8047B7047A0070020A40700201F
:1021A00080B483B000AF7860084B1A6808491346C2
:1021B0005B0013449B000B4404337A681A6000BF31
:1021C0000C37BD465DF8047B704700BFA0070020B8
:1021D000A407002080B400AF074B1A6807491346D4
:1021E0005B0013449B000B4404331B681846BD4638
:1021F0005DF8047B704700BFA0070020A407002003
:1022000080B483B000AF7860084B1A680849134661
:102210005B0013449B000B4408337A681A6000BFCC
:102220000C37BD465DF8047B704700BFA007002057
:10223000A407002080B400AF074B1A680749134673
:102240005B0013449B000B4408331B681846BD46D3
:102250005DF8047B704700BFA0070020A4070020A2
:10226000B0B584B000AF03460A46FB801346BB807E
:102270000023FB604B4B1B684B4A342101FB03F3EB
:10228000134448331B68002B15D1464B1B68464A44
:10229000342101FB03F313445C331C68BD88FFF752
:1022A000F7FD034603FB05F2FB8813449B00234420
:1022B0001B68FB6070E03B4B1B683B4A342101FB11
:1022C00003F3134448331B68012B17D1354B1B68AC
:1022D000354A342101FB03F313445C331C68BD8889
:1022E000FFF7D6FD034603FB05F2FB8813449B0072
:1022F00023441B6823F07F43FB604DE0294B1B68A0
:10230000294A342101FB03F3134448331B68022B91
:1023100015D0244B1B68244A342101FB03F31344DA
:1023200048331B68042B0AD01E4B1B681E4A3421FD
:1023300001FB03F3134448331B68072B16D1194BD9
:102340001B68194A342101FB03F313445C331C68F6
:10235000BD88FFF79DFD034603FB05F2FB88134490
:102360005B0023441B889BB2FB6015E00D4B1B6890
:102370000D4A342101FB03F313445C331C68BD8810
:10238000FFF786FD034603FB05F2FB8813445B0061
:1023900023441B78DBB2FB60FB6818461037BD4650
:1023A000B0BD00BFA0070020DC0E0020F0B585B056
:1023B00002AF78600F4B1C680E4B1B680E4A34212D
:1023C00001FB03F313445C331B681D46FFF760FDFC
:1023D0000646FFF769FD02467B68019300230093E0
:1023E000134632462946204601F039FB00BF0C3720
:1023F000BD46F0BDA0070020DC0E002090B585B0E2
:1024000000AF78602D4B1A682D4913465B001344CA
:102410009B000B441B68FB60284B1968274B1A680C
:1024200027480B465B000B449B00034404331968A8
:10243000234813465B0013449B00034419601F4B61
:102440001A681F4913465B0013449B000B44083372
:102450001B68DA887B689BB212FB03F39CB2FFF720
:1024600017FD034698B2154B1A68154913465B00D1
:1024700013449B000B4408331B68DB88024621464B
:10248000002000F09FFD0D4B1A680D4913465B00BC
:1024900013449B000B44FA681A60084B1A680849F9
:1024A00013465B0013449B000B441B681846FFF760
:1024B0004BFE00BF1437BD4690BD00BFA0070020F3
:1024C000A407002090B583B000AF0346FB800B4605
:1024D000BB801346FB701B4B1A681B4913465B00FD
:1024E00013449B000B4408331B681968FB78A3F165
:1024F0002000144B1A68144C13465B0013449B00D5
:10250000234408331B68DB8803FB00F00D4B1A687B
:102510000D4C13465B0013449B00234408331B6897
:102520009B880733002B00DA0733DB1003FB00F333
:10253000CA18B988FB88184601F01CF900BF0C378F
:10254000BD4690BDA0070020A4070020B0B588B00C
:1025500000AFBA601A460346FB810B46BB811346A7
:10256000FB710123FB830023BB830023BB6100239A
:102570003B61BB687B6102E0BB690133BB617B6986
:102580005A1C7A611B78002BF6D1FFF781FC4F4B68
:102590001A684F4913465B0013449B000B440833F1
:1025A0001B689B88B0FBF3F33B61FB79022B1CD0CB
:1025B000032B17D0012B2ED13A69BB69D11A434B9B
:1025C0001A68434813465B0013449B0003440833D6
:1025D0001B689B8803FB01F35B089AB2FB891344D9
:1025E000FB831BE0FB89FB8318E03A69BB69D31AC4
:1025F00099B2364B1A68364813465B0013449B0069
:10260000034408331B689B8811FB03F39AB2FB89D0
:10261000D31AFB8302E0FB89FB8300BFFB8B002BFB
:1026200003D0B7F91E30002B1DDA0123FB831AE01B
:10263000BB681A78B989FB8B1846FFF743FF234B19
:102640001A68234913465B0013449B000B4408336C
:102650001B689A88FB8B1344FB83BB680133BB6008
:10266000BB8B0133BB83BB681B78002B14BF0123DA
:102670000023DCB2FFF70CFC0546B98B134B1A683C
:10268000134813465B0013449B00034408331B6844
:102690009B8803FB01F3EB1A99B20C4B1A680C48A8
:1026A00013465B0013449B00034408331B689B885C
:1026B00099422CBF01230023DBB22340DBB2002B65
:1026C000B6D100BF2037BD46B0BD00BFA007002077
:1026D000A407002080B582B000AF03463960FB80BC
:1026E000FFF7A8FD0346DB88FA8812FB03F399B2D3
:1026F00003233A680020FFF729FF00BF0837BD46D3
:1027000080BDB0B586B002AF0346FB800B46BB80F0
:1027100013467B800023FB60164B1B68164A34214E
:1027200001FB03F313445C331C68FFF7B1FB024663
:10273000BB8803FB02F2FB8813449B002344FB602D
:102740000C4B1868FC687D880A4B1A680B491346C5
:102750005B0013449B000B441B6801930023009310
:1027600001232A46214601F07AF900BF1037BD4601
:10277000B0BD00BFA0070020DC0E0020A407002091
:10278000F0B587B002AF0346FB800B46BB80134613
:102790007B800023FB60184B1B68184A342101FB27
:1027A00003F313445C331C68FFF772FB0246BB88DB
:1027B00003FB02F2FB8813449B002344FB600E4B97
:1027C0001C68FD687E88FFF763FB0346591E0A4BB1
:1027D0001A680B4813465B0013449B0003441B68B4
:1027E00001930091334601222946204601F037F932
:1027F00000BF1437BD46F0BDA0070020DC0E00204E
:10280000A407002090B58BB000AF044608461146DF
:102810001A462346FB800346BB800B467B8013464B
:102820003B8000233B820023FB810023FB840023A9
:10283000BB8400237B8400233B840023FB83002391
:10284000BB8300237B8300233B830023FB82002385
:10285000BB8200237B827A88FB88D31A002BB8BF07
:102860005B423B823A88BB88D31A002BB8BF5B42DD
:10287000FB81FB88FB84BB88BB847A88FB889A42F7
:1028800004D301237B8401233B8405E04FF6FF73CF
:102890007B844FF6FF733B843A88BB889A4204D30B
:1028A0000123FB830123BB8305E04FF6FF73FB830A
:1028B0004FF6FF73BB83B7F91020B7F90E309A4279
:1028C00010DB00237B840023BB833B8A7B83B7F927
:1028D0001030DA0F13445B103B83FB89FB823B8A89
:1028E000BB820FE000233B840023FB83FB897B83B7
:1028F000B7F90E30DA0F13445B103B833B8AFB823F
:10290000FB89BB8200237B8238E0F88CBC8C204B97
:102910001A68204913465B0013449B000B441B6854
:102920001A46214600F000FF3A8BFB8A13449BB203
:102930003B83B7F91820B7F91A309A420EDB3A8B6D
:102940007B8BD31A9BB23B83FA8C7B8C13449BB258
:10295000FB84BA8CFB8B13449BB2BB84FA8C3B8CFC
:1029600013449BB2FB84BA8CBB8B13449BB2BB84D5
:10297000B7F912309BB201339BB27B82B7F91220B8
:10298000B7F914309A42C0DD00BF2C37BD4690BD68
:10299000A0070020A407002090B583B000AF044634
:1029A000084611461A462346FB800346BB800B4669
:1029B0007B8013463B807A88B988FB881846FFF7EE
:1029C000A0FEBA883B88134499B27A88FB881846DF
:1029D000FFF797FE3A88B988FB881846FFF7D0FEC4
:1029E000FA887B8813449BB23A88B9881846FFF767
:1029F000C7FE00BF0C37BD4690BD90B587B000AF95
:102A00000346FB800B46BB8013467B807B885B00C4
:102A1000C3F103037B6100233B617B88FB60CFE054
:102A20003B699AB2FB88134498B2FB689BB2BA88A0
:102A3000D31A9CB2674B1A68674913465B0013446C
:102A40009B000B441B681A46214600F06DFE3B6953
:102A50009BB2FA88D31A98B2FB689BB2BA88D31A91
:102A60009CB25C4B1A685C4913465B0013449B00A4
:102A70000B441B681A46214600F056FEFB689AB2CA
:102A8000FB88134498B23B699BB2BA88D31A9CB2B4
:102A9000504B1A68504913465B0013449B000B448B
:102AA0001B681A46214600F03FFEFB689BB2FA887D
:102AB000D31A98B23B699BB2BA88D31A9CB2454BE1
:102AC0001A68454913465B0013449B000B441B687E
:102AD0001A46214600F028FE3B699AB2FB8813444F
:102AE00098B2FB689AB2BB8813449CB2394B1A68FF
:102AF000394913465B0013449B000B441B681A467C
:102B0000214600F011FE3B699BB2FA88D31A98B2B5
:102B1000FB689AB2BB8813449CB22E4B1A682E49AC
:102B200013465B0013449B000B441B681A46214666
:102B300000F0FAFDFB689AB2FB88134498B23B6937
:102B40009AB2BB8813449CB2224B1A68224913469E
:102B50005B0013449B000B441B681A46214600F09F
:102B6000E3FDFB689BB2FA88D31A98B23B699AB22C
:102B7000BB8813449CB2174B1A68174913465B0075
:102B800013449B000B441B681A46214600F0CCFD01
:102B90007B69002B06DA3B699A007B691344063394
:102BA0007B610AE03A69FB68D31A9A007B69134497
:102BB0000A337B61FB68013BFB603B6901333B618E
:102BC0003A69FB689A427FF62BAF00BF1C37BD46BF
:102BD00090BD00BFA0070020A407002090B585B0DD
:102BE00000AF78600B467B800023FB810023BB8114
:102BF0007B88012B3BD97B68B3F9003098B27B68A6
:102C0000B3F9023099B27B8803F18043013B9B000A
:102C10007A681344B3F900309CB27B8803F1804397
:102C2000013B9B007A681344B3F902309BB2224601
:102C3000FFF7E8FD14E07B681B88FB817B685B88FD
:102C4000BB817B6804337B60F889B9897B68B3F901
:102C500000309AB27B68B3F902309BB2FFF7D2FD25
:102C60007B88013B7B807B88002BE4D100E000BFA8
:102C70001437BD4690BD90B58DB000AFF860B96017
:102C80007A603B600023FB623B685B42BB627B680F
:102C9000C3F101035B007B624FF00003FB614FF067
:102CA0000003BB614FF000037B617B6807EE903A45
:102CB000F8EEE77AC7ED067A3B6807EE903AF8EE51
:102CC000E77AC7ED057AD7ED056A97ED067AC6EE85
:102CD000877AC7ED077AFB689AB2FB6A07EE903AEB
:102CE000F8EEE76A97ED077AC6EE877AFCEEE77AA8
:102CF00017EE903A9BB2D31A98B2BB689AB2BB6AED
:102D00009BB213449CB2554B1A68554913465B005D
:102D100013449B000B441B681A46214600F004FD37
:102D2000FB6A07EE903AF8EEE76A97ED077AC6EE8F
:102D3000877AFCEEE77A17EE903A9AB2FB689BB27C
:102D4000134498B2BB689AB2BB6A9BB213449CB25C
:102D5000424B1A68424913465B0013449B000B44E4
:102D60001B681A46214600F0DFFCFB6A07EE903A2A
:102D7000F8EEE76A97ED077AC6EE877AFCEEE77A17
:102D800017EE903A9AB2FB689BB2134498B2BB68B4
:102D90009AB2BB6A9BB2D31A9CB2304B1A683049C4
:102DA00013465B0013449B000B441B681A462146E4
:102DB00000F0BAFCFB689AB2FB6A07EE903AF8EEB4
:102DC000E76A97ED077AC6EE877AFCEEE77A17EEA8
:102DD000903A9BB2D31A98B2BB689AB2BB6A9BB2C4
:102DE000D31A9CB21D4B1A681D4913465B0013444D
:102DF0009B000B441B681A46214600F095FC7B6A39
:102E00003B623A6AFB6A9A4213DCFB6A0133FB625B
:102E1000FB6A5B0001337A6A13447B62BB6A5B42E4
:102E2000FA6A9A4205D13A6ABB6A9A4201DC0023E7
:102E30003B623A6ABB6A9A4208DDBB6A0133BB62F5
:102E4000BB6A5B0001337A6A13447B62BB6A002B66
:102E50007FF741AF00BF3437BD4690BDA0070020CB
:102E6000A407002090B58BB000AFF860B9607A601D
:102E700000237B620023BB6100237B6100233B6155
:102E80000023FB617B680A331B781A467B680B338F
:102E90001B781B021A447B680C331B781B041A44F2
:102EA0007B680D331B781B0613447B627B681233EF
:102EB0001B781A467B6813331B781B021A447B6805
:102EC00014331B781B041A447B6815331B781B06CC
:102ED0001344BB617B6816331B781A467B68173333
:102EE0001B781B021A447B6818331B781B041A4496
:102EF0007B6819331B781B0613447B617B681C338A
:102F00001B781A467B681D331B781B0213443B61F8
:102F10002A4B1B682A4A342101FB03F313445C3318
:102F20001C68FEF7B5FF0246BB6803FB02F2FB68B4
:102F300013449B0023443B623B69203B072B02D890
:102F40000023FB6108E03B69103B072B02D80223FA
:102F5000FB6101E00123FB617B69013BBA6902FB74
:102F600003F33A69D20802FB03F27B6A13447A68DE
:102F700013447B6000237B6218E0396AFB69BA69FD
:102F8000786800F0A5FDFEF783FF03469B003A6AD0
:102F900013443B623B69DB08BA6902FB03F35B4203
:102FA0007A6813447B607B6A01337B627A6A7B694F
:102FB0009A42E2D300BF2C37BD4690BDA007002047
:102FC000DC0E00202DE9F04186B002AF0446084631
:102FD00011461A462346FB800346BB800B467B8086
:102FE00013463B800023FB60204B1A6820491346A0
:102FF0005B0013449B000B441B681846FFF7A4F8C2
:103000001A4B1B681B4A342101FB03F313445C3346
:103010001C68FEF73DFF0246BB8803FB02F2FB88FB
:1030200013449B002344FB60104B1C68FD687E88A2
:10303000B7F80080FEF72CFF02467B88D11A0B4BB5
:103040001A680B4813465B0013449B0003441B683B
:1030500001930091434632462946204600F0FFFC8A
:1030600000BF1037BD46BDE8F08100BFA0070020BB
:10307000A4070020DC0E002080B586B000AF034618
:10308000FB800B46BB8013467B807B885B00C3F1D3
:1030900003037B6100233B617B88FB60444B1A6820
:1030A000444913465B0013449B000B441B681846BD
:1030B000FFF74AF861E0FB68002B21D0FB689BB268
:1030C000FA88D31A98B23B699AB2BB88134499B272
:1030D000FB689BB25B009BB21A46FFF712FBFB68D2
:1030E0009BB2FA88D31A98B23B699BB2BA88D31ABA
:1030F00099B2FB689BB25B009BB21A46FFF701FBDB
:103100003B69002B21D03B699BB2FA88D31A98B255
:10311000FB689BB2BA88D31A99B23B699BB25B0039
:103120009BB21A46FFF7EDFA3B699BB2FA88D31AB5
:1031300098B2FB689AB2BB88134499B23B699BB2C0
:103140005B009BB21A46FFF7DCFA7B69002B06DABC
:103150003B699A007B69134406337B610AE03A6954
:10316000FB68D31A9A007B6913440A337B61FB68BE
:10317000013BFB603B6901333B613A69FB689A4262
:1031800099D90B4B1A680B4913465B0013449B00FB
:103190000B441B681846FEF7D7FF7A88B988FB886E
:1031A0001846FFF72AFC00BF1837BD4680BD00BF98
:1031B000A0070020A4070020B0B58CB002AF786053
:1031C0000B467B8000233B830023FB820023FB8490
:1031D0000023BB840023BB8200237B8200233B822D
:1031E0000023FB810023BB8100237B8100237B84A0
:1031F00000233B840023FB830023BB8300237B83CA
:103200007B68B3F90030FB83FB8B3B847B68B3F9AD
:1032100002307B837B8BBB8301237B842FE0B7F958
:1032200022309B007A6813441B88BB81B7F90C20BD
:103230003B8C9A4201DABB893B84B7F90C20FB8BAB
:103240009A4201DDBB89FB83B7F922309B007A6883
:1032500013445B887B81B7F90A20BB8B9A4201DA61
:103260007B89BB83B7F90A207B8B9A4201DD7B897E
:103270007B83B7F922309BB201339BB27B84B7F9D1
:1032800022207B889A42CADB7B88012B72D93A8C38
:10329000FB8B1344DA0F13445B10BB827A8BBB8B1E
:1032A0001344DA0F13445B107B827B681B883B82DC
:1032B0007B685B88FB8132E07B681B883B837B6893
:1032C0005B88FB827B6804337B607B681B88FB84A4
:1032D0007B685B88BB84388BF98CBC8AFD8ABB8C8D
:1032E0007A8A019200932B46224600F0FBFA388B33
:1032F000B98AFC8CFD8A7B8ABA8C019200932B469A
:10330000224600F0EFFAB88AF98C3C8B7D8ABB8CA0
:10331000FA8A019200932B46224600F0E3FA7B885A
:10332000013B7B807B88002BC6D1388AF98CBC8A14
:10333000FD89BB8C7A8A019200932B46224600F0CD
:10334000D1FA388AB98AFC8CFD897B8ABA8C0192C1
:1033500000932B46224600F0C5FAB88AF98C3C8AC5
:103360007D8ABB8CFA89019200932B46224600F09D
:10337000B9FA00E000BF2837BD46B0BD80B58CB0BB
:1033800000AFF860B9607A603B600023FB623B6885
:103390005B42BB627B68C3F101035B007B624FF061
:1033A0000003FB614FF00003BB614FF000037B6142
:1033B0007B6807EE903AF8EEE77AC7ED067A3B684D
:1033C00007EE903AF8EEE77AC7ED057AD7ED056A91
:1033D00097ED067AC6EE877AC7ED077AFB689AB250
:1033E000FB6A07EE903AF8EEE76A97ED077AC6EEC9
:1033F000877AFCEEE77A17EE903A9BB2D31A98B22E
:10340000BB689AB2BB6A9BB2134499B2FB6A07EEDF
:10341000903AF8EEE76A97ED077AC6EE877AFCEE07
:10342000E77A17EE903A9BB25B009BB201339BB2F6
:103430001A46FFF766F9FB689AB2FB6A07EE903A04
:10344000F8EEE76A97ED077AC6EE877AFCEEE77A40
:1034500017EE903A9BB2D31A98B2BB689AB2BB6A85
:103460009BB2D31A99B2FB6A07EE903AF8EEE76A7C
:1034700097ED077AC6EE877AFCEEE77A17EE903A78
:103480009BB25B009BB201339BB21A46FFF739F93E
:103490007B6A3B623A6AFB6A9A4213DCFB6A01333D
:1034A000FB62FB6A5B0001337A6A13447B62BB6A8E
:1034B0005B42FA6A9A4205D13A6ABB6A9A4201DCD7
:1034C00000233B623A6ABB6A9A4208DDBB6A013359
:1034D000BB62BB6A5B0001337A6A13447B62BB6ADE
:1034E000002B7FF77BAF00BF3037BD4680BD80B576
:1034F00082B002AF054B19680023009329231522DF
:10350000034807F0AEF800BFBD4680BD3407002079
:10351000840F002080B582B002AF064B19680023EB
:10352000009328231522044807F09BF800BFBD46EE
:1035300080BD00BF34070020840F002080B584B018
:1035400002AF786039607B68012B0DD83B681B782F
:103550001A463B6801331B7800931346152200215D
:103560000A4807F07EF80DE03A687B6813441B7840
:103570001A463B68019300927B6839220021034878
:1035800007F091F800BF0837BD4680BD840F0020CA
:1035900080B500AF024804F071FD00BF80BD00BFE0
:1035A000A00F002080B500AF024806F0C6F900BFAA
:1035B00080BD00BF840F002080B500AF024810F02E
:1035C000BDFD00BF80BD00BFDC0E002080B500AF98
:1035D000582003F022FF5A2003F01FFF5C2003F065
:1035E0001CFF134B5B6A124A43F080635362104B1B
:1035F0001B690F4A43F4000313610D4B5B6A0C4ACD
:1036000043F0006353620A4B5B6C094A23F080630A
:103610005364074B1B6B064A23F400031363044BEC
:103620005B6C034A23F00063536400BF80BD00BF9E
:103630000038024080B584B000AF0023FB60344BFB
:103640005B6C334A43F080635364314B5B6C03F033
:103650008063FB60FB682E4B5B6A2D4A43F08063FE
:1036600053622B4B5B6A2A4A23F080635362002328
:10367000BB60274B1B6B264A43F400031363244BA8
:103680001B6B03F40003BB60BB68214B1B69204A22
:1036900043F4000313611E4B1B691D4A23F400030E
:1036A000136100237B601A4B5B6C194A43F0006383
:1036B0005364174B5B6C03F000637B607B68144BB7
:1036C0005B6A134A43F000635362114B5B6A104A12
:1036D00023F00063536200220321582003F073FE9D
:1036E000582003F08CFE002203215A2003F06BFEC9
:1036F0005A2003F084FE002203215C2003F063FEC5
:103700005C2003F07CFE00BF1037BD4680BD00BFCB
:103710000038024080B500AF024810F00FFD00BF36
:1037200080BD00BFDC0E0020B0B582B000AF034604
:103730003A60FB800B46BB800C4B1B680C4A342163
:1037400001FB03F313445C331C68BD88FEF7A0FB48
:10375000034603FB05F2FB8813449B0023441A46EF
:103760003B68136000BF0837BD46B0BDA00700200E
:10377000DC0E002080B588B000AF03463A60FB80C5
:103780000B46BB800023FB610023BB61534B1A68CF
:10379000534913465B0013449B000B4408331B68DA
:1037A000DB887B824D4B1A684D4913465B001344FE
:1037B0009B000B4408331B689B883B823B8A073382
:1037C000002B00DA0733DB10DBB2DB00DAB23B8A16
:1037D000DBB2D31AFB730023FB6176E03B8A07332D
:1037E000002B00DA0733DB101A46FB6903FB02F3F8
:1037F0003A681344BB603B8A0733002B00DA073377
:10380000DB10012B02D0022B04D00CE0BB681B782C
:103810007B6116E0BB681B781B02BA680132127824
:1038200013437B610DE0BB681B781A04BB6801334E
:103830001B781B021343BA680232127813437B6170
:1038400000BF0023BB6136E03A8ABB69D21AFB7B1A
:103850001344013B012202FA03F31A467B69134029
:10386000002B12D0BB699AB2FB88134498B21B4B51
:103870001A681B4913465B0013449B000B441A68EB
:10388000BB881946FFF750FF12E0BB699AB2FB886C
:10389000134498B2114B1A68114913465B00134444
:1038A0009B000B4404331A68BB881946FFF73CFFA2
:1038B000BB690133BB613B8ABA699A42C4D3BB88F6
:1038C0000133BB80FB690133FB617B8AFA699A4251
:1038D00084D300BF2037BD4680BD00BFA0070020B5
:1038E000A407002090B58BB000AF044608461146EF
:1038F0001A462346FB800346BB800B467B8013465B
:103900003B8000233B820023FB810023FB840023B8
:10391000BB8400237B8400233B840023FB830023A0
:10392000BB8300237B8300233B830023FB82002394
:10393000BB8200237B82BA88FB88D31A002BB8BFD6
:103940005B423B823A8F3B88D31A002BB8BF5B4265
:10395000FB81FB88FB843B88BB84BA88FB889A4246
:1039600004D301237B8401233B8405E04FF6FF73DE
:103970007B844FF6FF733B843A8F3B889A4204D393
:103980000123FB830123BB8305E04FF6FF73FB8319
:103990004FF6FF73BB83B7F91020B7F90E309A4288
:1039A00010DB00237B840023BB833B8A7B83B7F936
:1039B0001030DA0F13445B103B83FB89FB823B8A98
:1039C000BB820FE000233B840023FB83FB897B83C6
:1039D000B7F90E30DA0F13445B103B833B8AFB824E
:1039E000FB89BB8200237B822FE0F88CB98CBB8FD4
:1039F0007A88FEF707FF3A8BFB8A13449BB23B831E
:103A0000B7F91820B7F91A309A420EDB3A8B7B8B44
:103A1000D31A9BB23B83FA8C7B8C13449BB2FB84FE
:103A2000BA8CFB8B13449BB2BB84FA8C3B8C134443
:103A30009BB2FB84BA8CBB8B13449BB2BB84B7F99B
:103A400012309BB201339BB27B82B7F91220B7F9D7
:103A500014309A42C9DD00BF2C37BD4690BD80B5F9
:103A600086B002AFF860B9607A603B60164B4FF4E5
:103A700040325A60144B00229A60134ABB69D360EB
:103A8000114B124A1A60104803F0E0FD0346002B68
:103A900015D1F9680C4804F001FC0346002B0ED147
:103AA000BA683B6800937B68F969074803F09AFE9F
:103AB0000346002B03D10A21034804F0F6F900BFA6
:103AC0001037BD4680BD00BFA00F002000B00240EF
:103AD00080B586B002AFF860B9607A603B601C4B7D
:103AE0004FF480325A601A4B00229A60184B002221
:103AF000DA60174B00221A63154BFF225A63144AEF
:103B00003B68D362124B00229A62114B114A1A6031
:103B10000F4803F09BFD0346002B15D101210C48F3
:103B200004F0BCFB0346002B0ED1F968BA680123F0
:103B300000937B68064803F055FE0346002B03D133
:103B40000A21034804F0B1F900BF1037BD4680BD1B
:103B5000A00F002000B0024080B500AF0C4B08223F
:103B60001A700B4B1E225A70094B0C229A70084B8C
:103B70000022DA70064B00221A71054B00225A719E
:103B80000122002103482CF0A0FA00BF80BD00BF35
:103B9000BC070020C207002080B400AF164B0022F3
:103BA0005A71154B1B790133DAB2134B1A71124B50
:103BB0001B79082B02D0104B1B7900E000230E4A22
:103BC00013710D4B1A790C4BDB789A420FD10A4BCB
:103BD000DB780133DAB2084BDA70074BDB78082B5D
:103BE00002D0054BDB7800E00023034AD37000BF0E
:103BF000BD465DF8047B7047BC07002090B583B0DC
:103C000000AF786043E0264B5B791E2B0CD1244B30
:103C10001B791946224A0B465B015B1A1344243375
:103C200000221A70FFF7B8FF7B681B780A2B14D1AB
:103C30001B4B1B7919461A4B5B791846184A0B46E1
:103C40005B015B1A13440344063300221A70FFF72A
:103C5000A3FF144800F028F816E0114B1B79194611
:103C60000F4B5B791C467B6818780D4A0B465B014D
:103C70005B1A13442344063302461A70084B5B79DF
:103C80000133DAB2064B5A717B6801337B607B6883
:103C90001B78002BB7D100BF0C37BD4690BD00BFCD
:103CA000BC070020C207002080B5C4B000AF3B1D98
:103CB0001860294BDB7887F80F31274B1B7987F881
:103CC00007310023C7F8083107F10C023B1D1B68C0
:103CD00010461946F8231A462CF0ECF92FE01E4B3B
:103CE0009B781A46D7F8083113441846FEF786FB2E
:103CF000194B9B789AB2D7F808319BB2134498B20B
:103D000097F80F2107F10C0113465B019B1A0B4436
:103D10001946FEF7DFFCD7F808310133C7F8083140
:103D200097F80F31013387F80F3197F80F31082BCF
:103D300002D097F80F3100E0002387F80F3197F891
:103D40000F2197F807319A42C9D100BF184607F5ED
:103D50008877BD4680BD00BFBC07002080B582B01B
:103D600000AF284B284A1A60264811F05FFE034630
:103D7000002B01D0012341E00021224800F050FA3D
:103D8000204B01225A601F4B01229A601D4B1022CA
:103D9000DA604FF080737B607B6893FAA3F33B603B
:103DA0003B68B3FA83F3DBB2013B1A46154B1A6149
:103DB000144B4FF480625A61124B00229A61114BEE
:103DC0000022DA610F4B00221A620E4811F0A4FDA6
:103DD0000346002B01D0012310E00A4800F0E0FA6E
:103DE0000346002B01D0042308E0064800F01AFB2C
:103DF0000346002B01D0042300E0002318460837B7
:103E0000BD4680BDE00F0020001000A080B500AFCF
:103E1000084B094A1A60074811F008FE0346002BB8
:103E200001D0012304E00021024800F079FA0023C8
:103E3000184680BDE00F0020001000A080B592B0B1
:103E400000AFF860B9607A604FF48073BB62EB2317
:103E50003B614FF44063FB624FF40053FB61BB686E
:103E60007B6100233B634FF040737B630A237B62DB
:103E70007B68BB630023FB6300233B6400237B64FC
:103E800007F1100341F288321946164811F0CEFFAF
:103E90000346002B01D001231FE0124B1B685B6817
:103EA00023F4E0620F4B1B6842F480725A6041F2C7
:103EB0008832F9680B4812F032F90346002B01D022
:103EC00001230AE0074B1B685B6823F4E062054BA3
:103ED0001B6842F480625A60002318464837BD468A
:103EE00080BD00BFE00F002080B596B000AFF86045
:103EF000B9607A60BB68DBB2C3F580737B657A6DAD
:103F00007B689A4201D97B687B65BB683B65BA6870
:103F10007B681344FB644FF48073FB6212237B6164
:103F20004FF440633B634FF400533B6200237B63D9
:103F30004FF04073BB630023BB6200233B6400234C
:103F40007B640023BB643B6DBB617B6DFB632448DA
:103F500000F0DCFA0346002B01D001233BE007F11F
:103F6000140341F2883219461D4811F05FFF0346E1
:103F7000002B01D001232EE041F28832F968184865
:103F800012F038F80346002B01D0012323E041F260
:103F90008831134800F003FB0346002B01D00123B6
:103FA00019E03A6D7B6D13443B65FA687B6D1344F1
:103FB000FB603B6D03F58073FA6C9A4203D2FA6C96
:103FC0003B6DD31A01E04FF480737B653A6DFB6C57
:103FD0009A42B8D3002318465837BD4680BD00BF6B
:103FE000E00F002080B590B000AF78604FF4807390
:103FF0003B622023BB604FF480637B624FF400532D
:104000007B617B68FB600023BB620023FB620023B3
:10401000FB6100237B630023BB630023FB63124827
:1040200000F074FA0346002B01D0012317E007F1DA
:10403000080341F2883219460B4811F0F7FE034697
:10404000002B01D001230AE04FF44871064800F02C
:10405000A6FA0346002B01D0012300E000231846F6
:104060004037BD4680BD00BFE00F002080B58EB058
:1040700000AF4FF48073BB61C7233B600023FB613B
:1040800000233B6200237B6200237B610023FB62F1
:1040900000233B6300237B63104800F037FA03469C
:1040A000002B01D0012315E03B4641F2883219462E
:1040B0000A4811F0BBFE0346002B01D0012309E0A2
:1040C0000749064800F06BFA0346002B01D0012394
:1040D00000E0002318463837BD4680BDE00F0020C1
:1040E00090D0030080B590B000AF4FF480733B6276
:1040F0007023BB6000237B620023BB624FF08073A0
:10410000FB620023FB6101233B6300237B630023ED
:10411000BB630023FB6307F1080341F288321946B1
:10412000164811F083FE0346002B01D0012320E046
:10413000FB1D41F288321946104811F0F0FF03468A
:10414000002B01D0012314E0FB7903F03A03002B8C
:1041500001D001230DE0FB7903F04403002B01D0D3
:10416000082306E0FB795BB2002B01DA002300E0B4
:10417000022318464037BD4680BD00BFE00F002037
:1041800080B483B000AF78607B684FF080721A60B3
:104190007B684FF480525A607B684FF480529A607B
:1041A0007B684FF48072DA607B684FF480321A616A
:1041B000002318460C37BD465DF8047B704780B578
:1041C00090B000AF4FF480733B62EB23BB604FF4C1
:1041D00040637B624FF400537B610023BB624FF06E
:1041E0004073FB620A23FB6100237B630023BB63F4
:1041F0000023FB6300237B603A4607F1080319465E
:10420000064812F0FBFB0346002B01D0012300E01F
:10421000002318464037BD4680BD00BFE00F002098
:1042200080B58AB000AF7860396000233B61394BBC
:104230009B6B384A43F002039363364B9B6B03F04E
:1042400002033B613B69334B9B69324A43F00203F3
:104250009361304B9B692F4A23F002039361002343
:10426000FB602C4B1B6B2B4A43F002031363294B5F
:104270001B6B03F00203FB60FB680023BB60254B54
:104280001B6B244A43F020031363224B1B6B03F088
:104290002003BB60BB6840237B610223BB61012319
:1042A000FB6103233B620A237B6207F11403194677
:1042B000194807F09BFA4FF480637B610023FB6190
:1042C00009237B6207F114031946144807F08EFA9C
:1042D0004FF440737B610A237B6207F11403194694
:1042E0000E4807F083FAC0237B6109237B6207F144
:1042F00014031946094807F079FA00220F215B20C0
:1043000003F061F85B2003F07AF800BF2837BD4660
:1043100080BD00BF0038024000040240001402408B
:1043200080B582B000AF786039605B2003F075F82B
:104330004021184807F004FC4FF48061164807F04C
:10434000FFFB4FF48071144807F0FAFB4FF4007143
:10435000114807F0F5FB80210F4807F0F1FB4021E1
:104360000D4807F0EDFB0D4B9B690C4A43F002032F
:1043700093610A4B9B69094A23F002039361074B3F
:104380009B6B064A23F00203936300BF0837BD46C8
:1043900080BD00BF0004024000140240003802400B
:1043A00080B590B000AF78604FF480733B626623B5
:1043B000BB6000237B620023BB620023FB620023FF
:1043C000FB6100237B630023BB630023FB6307F1D6
:1043D000080341F288321946786811F027FD034638
:1043E000002B01D0012319E09923BB6007F10803DA
:1043F00041F288321946786811F018FD0346002B07
:1044000001D001230AE041F28831786800F0C7F852
:104410000346002B01D0012300E00023184640375B
:10442000BD4680BD80B594B000AF78604FF4807316
:10443000BB6285233B610023FB6200233B634FF09B
:1044400080737B6300237B620123BB630023FB63D8
:1044500000233B6400237B6407F1100341F28832A0
:104460001946786811F0E2FC0346002B01D00123C5
:1044700048E007F10F0341F288321946786811F0DD
:104480004EFE0346002B01D001233BE0786800F08C
:104490003DF80346002B01D0012333E081233B612B
:1044A000FB7B5BB203F00F035AB2F023FB64FB6C9F
:1044B00093FAA3F3BB64BB6CB3FA83F3DBB2194684
:1044C0000A238B405BB213435BB2DBB2FB7307F191
:1044D000100341F288321946786811F0A7FC0346B0
:1044E000002B01D001230DE007F10F0341F28832C8
:1044F0001946786811F07EFD0346002B01D0012398
:1045000000E0002318465037BD4680BD80B596B008
:1045100000AF78604FF48073BB6306233B620023D7
:10452000FB6300233B6400237B6400237B63002345
:10453000FB6400233B6500237B6507F1200341F208
:1045400088321946786811F071FC0346002B01D0BF
:10455000012320E00223BB600223FB600023BB6138
:1045600001237B6110233B614FF48003FB61052332
:104570003B624FF080737B6407F1080207F1200172
:1045800041F28833786812F02BF90346002B01D0F2
:10459000012300E0002318465837BD4680BD80B592
:1045A00096B000AF786039604FF48073BB63052329
:1045B0003B620023FB6300233B644FF080737B640A
:1045C00000237B630023FB6400233B6500237B65A2
:1045D0000023BB600123FB600023BB6101237B61DF
:1045E00010233B614FF48003FB6107F1080207F1E0
:1045F00020013B68786812F0F3F80346002B01D0E5
:10460000012300E0002318465837BD4680BD00BF97
:1046100080B582B000AF0023FB71214B214A1A60A4
:104620001F4B00225A601E4B00229A601C4B002236
:10463000DA601B4B00221A61194B4FF480425A6119
:10464000174B00229A610021154800F0F7F900F09D
:104650006DF80346012B01D002231CE00021104815
:1046600000F0F8F80E4819F0DFF90346002B01D0EE
:104670000123FB71FB79002B0CD14FF4006108483A
:104680001AF0C2FE0346002B02D00123FB7101E0A9
:104690000023FB71FB7918460837BD4680BD00BF7B
:1046A0002C100020002C014080B582B000AF002308
:1046B000FB710B4B0B4A1A60094819F03DFA03468F
:1046C000002B01D00123FB71054B064A1A60002123
:1046D000034800F0DDF9FB7918460837BD4680BD78
:1046E0002C100020002C014080B586B000AF0423C0
:1046F0007B600123FB6002233B610A4BBB603B1DD7
:104700001946094807F072F800220F21082002F02C
:104710005AFE082002F073FE002318461837BD46E3
:1047200080BD00BF000031100018024080B582B08B
:1047300000AF0123FB710421064807F00BFB034681
:10474000012B01D10023FB71FB79DBB2184608373E
:10475000BD4680BD0018024080B586B002AFF8604B
:10476000B9607A603B603B6800937B68BA68F9681F
:10477000064819F014FA0346002B01D0012300E08B
:10478000002318461037BD4680BD00BF2C10002006
:1047900080B586B002AFF860B9607A603B603B6874
:1047A00000937B68BA68F968064819F08EFB0346E7
:1047B000002B01D0012300E0002318461037BD462E
:1047C00080BD00BF2C10002080B584B000AFF86021
:1047D000B9607A607B68BA68F968064819F040FEEB
:1047E0000346002B01D0012300E0002318461037B8
:1047F000BD4680BD2C10002080B584B000AFF860AD
:10480000B9607A607B68BA68F968064819F0F2FE08
:104810000346002B01D0012300E000231846103787
:10482000BD4680BD2C10002080B582B000AF7860FE
:1048300039603A687968064819F0A6FF0346002BEC
:1048400001D0012300E0002318460837BD4680BD93
:104850002C10002080B58CB000AF78603960002348
:10486000BB616F4B5B6C6E4A43F4006353646C4BEB
:104870005B6C03F40063BB61BB6900237B61684B25
:104880001B6B674A43F480031363654B1B6B03F494
:1048900080037B617B6900233B61614B1B6B604A3A
:1048A00043F0040313635E4B1B6B03F004033B6193
:1048B0003B690023FB605A4B1B6B594A43F00803CA
:1048C0001363574B1B6B03F00803FB60FB68022369
:1048D0003B6201237B620323BB620C23FB624FF428
:1048E000F853FB6107F11C0319464E4806F07EFFA2
:1048F0000423FB6107F11C0319464B4806F076FFC1
:1049000000220E21312002F05EFD312002F077FD01
:10491000464B4FF000625A60444B00229A60434B72
:104920000022DA60414B4FF480621A613F4B4FF432
:1049300080525A613D4B4FF480429A613B4B20229A
:10494000DA613A4B4FF440321A62384B04225A6211
:10495000364B03229A62354B4FF40002DA62334B36
:104960004FF400121A63314B314A1A607B682F4AA8
:10497000DA632E4A7B6893632C4803F08FFF2B4841
:1049800003F0DEFE2B4B4FF000625A60294B4022B1
:104990009A60284B0022DA60264B4FF480621A613D
:1049A000244B4FF480525A61224B4FF480429A615B
:1049B000204B2022DA611F4B4FF440321A621D4B0C
:1049C00004225A621B4B03229A621A4B4FF40002D4
:1049D000DA62184B4FF400121A63164B164A1A602B
:1049E0007B68144A1A64134A7B689363114803F086
:1049F00055FF104803F0A4FE00220F213B2002F0D7
:104A0000E2FC3B2002F0FBFC00220F21452002F0DB
:104A1000DAFC452002F0F3FC00BF3037BD4680BD14
:104A20000038024000080240000C0240F808002054
:104A30005864024058090020A064024080B588B044
:104A400000AF786039600023BB600F4B1B6B0E4AD0
:104A500043F0400313630C4B1B6B03F04003BB603C
:104A6000BB680423FB6000233B6101237B610323BC
:104A7000BB6107F10C031946044806F0B7FE00BFFE
:104A80002037BD4680BD00BF0038024000180240FC
:104A900080B582B000AF786039603B2002F0BDFC89
:104AA000452002F0BAFC0C4B0C4A1A600A4803F08D
:104AB000F5FE0B4B0B4A1A60094803F0EFFE31205C
:104AC00002F0ABFC084B5B6C074A23F400635364B1
:104AD00000BF0837BD4680BDB809002058640240B9
:104AE000180A0020A06402400038024080B500AFE0
:104AF00005481AF005FD0346042B14BF01230023CB
:104B0000DBB2184680BD00BF2C10002080B582B0FB
:104B100000AF7860796803481AF04AFC00BF083794
:104B2000BD4680BD2C10002080B582B000AF7860FB
:104B300000F018F800BF0837BD4680BD80B582B0D0
:104B400000AF786000F015F800BF0837BD4680BDA3
:104B500080B582B000AF786000F012F800BF08376F
:104B6000BD4680BD80B400AF00BFBD465DF8047B8C
:104B7000704780B400AF00BFBD465DF8047B70474E
:104B800080B400AF00BFBD465DF8047B704700BF36
:104B900080B500AF294B2A4A1A602A4B02221A60BC
:104BA000284B07225A60274B04229A60254B072284
:104BB000DA60244B02221A61224B02225A61214BF5
:104BC00002229A611D4B00225A601C4B00229A60FF
:104BD0001A4B0422DA60194B20221A61174B40222B
:104BE0005A61164B4FF4C0729A61144B0022DA617D
:104BF000124B4FF400621A62104B4FF480525A620B
:104C00000E4B00229A6200210C4800F01DF90D495C
:104C10000A481BF0A3FA0346002B03D00A4B0122DB
:104C20001A7002E0084B00221A7040F2695000F03E
:104C300029F8054B1B78184680BD00BF780A002074
:104C4000400100A0AC0A00203001002080B500AF78
:104C5000094B0A4A1A6008481BF0B4FA0346002BB5
:104C600006D1074B00221A700021034800F012FA07
:104C7000034B1B78184680BD780A0020400100A035
:104C80003101002080B584B000AF78600023FB6064
:104C90002A4B01221A60294B10225A60274B01220D
:104CA0009A60264B0022DA604FF6FF7223492448AF
:104CB0001BF03CFD012002F07DF8204B02221A601F
:104CC0001E4B10225A601D4B01229A601B4B002282
:104CD000DA604FF6FF72194919481BF027FD174B90
:104CE00003221A60154B10225A60144B08229A6056
:104CF000124B0022DA604FF6FF72104910481BF089
:104D000015FD4FF40C73FB600C4B04221A600B4B27
:104D100010225A60094B01229A60FB68074AD3604F
:104D20004FF6FF72054906481BF000FD79680448FC
:104D30001BF027FD00BF1037BD4680BDC80A00200C
:104D4000780A002080B584B000AFF860B9607A605E
:104D5000F9687B68BA6806481BF0A2FB0346002B83
:104D600001D0012300E0002318461037BD4680BD66
:104D7000780A002080B584B000AFF860B9607A602E
:104D8000F9687B68BA6806481BF00CFC0346002BE8
:104D900001D0012300E0002318461037BD4680BD36
:104DA000780A002080B584B000AFF860B9607A60FE
:104DB000F9687B68BA6806481BF0B1FB0346002B14
:104DC00001D0012300E0002318461037BD4680BD06
:104DD000780A002080B584B000AFF860B9607A60CE
:104DE000F9687B68BA6806481BF01CFC0346002B78
:104DF00001D0012300E0002318461037BD4680BDD6
:104E0000780A002080B582B000AF78604FF6FF725C
:104E1000796806481BF08AFC0346002B01D0012369
:104E200000E0002318460837BD4680BD780A002000
:104E300080B500AF034B1B6B184603F099FF00BF12
:104E400080BD00BF780A002080B590B000AF7860C8
:104E500039607B68002B00F004810023BB62834B28
:104E60009B6B824A43F001039363804B9B6B03F07F
:104E70000103BB62BB6A00237B627C4B1B6B7B4ADA
:104E800043F480031363794B1B6B03F480037B6251
:104E90007B6A00233B62754B1B6B744A43F004032F
:104EA0001363724B1B6B03F004033B623B6A0023EA
:104EB000FB616E4B1B6B6D4A43F0080313636B4B36
:104EC0001B6B03F00803FB61FB690023BB61674BAD
:104ED0001B6B664A43F010031363644B1B6B03F0B8
:104EE0001003BB61BB6900237B61604B1B6B5F4A96
:104EF00043F0200313635D4B1B6B03F020037B61C6
:104F00007B6900233B61594B1B6B584A43F04003BC
:104F10001363564B1B6B03F040033B613B6900235B
:104F2000FB60524B1B6B514A43F0800313634F4BA2
:104F30001B6B03F08003FB60FB680023BB604B4BE3
:104F40001B6B4A4A43F480731363484B1B6B03F497
:104F50008073BB60BB6802233B6301237B63022336
:104F6000BB630C23FB630123FB6207F12C0319468F
:104F70003F4806F03BFC4CF20373FB6207F12C0345
:104F800019463C4806F032FC4FF68373FB6207F18A
:104F90002C031946384806F029FC4FF63F03FB6204
:104FA00007F12C031946354806F020FC48F233136C
:104FB000FB6207F12C031946314806F017FC4FF647
:104FC0000C73FB6207F12C0319462E4806F00EFC09
:104FD00040F2FF63FB6207F12C0319462A4806F0F2
:104FE00005FC2A4B00225A60284B80229A60274BEE
:104FF0004FF40072DA60254B4FF480621A61234B44
:105000004FF480525A61214B4FF480429A611F4BFA
:105010000022DA611D4B4FF400321A621B4B002252
:105020005A621A4B03229A62184B0022DA62174B1B
:1050300000221A63154B164A1A607B68134A1A63DA
:10504000124A7B689363114803F028FC0F4803F071
:1050500077FB00220521382002F0B5F9382002F054
:10506000CEF900BF4037BD4680BD00BF00380240CA
:1050700000080240000C02400010024000140240F0
:1050800000180240001C024000200240D80A002004
:105090001064024080B582B000AF786039607B68F0
:1050A000002B08D0382002F0B8F9054B054A1A60E9
:1050B000034803F0F3FB00BF0837BD4680BD00BFC7
:1050C000380B00201064024080B584B000AF034666
:1050D0000A46FB801346BB800023FB730023BB738F
:1050E000254B1B68254A127892B210469847224BEE
:1050F0005B685420984703467B737B7B112B09D058
:105100001D4B5B68702098470346BB731B4B702296
:105110001A7002E0194B54221A707B7B112B02D0BB
:10512000BB7B112B21D1164B134A1A60FA88BB881E
:105130009A4203D2134B01221A7002E0114B0C2247
:105140001A70FB7B002B12D10D4B1B689B680B4A1E
:10515000127892B210469847094B1B68DB68074AE1
:10516000127892B21046984701E00323FB73FB7B51
:1051700018461037BD4680BD840100209D0B0020DD
:10518000980B00209C0B002080B586B000AF002358
:10519000FB7500F04FF920233B600123BB60022325
:1051A000FB600E4B7B603B4619460D4806F01EFB2C
:1051B00000220521172002F006F9172002F01FF93E
:1051C000084B1B689B69084A127892B210469847B0
:1051D000FB7D18461837BD4680BD00BF000021107A
:1051E00000240240980B00209D0B002090B589B050
:1051F00000AF78600023FB76894B1B681B69894AE6
:10520000127892B21046984703461A467B681A7085
:105210007B681B78002B00F0FE800023FB61F3E02D
:105220007F4B1B685B697F4A127890B207F11001CF
:10523000FA6952008C1807F10C01FA6952000A440D
:1052400021469847784B1B7803F00803002B1DD0AC
:10525000FB695B0007F12002134433F8103C3B83E9
:10526000FB695B0007F12002134433F8142CFB693F
:105270005B0007F120010B4423F8102CFB695B0055
:1052800007F1200213443A8B23F8142C664B1B7849
:1052900003F00203002B11D0FB695B0007F1200231
:1052A000134433F8103CC3F5477303339AB2FB69D8
:1052B0005B0007F120010B4423F8102C5A4B1B789C
:1052C00003F00403002B11D0FB695B0007F12002FF
:1052D000134433F8143CC3F5EF7301339AB2FB69FE
:1052E0005B0007F120010B4423F8142CFB695B00E1
:1052F00007F12002134433F8103C19464B4AFB696E
:1053000052F8233099420ED9FB695B0007F1200265
:10531000134433F8102C4549FB6951F823309BB2F4
:10532000D31A9BB20DE0414AFB6952F823309AB27E
:10533000FB695B0007F120010B4433F8103CD31AE2
:105340009BB2FB82FB695B0007F12002134433F838
:10535000143C1946364AFB6952F8233099420ED95B
:10536000FB695B0007F12002134433F8142C304929
:10537000FB6951F823309BB2D31A9BB20DE02C4A43
:10538000FB6952F823309AB2FB695B0007F12001F8
:105390000B4433F8143CD31A9BB2BB82FA8ABB8A03
:1053A0001344052B17DDFB695B0007F12002134452
:1053B00033F8103C19461D4AFB6942F82310FB697B
:1053C0005B0007F12002134433F8143C1946184AD5
:1053D000FB6942F82310154AFB6952F8233099B251
:1053E0007A68FB695B0013440A465A80104AFB69DD
:1053F00052F8233099B27A68FB695B0013440A467D
:10540000DA80FB690133FB617B681B781A46FB6914
:105410009342FFF405AFFB7E18462437BD4690BD8E
:10542000980B00209D0B00209C0B0020A00B00205F
:10543000A80B002080B586B000AF00233B600E4B68
:105440001B6B0D4A43F4007313630B4B1B6B03F48C
:1054500000733B603B6820237B600023BB6001231B
:10546000FB6003233B613B1D1946044806F0BEF96F
:1054700000BF1837BD4680BD0038024000240240FE
:1054800080B400AF024B1846BD465DF8047B704700
:105490000001000280B58CB000AF0346FB71FB79C0
:1054A000032B6DD8FB79384A52F82330FB61012376
:1054B0003B6201237B620323BB62FB79032B47D84A
:1054C00001A252F823F000BFD9540008F754000895
:1054D00015550008335500080023BB612B4B1B6B8F
:1054E0002A4A43F040031363284B1B6B03F040032D
:1054F000BB61BB692DE000237B61244B1B6B234AFE
:1055000043F008031363214B1B6B03F008037B611B
:105510007B691EE000233B611C4B1B6B1B4A43F065
:1055200008031363194B1B6B03F008033B613B69D2
:105530000FE00023FB60154B1B6B144A43F48063A0
:105540001363124B1B6B03F48063FB60FB6800E08A
:1055500000BFFB790E4A52F8233007F11C021146B6
:10556000184606F043F9FB79094A52F82300FB7903
:10557000054A52F823309BB20122194606F002FC7C
:1055800000BF3037BD4680BD6001002000380240BA
:105590007001002080B588B000AF0346FB71FB7935
:1055A000032B1AD8FB790F4A52F82330FB60FB79A2
:1055B0000D4A52F82300FB790A4A52F823309BB275
:1055C0000122194606F0DEFBFB79074A52F8233028
:1055D000FA681146184606F0B3FA00BF2037BD46F8
:1055E00080BD00BF600100207001002080B582B046
:1055F00000AF0346FB71FB79032B0CD8FB79084AFB
:1056000052F82300FB79074A52F823309BB200225C
:10561000194606F0B7FB00BF0837BD4680BD00BF86
:10562000700100206001002080B582B000AF034609
:10563000FB71FB79032B0CD8FB79084A52F8230045
:10564000FB79074A52F823309BB20122194606F033
:1056500099FB00BF0837BD4680BD00BF7001002028
:105660006001002080B582B000AF0346FB71FB797A
:10567000032B0BD8FB79074A52F82300FB79064A23
:1056800052F823309BB2194606F095FB00BF08374D
:10569000BD4680BD700100206001002080B588B04B
:1056A00000AF03460A46FB711346BB710023BB6083
:1056B000224B1B6B214A43F0010313631F4B1B6BEF
:1056C00003F00103BB60BB68BB79002B11D1012340
:1056D000FB6000233B6100237B610223BB61FB79FC
:1056E000174A52F8233007F10C021146184606F00B
:1056F0007DF8BB79012B1DD10123FB6000237B6169
:105700000223BB610F4B3B61FB790D4A52F82330FA
:1057100007F10C021146184606F068F806235BB242
:1057200000220F21184601F04EFE06235BB21846F8
:1057300001F065FE00BF2037BD4680BD0038024045
:10574000800100200000111080B588B000AF034632
:10575000FB710123FB6006235BB2184601F05DFE7E
:10576000FB79064A52F82330FA681146184606F0CB
:10577000E7F900BF2037BD4680BD00BF8001002093
:1057800080B582B000AF0346FB71FB79064A52F840
:10579000233001221146184606F0DCFA034618466B
:1057A0000837BD4680BD00BF8001002080B588B0AD
:1057B00000AF0023BB602A4B1B6B294A43F0020356
:1057C0001363274B1B6B03F00203BB60BB684FF4F2
:1057D0008073FB6012233B6100237B610223BB616A
:1057E0000423FB6107F10C0319461E4805F0FEFF78
:1057F0004FF40073FB6007F10C031946194805F0DC
:10580000F5FF00237B60164B1B6C154A43F4001315
:105810001364134B1B6C03F400137B607B68104B09
:105820001B6A0F4A43F4001313620D4B1B6A0C4AA8
:1058300023F400131362002205211F2001F0C3FD91
:105840001F2001F0DCFD00220521202001F0BBFD1E
:10585000202001F0D4FD00BF2037BD4680BD00BF31
:10586000003802400004024080B588B000AF002339
:10587000BB60294B1B6B284A43F080031363264B04
:105880001B6B03F08003BB60BB681023FB6012231B
:105890003B6100237B610223BB610423FB6107F1B1
:1058A0000C0319461D4805F0A1FF2023FB6007F1FA
:1058B0000C031946194805F099FF00237B60164B2D
:1058C0001B6C154A43F480031364134B1B6C03F4E5
:1058D00080037B607B68104B1B6A0F4A43F4800394
:1058E00013620D4B1B6A0C4A23F4800313620022DF
:1058F0000521212001F067FD212001F080FD00221B
:105900000521222001F05FFD222001F078FD00BF7B
:105910002037BD4680BD00BF00380240001C024059
:1059200080B500AF14480AF00CFA0346002B20D1D2
:10593000114B124A1A60104B114A5A600E4B00224A
:105940009A600D4B0022DA600B4B4FF480421A61D3
:10595000094B00225A61084B00229A61064B002233
:10596000DA61054B00221A62FFF720FF024806F0B9
:1059700089FA00BF80BD00BFB00B0020005400407A
:10598000801A060080B500AF14480AF0DAF9034621
:10599000002B20D1114B124A1A60104B114A5A6049
:1059A0000E4B00229A600D4B0022DA600B4B4FF435
:1059B00080421A61094B00225A61084B00229A6109
:1059C000064B0022DA61054B00221A62FFF74CFFFA
:1059D000024806F057FA00BF80BD00BF040C00204B
:1059E00000580040A086010080B588B004AF03468F
:1059F000FB710B46BB7113467B710023FB73FB7974
:105A000099B2BB799AB264230293012301937B1D5F
:105A100000930123074807F0B3FE0346FB73FB7BAB
:105A2000002B03D0FB79184600F0F6F800BF1037C2
:105A3000BD4680BDB00B002080B588B004AF0346E2
:105A40000A46FB711346BB710023FB730023BB7333
:105A5000FB7999B2BB799AB24FF47A73029301231E
:105A6000019307F10E0300930123084807F082FF1A
:105A70000346FB73FB7B002B03D0FB79184600F039
:105A8000CBF8BB7B18461037BD4680BDB00B00205D
:105A900080B58AB004AF7B600346FB730B46BB81C5
:105AA00013467B810023FB75FB7B99B27889BA8909
:105AB0004FF47A7302933B8C01937B680093034607
:105AC000084807F057FF0346FB75FB7D002B03D00A
:105AD000FB7B184600F0A0F8FB7D18461837BD4642
