:020000040800F2
:100000000000052041CD00085D0500086B050008D3
:1000100071050008770500087D0500080000000054
:100020000000000000000000000000008305000840
:1000300091050008000000009F050008AD050008BC
:1000400091CD000891CD000891CD000891CD000818
:1000500091CD000891CD0008B905000891CD0008A8
:1000600091CD000891CD000891CD000891CD0008F8
:1000700091CD000891CD000891CD000891CD0008E8
:1000800091CD000891CD000891CD000891CD0008D8
:1000900091CD000891CD000891CD000891CD0008C8
:1000A00091CD000891CD000891CD000891CD0008B8
:1000B00091CD000891CD000891CD000891CD0008A8
:1000C00091CD000891CD000891CD000891CD000898
:1000D00091CD000891CD000891CD000891CD000888
:1000E00091CD000891CD000891CD000891CD000878
:1000F00091CD000891CD000891CD000891CD000868
:1001000091CD000891CD000891CD000891CD000857
:1001100091CD000891CD000891CD000891CD000847
:1001200091CD000891CD000891CD000891CD000837
:1001300091CD000891CD000891CD000891CD000827
:1001400091CD000891CD000891CD000891CD000817
:1001500091CD000891CD000891CD000891CD000807
:1001600091CD000891CD000891CD000891CD0008F7
:1001700091CD000891CD000891CD0008000000004D
:1001800091CD000891CD000891CD000891CD0008D7
:1001900091CD000891CD000891CD000891CD0008C7
:1001A00091CD000891CD000891CD000891CD0008B7
:0401B00091CD0008E5
:1001C00010B5054C237833B9044B13B10448AFF391
:1001D00000800123237010BD940000200000000067
:1001E00084DD000808B5034B1BB103490348AFF396
:1001F000008008BD000000009800002084DD000899
:1002000080B500AF00F040FF00F040F8002000F0A3
:1002100055FA012000F052FA022000F04FFA0320B4
:1002200000F04CFA0121002000F04CFB0A480CF0D1
:100230000DFB0A480CF0DAFD09480CF0D7FD05E08B
:10024000012000F023FB642001F002F8054B1B683D
:10025000002BF5D0FEE700BF001401409CDD000834
:10026000ECDD0008B000002080B582B000AF7860FF
:10027000391D4FF6FF73012203480AF085FD7B68A4
:1002800018460837BD4680BD6801002080B596B08D
:1002900000AF002387F857300023BB60314B1B6C45
:1002A000304A43F0805313642E4B1B6C03F0805391
:1002B000BB60BB6800237B602B4B1B682A4A43F45E
:1002C00040431360284B1B6803F440437B607B680A
:1002D0000123FB604FF480333B6102237B624FF4C8
:1002E0008003BB620823FB624FF4B4733B630223B9
:1002F0007B630723BB630623FB6307F10C031846EC
:100300000AF0ACF8034687F8573097F85730002BBF
:1003100000D0FEE708F004FD034687F8573097F851
:100320005730002B00D0FEE70F233B6402237B6491
:100330000023BB644FF4A053FB644FF480533B6530
:1003400007F140030521184609F026F8034687F80F
:10035000573097F85730002B00D0FEE700BF5837D2
:10036000BD4680BD003802400070004080B582B0BC
:1003700000AF7860002000F04DFA00BF0837BD469E
:1003800080BD80B483B000AF0346FB80FB88012BA7
:1003900002D1044B01221A6000BF0C37BD465DF844
:1003A000047B7047B000002080B485B000AFF860D7
:1003B000B9601346FB800DE0FB681A78BB681B78B8
:1003C0009A4201D0FB880BE0FB680133FB60BB68FD
:1003D0000133BB60FB885A1EFA80002BECD100234E
:1003E00018461437BD465DF8047B704780B500AFF2
:1003F000002000F00FFAFEE780B400AF164BD3F8F0
:100400008830154A43F47003C2F88830134B1B68D8
:10041000124A43F001031360104B00229A600F4B05
:100420001B680E4A23F0847323F4803313600B4B54
:100430000B4A5A60094B1B68084A23F48023136057
:10044000064B0022DA60044B4FF000629A6000BF56
:10045000BD465DF8047B704700ED00E000380240C7
:100460001030002480B487B000AF00233B6100232C
:100470007B610223FB600023BB6002237B60324B65
:100480009B6803F00C033B613B69042B09D03B697B
:10049000082B0AD03B69002B3DD12C4B2C4A1A600B
:1004A0003DE02A4B2B4A1A6039E0274B5B689B0DD5
:1004B00003F00103BB60244B5B6803F03F037B60E8
:1004C000BB68002B0CD0234A7B68B2FBF3F31E4AB7
:1004D00052689209C2F3080202FB03F37B610BE04E
:1004E0001B4A7B68B2FBF3F3174A52689209C2F3C6
:1004F000080202FB03F37B61134B5B681B0C03F0E8
:10050000030301335B00FB607A69FB68B2FBF3F322
:100510000E4A136003E00D4B0D4A1A6000BF0A4BF0
:100520009B681B0903F00F030B4AD35C3B61074B2D
:100530001A683B6922FA03F3044A136000BF1C37B0
:10054000BD465DF8047B7047003802400000002083
:100550000024F40000127A0014DE000880B400AF1A
:1005600000BFBD465DF8047B704780B400AFFEE776
:1005700080B400AFFEE780B400AFFEE780B400AF08
:10058000FEE780B400AF00BFBD465DF8047B704756
:1005900080B400AF00BFBD465DF8047B704780B4F7
:1005A00000AF00BFBD465DF8047B704780B500AF6B
:1005B00000F0F6FD00BF80BD80B500AF012002F065
:1005C00013FC00BF80BD000080B58AB000AF78602A
:1005D00000233B61224B1B6B214A43F0040313634E
:1005E0001F4B1B6B03F004033B613B690023FB6063
:1005F0001B4B1B6B1A4A43F004031363184B1B6B12
:1006000003F00403FB60FB680023BB60144B5B6CCE
:10061000134A43F020035364114B5B6C03F0200337
:10062000BB60BB6840237B610223BB610123FB618C
:1006300003233B6208237B6207F114031946094830
:1006400002F0AAF880237B6108237B6207F1140380
:100650001946044802F0A0F800BF2837BD4680BD07
:10066000003802400008024080B582B000AF7860D8
:100670000B4B5B6A0A4A43F020035362084B5B6AE8
:10068000074A23F0200353624021064802F02EFA65
:100690008021044802F02AFA00BF0837BD4680BD19
:1006A000003802400008024080B400AF024B1846F8
:1006B000BD465DF8047B70470001000280B58CB038
:1006C00000AF0346FB71FB79032B6DD8FB79384AE9
:1006D00052F82330FB6101233B6201237B62032339
:1006E000BB62FB79032B47D801A252F823F000BF6D
:1006F000010700081F0700083D0700085B07000806
:100700000023BB612B4B1B6B2A4A43F0400313634E
:10071000284B1B6B03F04003BB61BB692DE000233A
:100720007B61244B1B6B234A43F008031363214B6B
:100730001B6B03F008037B617B691EE000233B61B8
:100740001C4B1B6B1B4A43F008031363194B1B6BB9
:1007500003F008033B613B690FE00023FB60154B8E
:100760001B6B144A43F480631363124B1B6B03F43B
:100770008063FB60FB6800E000BFFB790E4A52F823
:10078000233007F11C021146184602F005F8FB79E8
:10079000094A52F82300FB79054A52F823309BB2EC
:1007A0000122194602F0C4FA00BF3037BD4680BDB1
:1007B00004000020003802401400002080B588B0FA
:1007C00000AF0346FB71FB79032B1AD8FB790F4A64
:1007D00052F82330FB60FB790D4A52F82300FB7975
:1007E0000A4A52F823309BB20122194602F0A0FABD
:1007F000FB79074A52F82330FA681146184602F08E
:1008000075F900BF2037BD4680BD00BF0400002041
:100810001400002080B582B000AF0346FB71FB7965
:10082000032B0CD8FB79084A52F82300FB79074ABE
:1008300052F823309BB20022194602F079FA00BF29
:100840000837BD4680BD00BF140000200400002012
:1008500080B582B000AF0346FB71FB79032B0CD847
:10086000FB79084A52F82300FB79074A52F82330F3
:100870009BB20122194602F05BFA00BF0837BD4661
:1008800080BD00BF140000200400002080B582B0AD
:1008900000AF0346FB71FB79032B0BD8FB79074AAA
:1008A00052F82300FB79064A52F823309BB21946CE
:1008B00002F057FA00BF0837BD4680BD1400002083
:1008C0000400002080B588B000AF03460A46FB71E3
:1008D0001346BB710023BB60224B1B6B214A43F0C4
:1008E000010313631F4B1B6B03F00103BB60BB6869
:1008F000BB79002B11D10123FB6000233B61002356
:100900007B610223BB61FB79174A52F8233007F160
:100910000C021146184601F03FFFBB79012B1DD197
:100920000123FB6000237B610223BB610F4B3B6112
:10093000FB790D4A52F8233007F10C021146184694
:1009400001F02AFF06235BB200220F21184600F0B7
:1009500088FF06235BB2184600F09FFF00BF2037D8
:10096000BD4680BD00380240240000200000111068
:1009700080B588B000AF0346FB710123FB600623FE
:100980005BB2184600F097FFFB79064A52F8233015
:10099000FA681146184602F0A9F800BF2037BD4694
:1009A00080BD00BF2400002080B582B000AF0346A8
:1009B000FB71FB79064A52F8233001221146184692
:1009C00002F09EF9034618460837BD4680BD00BFB9
:1009D0002400002080B588B000AF0023BB602A4B04
:1009E0001B6B294A43F002031363274B1B6B03F075
:1009F0000203BB60BB684FF48073FB6012233B6152
:100A000000237B610223BB610423FB6107F10C031C
:100A100019461E4801F0C0FE4FF40073FB6007F159
:100A20000C031946194801F0B7FE00237B60164BF2
:100A30001B6C154A43F400131364134B1B6C03F433
:100A400000137B607B68104B1B6A0F4A43F4001352
:100A500013620D4B1B6A0C4A23F40013136200222D
:100A600005211F2000F0FDFE1F2000F016FF0022D0
:100A70000521202000F0F5FE202000F00EFF00BF31
:100A80002037BD4680BD00BF003802400004024050
:100A900080B588B000AF0023BB60294B1B6B284A90
:100AA00043F080031363264B1B6B03F08003BB6092
:100AB000BB681023FB6012233B6100237B61022390
:100AC000BB610423FB6107F10C0319461D4801F0CB
:100AD00063FE2023FB6007F10C031946194801F05F
:100AE0005BFE00237B60164B1B6C154A43F48003AE
:100AF0001364134B1B6C03F480037B607B68104B07
:100B00001B6A0F4A43F4800313620D4B1B6A0C4AA5
:100B100023F48003136200220521212000F0A1FEAE
:100B2000212000F0BAFE00220521222000F099FECB
:100B3000222000F0B2FE00BF2037BD4680BD00BFBE
:100B400000380240001C024080B500AF144806F097
:100B5000DAF80346002B20D1114B124A1A60104BD1
:100B6000114A5A600E4B00229A600D4B0022DA6047
:100B70000B4B4FF480421A61094B00225A61084B1B
:100B800000229A61064B0022DA61054B00221A62AC
:100B9000FFF720FF024802F04BF900BF80BD00BF05
:100BA000B400002000540040801A060080B500AF59
:100BB000144806F0A8F80346002B20D1114B124A26
:100BC0001A60104B114A5A600E4B00229A600D4B6E
:100BD0000022DA600B4B4FF480421A61094B00226D
:100BE0005A61084B00229A61064B0022DA61054BDC
:100BF00000221A62FFF74CFF024802F019F900BF09
:100C000080BD00BF0801002000580040A086010000
:100C100080B588B004AF0346FB710B46BB71134629
:100C20007B710023FB73FB7999B2BB799AB2642381
:100C30000293012301937B1D00930123074803F0D6
:100C400081FD0346FB73FB7B002B03D0FB79184629
:100C500000F0F6F800BF1037BD4680BDB40000209C
:100C600080B588B004AF03460A46FB711346BB71DA
:100C70000023FB730023BB73FB7999B2BB799AB253
:100C80004FF47A7302930123019307F10E0300934B
:100C90000123084803F050FE0346FB73FB7B002B47
:100CA00003D0FB79184600F0CBF8BB7B1846103711
:100CB000BD4680BDB400002080B58AB004AF7B6023
:100CC0000346FB730B46BB8113467B810023FB75F8
:100CD000FB7B99B27889BA894FF47A7302933B8C83
:100CE00001937B6800930346084803F025FE034602
:100CF000FB75FB7D002B03D0FB7B184600F0A0F8B2
:100D0000FB7D18461837BD4680BD00BFB4000020EB
:100D100080B58AB004AF7B600346FB730B46BB8192
:100D200013467B810023FB75FB7B99B27889BA89D6
:100D30004FF47A7302933B8C01937B6800930346D4
:100D4000084803F0F9FD0346FB75FB7D002B03D03B
:100D5000FB7B184600F084F8FB7D18461837BD462B
:100D600080BD00BF0801002080B58AB004AF7B6061
:100D70000346FB730B46BB8113467B810023FB7547
:100D8000FB7B99B27889BA894FF47A7302933B8CD2
:100D900001937B6800930346084803F0D3FC0346A5
:100DA000FB75FB7D002B03D0FB7B184600F048F859
:100DB000FB7D18461837BD4680BD00BFB40000203B
:100DC00080B58AB004AF7B600346FB730B46BB81E2
:100DD00013467B810023FB75FB7B99B27889BA8926
:100DE0004FF47A7302933B8C01937B680093034624
:100DF000084803F0A7FC0346FB75FB7D002B03D0DE
:100E0000FB7B184600F02CF8FB7D18461837BD46D2
:100E100080BD00BF0801002080B582B000AF03464E
:100E20003960FB80F9884FF47A733A68034804F01C
:100E300081FB034618460837BD4680BDB40000203C
:100E400080B582B000AF0346FB71044802F024F97C
:100E5000FFF77AFE00BF0837BD4680BDB400002012
:100E600080B582B000AF0346FB71044802F014F96C
:100E7000FFF79CFE00BF0837BD4680BD080100207B
:100E800080B500AFFFF792FE00BF80BD80B400AF19
:100E900000BFBD465DF8047B704780B584B002AFEB
:100EA0000346FB710B46BB7113467B71BB7999B24C
:100EB0007A1DF8790123009313460122FFF780FF82
:100EC00000BF0837BD4680BD80B586B002AF03467F
:100ED0000A46FB711346BB710023FB73BB7999B2C1
:100EE00007F10F02F8790123009313460122FFF75F
:100EF0000FFFFB7B18461037BD4680BD80B582B022
:100F000000AF7860786800F0A3F900BF0837BD46ED
:100F100080BD80B500AFFFF717FE00BF80BD80B574
:100F200086B002AFBA607B600346FB810B46BB8193
:100F3000FB89D8B27B689BB2B9890093BB68102249
:100F4000FFF712FF034618461037BD4680BD80B537
:100F500086B002AFBA607B600346FB810B46BB8163
:100F6000FB89D8B27B689BB2B9890093BB68102219
:100F7000FFF7A2FE034618461037BD4680BD80B578
:100F800082B000AF03463960FB80FB8839681846A1
:100F9000FFF742FF034618460837BD4680BD80B5BF
:100FA00000AFFFF7D1FD00BF80BD80B582B000AFBC
:100FB0000346FB710B46BB7113467B717A79B97995
:100FC000FB791846FFF724FE00BF0837BD4680BDF9
:100FD00080B582B000AF03460A46FB711346BB7171
:100FE000BA79FB7911461846FFF73AFE03461846D0
:100FF0000837BD4680BD80B584B002AF3A601A465E
:101000000346FB710B46BB711346BB80BB7999B29B
:10101000F879BB8800933B680122FFF74DFE034639
:101020009BB218460837BD4680BD80B584B002AF7C
:101030003A601A460346FB710B46BB711346BB80F0
:10104000BB7999B2F879BB8800933B680122FFF71E
:101050008BFE00BF0837BD4680BD80B582B000AFB3
:101060007860786800F0F4F800BF0837BD4680BDAE
:1010700080B582B000AF7860786800F0E9F800BF12
:101080000837BD4680BD00BF80B500AF0E4B1B6862
:101090000D4A43F4007313600B4B1B680A4A43F478
:1010A00080631360084B1B68074A43F48073136026
:1010B000032000F0CBFB0F2000F042F800F032F8E4
:1010C0000023184680BD00BF003C024080B500AF41
:1010D000134B4FF0FF321A62114B00221A62104B71
:1010E0004FF0FF325A620E4B00225A620C4B4FF007
:1010F000FF321A610A4B00221A61094B4FF0FF328E
:101100005A61074B00225A61054B4FF0FF329A613A
:10111000034B00229A6100F00CF80023184680BDB2
:101120000038024080B400AF00BFBD465DF8047BCC
:10113000704780B400AF00BFBD465DF8047B7047C8
:1011400080B582B000AF7860124B1A68124B1B78E2
:1011500019464FF47A73B3FBF1F3B2FBF3F318467D
:1011600000F0BBFB0346002B01D001230EE07B689F
:101170000F2B0AD8002279684FF0FF3000F071FB86
:10118000064A7B681360002300E0012318460837F5
:10119000BD4680BD000000202C000020280000205B
:1011A00080B400AF064B1B781A46064B1B681344ED
:1011B000044A136000BFBD465DF8047B704700BF62
:1011C0002C0000201802002080B400AF034B1B68E5
:1011D0001846BD465DF8047B704700BF180200202A
:1011E00080B400AF034B1B681846BD465DF8047B16
:1011F000704700BF2800002080B584B000AF0346D0
:10120000FB710023FB730A4B1B78FA799A4209D0D1
:10121000074AFB791370074B1B681846FFF790FFCE
:101220000346FB73FB7B18461037BD4680BD00BFED
:101230002C0000202800002080B400AF034B1B7856
:101240001846BD465DF8047B704700BF2C000020A7
:1012500080B584B000AF7860FFF7B6FFB8607B68F8
:10126000FB60FB68B3F1FF3F05D0094B1B781A46C2
:10127000FB681344FB6000BFFFF7A6FF0246BB6894
:10128000D31AFA689A42F7D800BF1037BD4680BD1E
:101290002C00002080B400AF054B1B68044A23F0EB
:1012A0000203136000BFBD465DF8047B704700BFBA
:1012B00010E000E080B400AF054B1B68044A43F027
:1012C0000203136000BFBD465DF8047B704700BF9A
:1012D00010E000E080B400AF024B1846BD465DF858
:1012E000047B70470005070180B400AF034B1B6807
:1012F0001B0C1846BD465DF8047B7047002004E0D7
:1013000080B400AF044B1B68C3F30B031846BD4603
:101310005DF8047B704700BF002004E080B400AF9C
:10132000054B5B68044A43F00103536000BFBD46B0
:101330005DF8047B704700BF002004E080B400AF7C
:10134000054B5B68044A23F00103536000BFBD46B0
:101350005DF8047B704700BF002004E080B400AF5C
:10136000054B5B68044A43F00203536000BFBD466F
:101370005DF8047B704700BF002004E080B400AF3C
:10138000054B5B68044A23F00203536000BFBD466F
:101390005DF8047B704700BF002004E080B400AF1C
:1013A000054B5B68044A43F00403536000BFBD462D
:1013B0005DF8047B704700BF002004E080B400AFFC
:1013C000054B5B68044A23F00403536000BFBD462D
:1013D0005DF8047B704700BF002004E080B400AFDC
:1013E000034B01221A6000BFBD465DF8047B7047C5
:1013F0000004274280B400AF034B00221A6000BFF4
:10140000BD465DF8047B70470004274280B400AFFE
:10141000034B1B681846BD465DF8047B704700BF50
:10142000107AFF1F80B400AF034B1B681846BD46FF
:101430005DF8047B704700BF147AFF1F80B400AFD3
:10144000034B1B681846BD465DF8047B704700BF20
:10145000187AFF1F80B400AF034B01221A6000BF4F
:10146000BD465DF8047B70472000274280B400AF82
:10147000034B00221A6000BFBD465DF8047B704735
:101480002000274280B485B000AF78607B6803F00D
:101490000703FB600C4BDB68BB60BA684FF6FF03C9
:1014A0001340BB60FB681A02BB68134343F0BF6381
:1014B00043F40033BB60044ABB68D36000BF1437F9
:1014C000BD465DF8047B704700ED00E080B400AFDE
:1014D000044BDB681B0A03F007031846BD465DF8A2
:1014E000047B704700ED00E080B483B000AF03469A
:1014F000FB7197F90730002B0BDBFB7903F01F0220
:10150000074997F907305B09012000FA02F241F818
:10151000232000BF0C37BD465DF8047B704700BF39
:1015200000E100E080B483B000AF0346FB7197F99F
:101530000730002B10DBFB7903F01F02094997F9F4
:1015400007305B09012000FA02F2203341F8232022
:10155000BFF34F8FBFF36F8F00BF0C37BD465DF8F1
:10156000047B704700E100E080B483B000AF034625
:10157000FB7197F90730002B0EDB0B4A97F9073008
:101580005B09403352F82320FB7903F01F0322FA52
:1015900003F303F0010300E0002318460C37BD46B7
:1015A0005DF8047B704700BF00E100E080B483B0C9
:1015B00000AF0346FB7197F90730002B0CDBFB797A
:1015C00003F01F02074997F907305B09012000FA71
:1015D00002F2403341F8232000BF0C37BD465DF8CE
:1015E000047B704700E100E080B483B000AF0346A5
:1015F000FB7197F90730002B0CDBFB7903F01F021E
:10160000074997F907305B09012000FA02F26033BD
:1016100041F8232000BF0C37BD465DF8047B7047BE
:1016200000E100E080B483B000AF0346FB7197F99E
:101630000730002B0EDB0B4A97F907305B0980332C
:1016400052F82320FB7903F01F0322FA03F303F07F
:10165000010300E0002318460C37BD465DF8047B0B
:10166000704700BF00E100E080B483B000AF0346E4
:101670003960FB7197F90730002B0ADB3B68DAB25F
:101680000C4997F907301201D2B20B4483F80023BA
:101690000AE03B68DAB20849FB7903F00F03043B28
:1016A0001201D2B20B441A7600BF0C37BD465DF86A
:1016B000047B704700E100E000ED00E080B483B0FF
:1016C00000AF0346FB7197F90730002B09DB0D4A89
:1016D00097F90730134493F80033DBB21B09DBB2F0
:1016E00009E0094AFB7903F00F03043B13441B7E16
:1016F000DBB21B09DBB218460C37BD465DF8047B34
:10170000704700BF00E100E000ED00E080B489B068
:1017100000AFF860B9607A60FB6803F00703FB6113
:10172000FB69C3F10703042B28BF0423BB61FB69DA
:101730000433062B02D9FB69033B00E000237B61E5
:101740004FF0FF32BB6902FA03F3DA43BB681A4079
:101750007B699A404FF0FF317B6901FA03F3D9436B
:101760007B680B40134318462437BD465DF8047B65
:10177000704780B489B000AFF860B9607A603B60B0
:10178000BB6803F00703FB61FB69C3F10703042B8C
:1017900028BF0423BB61FB690433062B02D9FB6914
:1017A000033B00E000237B61FA687B69DA404FF07D
:1017B000FF31BB6901FA03F3DB431A407B681A600F
:1017C0004FF0FF327B6902FA03F3DA43FB681A40F9
:1017D0003B681A6000BF2437BD465DF8047B704744
:1017E00080B400AFBFF34F8F054BDB6803F4E062BA
:1017F0000349044B1343CB60BFF34F8F00BFFDE79A
:1018000000ED00E00400FA0580B582B000AF78601A
:101810007B68013BB3F1807F01D301230FE00A4ACB
:101820007B68013B53600F214FF0FF30FFF71CFF37
:10183000054B00229A60044B07221A6000231846C9
:101840000837BD4680BD00BF10E000E080B582B023
:1018500000AF78607868FFF715FE00BF0837BD4617
:1018600080BD80B586B000AF0346B9607A60FB7377
:1018700000237B61FFF72AFE78617A68B96878698E
:10188000FFF744FF024697F90F3011461846FFF75D
:10189000EBFE00BF1837BD4680BD80B582B000AFFB
:1018A0000346FB7197F907301846FFF71DFE00BF8E
:1018B0000837BD4680BD80B582B000AF0346FB71DE
:1018C00097F907301846FFF72DFE00BF0837BD46D1
:1018D00080BD80B500AFFFF783FF80B582B000AF59
:1018E00078607868FFF790FF034618460837BD46D2
:1018F00080BD80B400AFBFF35F8F074B5B6A064AC1
:1019000023F480335362054B00225A6000BFBD466A
:101910005DF8047B704700BF00ED00E090ED00E053
:1019200080B483B000AF78600A4A7B6843F001035B
:101930005360094B5B6A084A43F480335362BFF338
:101940004F8FBFF36F8F00BF0C37BD465DF8047B30
:10195000704700BF90ED00E000ED00E080B483B080
:1019600000AF78607B685A781D4B9A607B681B7863
:10197000002B29D01A4A7B685B68D3607B681B7B8D
:101980001A077B68DB7A1B061A437B689B7ADB04A9
:101990001A437B685B7B9B041A437B689B7B5B04DD
:1019A0001A437B68DB7B1B041A437B685B7A1B0250
:1019B0001A437B681B7A5B0013437A6812781146DE
:1019C000074A0B43136105E0054B0022DA60044B24
:1019D00000221A6100BF0C37BD465DF8047B7047DA
:1019E00090ED00E080B500AFFFF770FD03461846AC
:1019F00080BD80B584B000AFB9607A603B600346BB
:101A0000FB7397F90F301846FFF758FE3B687A686A
:101A1000B968FFF7AEFE00BF1037BD4680BD80B588
:101A200082B000AF0346FB7197F907301846FFF705
:101A3000BDFD00BF0837BD4680BD80B582B000AF98
:101A40000346FB7197F907301846FFF78DFD0346F3
:101A500018460837BD4680BD80B582B000AF03464A
:101A6000FB7197F907301846FFF7BEFD00BF083736
:101A7000BD4680BD80B582B000AF0346FB7197F9CB
:101A800007301846FFF7CEFD034618460837BD4617
:101A900080BD80B483B000AF78607B68042B06D132
:101AA000094B1B68084A43F00403136005E0064B2A
:101AB0001B68054A23F00403136000BF0C37BD46C2
:101AC0005DF8047B704700BF10E000E080B500AF18
:101AD00000F002F800BF80BD80B400AF00BFBD467B
:101AE0005DF8047B704700BF80B586B000AF7860BA
:101AF00000237B61FFF768FB38617B68002B01D115
:101B0000012399E07B68002283F834207B6802225D
:101B100083F835207B681B681A687B681B6822F095
:101B200001021A600FE0FFF74FFB02463B69D31A30
:101B3000052B08D97B6820225A657B68032283F82D
:101B40003520032378E07B681B681B6803F00103E2
:101B5000002BE8D17B681B681B687B617A69384B76
:101B600013407B617B685A687B689B681A437B687B
:101B7000DB681A437B681B691A437B685B691A43FD
:101B80007B689B691A437B68DB691A437B681B6A25
:101B900013437A6913437B617B685B6A042B07D12B
:101BA0007B68DA6A7B681B6B13437A6913437B613A
:101BB0007B681B687A691A607B681B685B697B615C
:101BC0007B6923F007037B617B685B6A7A69134357
:101BD0007B617B685B6A042B17D17B689B6A7A699F
:101BE00013437B617B68DB6A002B0ED0786800F0C2
:101BF00057FD0346002B08D07B6840225A657B685E
:101C0000012283F83520012316E07B681B687A697E
:101C10005A61786800F00EFD0346FB607B68DB6D5F
:101C20003F229A40FB689A607B6800225A657B6875
:101C3000012283F83520002318461837BD4680BDA1
:101C40003F8010F080B584B000AF78607B68002BD7
:101C500001D1012350E07B6893F83530DBB2022BD1
:101C600001D1022348E07B681B681A687B681B6807
:101C700022F001021A607B681B6800221A607B68F0
:101C80001B6800225A607B681B6800229A607B6890
:101C90001B680022DA607B681B6800221A617B687F
:101CA0001B6821225A61786800F0C4FC0346FB607F
:101CB0007B680022DA637B6800221A647B6800225A
:101CC0005A647B6800229A647B680022DA647B682D
:101CD00000221A657B68DB6D3F229A40FB689A60A0
:101CE0007B6800225A657B68002283F835207B6878
:101CF000002283F83420002318461037BD4680BDEB
:101D000080B586B000AFF860B9607A603B600023B0
:101D1000FB75FB6893F83430012B01D1022326E0D8
:101D2000FB68012283F83420FB6893F83530DBB27E
:101D3000012B15D1FB68022283F83520FB680022B5
:101D40005A653B687A68B968F86800F045FCFB683A
:101D50001B681A68FB681B6842F001021A6005E004
:101D6000FB68002283F834200223FB75FB7D1846B4
:101D70001837BD4680BD80B586B000AFF860B96049
:101D80007A603B600023FB75FB689B6D3B61FB68E1
:101D900093F83430012B01D1022348E0FB68012283
:101DA00083F83420FB6893F83530DBB2012B37D150
:101DB000FB68022283F83520FB6800225A653B68E5
:101DC0007A68B968F86800F007FCFB68DB6D3F22B1
:101DD0009A403B699A60FB681B681A68FB681B683D
:101DE00042F016021A60FB681B685A69FB681B68A0
:101DF00042F080025A61FB681B6C002B07D0FB6825
:101E00001B681A68FB681B6842F008021A60FB68CE
:101E10001B681A68FB681B6842F001021A6005E043
:101E2000FB68002283F834200223FB75FB7D1846F3
:101E30001837BD4680BD80B584B000AF78607B6840
:101E40009B6DFB60FFF7C0F9B8607B6893F8353095
:101E5000DBB2022B08D07B6880225A657B680022A7
:101E600083F83420012352E07B681B681A687B6882
:101E70001B6822F016021A607B681B685A697B682F
:101E80001B6822F080025A617B681B6C002B03D117
:101E90007B689B6C002B07D07B681B681A687B688B
:101EA0001B6822F008021A607B681B681A687B684E
:101EB0001B6822F001021A6013E0FFF785F9024661
:101EC000BB68D31A052B0CD97B6820225A657B6826
:101ED000002283F834207B68032283F83520032313
:101EE00015E07B681B681B6803F00103002BE4D13D
:101EF0007B68DB6D3F229A40FB689A607B6800221A
:101F000083F834207B68012283F8352000231846AB
:101F10001037BD4680BD80B483B000AF78607B6869
:101F200093F83530DBB2022B04D07B6880225A65EF
:101F300001230CE07B68052283F835207B681B6851
:101F40001A687B681B6822F001021A600023184699
:101F50000C37BD465DF8047B704780B58AB000AF92
:101F6000F8600B467A60FB720023FB77FFF72CF9D1
:101F7000B861FB6893F83530DBB2022B08D0FB6800
:101F800080225A65FB68002283F834200123BFE0D9
:101F9000FB681B681B6803F48073002B05D0FB688B
:101FA0004FF480725A650123B2E0FB7A002B06D110
:101FB000FB68DB6D202202FA03F37B6205E0FB681D
:101FC000DB6D102202FA03F37B62FB689B6D7B6181
:101FD0007B691B683B625AE07B68B3F1FF3F17D017
:101FE0007B68002B07D0FFF7EFF80246BB69D31AD6
:101FF0007A689A420CD2FB6820225A65FB6800225C
:1020000083F83420FB68012283F8352003237FE026
:102010007B691B683B62FB68DB6D08229A403B6A68
:102020001340002B0BD0FB685B6D43F00102FB6893
:102030005A65FB68DB6D08229A407B699A60FB68F1
:10204000DB6D01229A403B6A1340002B0BD0FB68EA
:102050005B6D43F00202FB685A65FB68DB6D012291
:102060009A407B699A60FB68DB6D04229A403B6A68
:102070001340002B0BD0FB685B6D43F00402FB6840
:102080005A65FB68DB6D04229A407B699A603A6A64
:102090007B6A1340002B05D1FB685B6D03F00103E5
:1020A000002B99D0FB685B6D002B18D0FB685B6D33
:1020B00003F00103002B12D0F868FFF7BCFEFB68A9
:1020C000DB6D30229A407B699A60FB68002283F8BE
:1020D0003420FB68012283F83520012318E0FB7AC5
:1020E000002B0ED1FB68DB6D30229A407B699A6031
:1020F000FB68002283F83420FB68012283F8352036
:1021000005E0FB68DB6D10229A407B699A60FB7FDB
:1021100018462837BD4680BD80B586B000AF7860D0
:102120000023BB60924B1B68924AA2FB03239B0ACD
:102130007B617B689B6D3B613B691B68FB607B68D7
:10214000DB6D08229A40FB681340002B1AD07B6895
:102150001B681B6803F00403002B13D07B681B680B
:102160001A687B681B6822F004021A607B68DB6DCA
:1021700008229A403B699A607B685B6D43F00102DC
:102180007B685A657B68DB6D01229A40FB681340CF
:10219000002B12D07B681B685B6903F08003002B67
:1021A0000BD07B68DB6D01229A403B699A607B68AB
:1021B0005B6D43F002027B685A657B68DB6D04222D
:1021C0009A40FB681340002B12D07B681B681B6889
:1021D00003F00203002B0BD07B68DB6D04229A40D6
:1021E0003B699A607B685B6D43F004027B685A65CB
:1021F0007B68DB6D10229A40FB681340002B43D0B4
:102200007B681B681B6803F00803002B3CD07B68CD
:10221000DB6D10229A403B699A607B681B681B68E3
:1022200003F48023002B18D07B681B681B6803F421
:102230000023002B08D17B681B6C002B24D07B680B
:102240001B6C786898471FE07B689B6C002B1BD049
:102250007B689B6C7868984716E07B681B681B68F6
:1022600003F48073002B07D17B681B681A687B68B6
:102270001B6822F008021A607B681B6C002B03D0DD
:102280007B681B6C786898477B68DB6D20229A40DE
:10229000FB681340002B00F08E807B681B681B6876
:1022A00003F01003002B00F086807B68DB6D20229A
:1022B0009A403B699A607B6893F83530DBB2052B16
:1022C00036D17B681B681A687B681B6822F016028F
:1022D0001A607B681B685A697B681B6822F0800261
:1022E0005A617B681B6C002B03D17B689B6C002BB5
:1022F00007D07B681B681A687B681B6822F008029D
:102300001A607B68DB6D3F229A403B699A607B686C
:10231000002283F834207B68012283F835207B6813
:102320001B6D002B7DD07B681B6D7868984778E02B
:102330007B681B681B6803F48023002B1CD07B6820
:102340001B681B6803F40023002B08D17B685B6CBF
:10235000002B30D07B685B6C786898472BE07B68FB
:10236000DB6B002B27D07B68DB6B7868984722E01B
:1023700000000020B5814E1B7B681B681B6803F4BE
:102380008073002B0FD17B681B681A687B681B6801
:1023900022F010021A607B68002283F834207B68E8
:1023A000012283F835207B68DB6B002B03D07B6830
:1023B000DB6B786898477B685B6D002B32D07B685D
:1023C0005B6D03F00103002B22D07B68052283F8AC
:1023D00035207B681B681A687B681B6822F0010245
:1023E0001A60BB680133BB607A699A4207D37B6885
:1023F0001B681B6803F00103002BF2D100E000BF53
:102400007B68002283F834207B68012283F8352022
:102410007B68DB6C002B05D07B68DB6C78689847A9
:1024200000E000BF1837BD4680BD80B487B000AF64
:10243000F8600B467A60FB720023FB75FB6893F82B
:102440003430012B01D102233DE0FB68012283F8E7
:102450003420FB6893F83530DBB2012B2AD1FB7AAC
:10246000052B2AD801A252F823F000BF85240008CA
:102470008D240008952400089D240008A524000848
:10248000AD240008FB687A68DA6317E0FB687A68B5
:102490001A6413E0FB687A685A640FE0FB687A6894
:1024A0009A640BE0FB687A68DA6407E0FB687A6894
:1024B0001A6503E00123FB7500E000BFFB68002202
:1024C00083F83420FB7D18461C37BD465DF8047B3D
:1024D000704780B485B000AF78600B46FB70002376
:1024E000FB737B6893F83430012B01D1022353E056
:1024F0007B68012283F834207B6893F83530DBB2A7
:10250000012B42D1FB78062B3BD801A252F823F0D5
:102510002D250008352500083D2500084525000823
:102520004D250008552500085D2500087B68002220
:10253000DA632CE07B6800221A6428E07B680022C2
:102540005A6424E07B6800229A6420E07B680022C1
:10255000DA641CE07B6800221A6518E07B680022C0
:10256000DA637B6800221A647B6800225A647B6805
:1025700000229A647B680022DA647B6800221A6574
:1025800005E00123FB7300BF01E00123FB737B68BF
:10259000002283F83420FB7B18461437BD465DF8D3
:1025A000047B704780B483B000AF78607B6893F899
:1025B0003530DBB218460C37BD465DF8047B7047FA
:1025C00080B483B000AF78607B685B6D18460C37D1
:1025D000BD465DF8047B704780B485B000AFF860FD
:1025E000B9607A603B60FB681B681A68FB681B680F
:1025F00022F480221A60FB681B683A685A60FB6804
:102600009B68402B08D1FB681B687A689A60FB685E
:102610001B68BA68DA6007E0FB681B68BA689A60F2
:10262000FB681B687A68DA6000BF1437BD465DF846
:10263000047B704780B485B000AF78607B681B680E
:10264000DBB2103B144AA2FB03231B09FB60134AB5
:10265000FB6813441B781A467B68DA65FB68032B1A
:1026600009D97B681B6823F47F7323F003031A1DC9
:102670007B689A6507E07B681B6823F47F7323F00F
:1026800003037A6893657B689B6D18461437BD46D3
:102690005DF8047B704700BFABAAAAAA2CDE000835
:1026A00080B485B000AF78600023FB737B689B6AC1
:1026B000BB607B689B69002B1FD1BB68032B56D87E
:1026C00001A252F823F000BFD9260008EB2600082B
:1026D000D92600086F2700087B68DB6A03F0807347
:1026E000002B46D00123FB7343E07B68DB6AB3F128
:1026F000C07F40D10123FB733DE07B689B69B3F54C
:10270000005F21D1BB68032B37D801A252F823F018
:10271000212700082727000821270008392700085B
:102720000123FB7330E07B68DB6A03F08073002BCE
:1027300025D00123FB7322E07B68DB6AB3F1C07F05
:102740001FD10123FB731CE0BB68022B03D9BB68BC
:10275000032B03D018E00123FB7315E07B68DB6AD1
:1027600003F08073002B0ED00123FB730BE000BF3E
:102770000AE000BF08E000BF06E000BF04E000BFC1
:1027800002E000BF00E000BFFB7B18461437BD46E7
:102790005DF8047B704700BF80B489B000AF7860FB
:1027A000396000237B6100233B610023BB61002370
:1027B000FB6177E10122FB6902FA03F37B613B686D
:1027C0001B687A6913403B613A697B699A4240F021
:1027D00066813B685B68022B03D03B685B68122B09
:1027E00023D1FB69DA087B68083253F82230BB61D9
:1027F000FB6903F007039B000F2202FA03F3DB439C
:10280000BA691340BB613B681A69FB6903F00703AF
:102810009B0002FA03F3BA691343BB61FB69DA0850
:102820007B680832B96943F822107B681B68BB617A
:10283000FB695B00032202FA03F3DB43BA6913402E
:10284000BB613B685B6803F00302FB695B0002FA53
:1028500003F3BA691343BB617B68BA691A603B68CA
:102860005B68012B0BD03B685B68022B07D03B6891
:102870005B68112B03D03B685B68122B30D17B68FF
:102880009B68BB61FB695B00032202FA03F3DB4335
:10289000BA691340BB613B68DA68FB695B0002FA06
:1028A00003F3BA691343BB617B68BA699A607B68BA
:1028B0005B68BB610122FB6902FA03F3DB43BA697F
:1028C0001340BB613B685B681B0903F00102FB69B5
:1028D00002FA03F3BA691343BB617B68BA695A60B1
:1028E0007B68DB68BB61FB695B00032202FA03F3D0
:1028F000DB43BA691340BB613B689A68FB695B00C4
:1029000002FA03F3BA691343BB617B68BA69DA6000
:102910003B685B6803F08053002B00F0C08000230D
:10292000FB60654B5B6C644A43F480435364624BC9
:102930005B6C03F48043FB60FB68604AFB699B08A7
:10294000023352F82330BB61FB6903F003039B00A1
:102950000F2202FA03F3DB43BA691340BB617B68C1
:10296000574A934237D07B68564A934231D07B68AE
:10297000554A93422BD07B68544A934225D07B68BA
:10298000534A93421FD07B68524A934219D07B68C6
:10299000514A934213D07B68504A93420DD07B68D2
:1029A0004F4A934207D07B684E4A934201D1092394
:1029B00012E00A2310E008230EE007230CE00623B0
:1029C0000AE0052308E0042306E0032304E00223D1
:1029D00002E0012300E00023FA6902F00302920002
:1029E0009340BA691343BB613449FB699B080233C6
:1029F000BA6941F823203C4B1B68BB613B69DB4350
:102A0000BA691340BB613B685B6803F48033002BF9
:102A100003D0BA693B691343BB61334ABB69136096
:102A2000314B5B68BB613B69DB43BA691340BB61F7
:102A30003B685B6803F40033002B03D0BA693B6941
:102A40001343BB61284ABB695360274B9B68BB613A
:102A50003B69DB43BA691340BB613B685B6803F4C5
:102A60008013002B03D0BA693B691343BB611E4A34
:102A7000BB6993601C4BDB68BB613B69DB43BA6994
:102A80001340BB613B685B6803F40013002B03D069
:102A9000BA693B691343BB61134ABB69D360FB69E5
:102AA0000133FB61FB690F2B7FF684AE00BF243737
:102AB000BD465DF8047B7047003802400038014095
:102AC000000002400004024000080240000C0240E6
:102AD000001002400014024000180240001C024096
:102AE0000020024000240240003C014080B487B036
:102AF00000AF7860396000233B610023FB60002356
:102B0000BB6000237B61D9E001227B6902FA03F3F9
:102B10003B613A683B691340FB60FA683B699A4243
:102B200040F0C9806A4A7B699B08023352F823301F
:102B3000BB607B6903F003039B000F2202FA03F3DF
:102B4000BA681340BB607B68624A934237D07B68A7
:102B5000614A934231D07B68604A93422BD07B68B4
:102B60005F4A934225D07B685E4A93421FD07B68C0
:102B70005D4A934219D07B685C4A934213D07B68CC
:102B80005B4A93420DD07B685A4A934207D07B68D8
:102B9000594A934201D1092312E00A2310E0082385
:102BA0000EE007230CE006230AE0052308E00423D7
:102BB00006E0032304E0022302E0012300E00023F7
:102BC0007A6902F0030292009340BA689A4232D1C5
:102BD0007B6903F003039B000F2202FA03F3BB603F
:102BE0003B4A7B699B08023352F82310BB68DA43E7
:102BF00037487B699B080A40023340F823203F4B4B
:102C00001A68FB68DB433D4913400B603B4B5A6835
:102C1000FB68DB43394913404B60384B9A68FB68CB
:102C2000DB43364913408B60344BDA68FB68DB4387
:102C300032491340CB607B681A687B695B000321D3
:102C400001FA03F3DB431A407B681A607B69DA08F8
:102C50007B68083253F822107B6903F007039B005E
:102C60000F2202FA03F3DB437A69D20819407B682A
:102C7000083243F822107B689A687B695B00032165
:102C800001FA03F3DB431A407B689A607B685A6859
:102C900001217B6901FA03F3DB431A407B685A6028
:102CA0007B68DA687B695B00032101FA03F3DB438D
:102CB0001A407B68DA607B6901337B617B690F2B8B
:102CC0007FF622AF00BF1C37BD465DF8047B70471E
:102CD00000380140000002400004024000080240A9
:102CE000000C024000100240001402400018024094
:102CF000001C02400020024000240240003C014031
:102D000080B485B000AF78600B467B807B681A6921
:102D10007B881340002B02D00123FB7301E00023CA
:102D2000FB73FB7B18461437BD465DF8047B704788
:102D300080B483B000AF78600B467B8013467B7015
:102D40007B78002B03D07A887B689A6103E07B88CC
:102D50001A047B689A6100BF0C37BD465DF8047B9E
:102D6000704780B483B000AF78600B467B807B688F
:102D70005A697B881A407B889A4204D17B881A045E
:102D80007B689A6102E07A887B689A6100BF0C37A1
:102D9000BD465DF8047B704780B485B000AF7860B5
:102DA0000B467B804FF48033FB607A88FB681343CB
:102DB000FB60FA687B68DA617A887B68DA61FA68B6
:102DC0007B68DA617B68DB69FB607B68DB6903F445
:102DD0008033002B01D0002300E001231846143774
:102DE000BD465DF8047B704780B582B000AF0346F6
:102DF000FB80084B5A69FB881340002B06D0054A1C
:102E0000FB885361FB881846FDF7BBFA00BF083703
:102E1000BD4680BD003C014080B483B000AF034696
:102E2000FB8000BF0C37BD465DF8047B704700BFD8
:102E300080B584B000AF78607B68002B01D101239E
:102E40001BE17B6893F83D30DBB2002B06D17B6839
:102E5000002283F83C20786800F04DF97B6824223A
:102E600083F83D207B681B681A687B681B6822F02A
:102E700001021A6006F0DAFCF8607B685B68814A40
:102E8000934207D8FB68804A934294BF01230023F2
:102E9000DBB206E0FB687D4A934294BF0123002326
:102EA000DBB2002B01D00123E7E0FB68784AA2FBEC
:102EB00003239B0CBB607B681B685B6823F03F01AE
:102EC0007B681B68BA680A435A607B681B681B6A88
:102ED00023F03F017B685B686A4A934202D8BB6873
:102EE000013309E0BB684FF4967202FB03F3694AB1
:102EF000A2FB03239B0901337A6812680B43136218
:102F00007B681B68DB6923F44F4222F0FF027B6879
:102F10005B685C498B4219D8FB68591E7B685B680B
:102F20005B00B1FBF3F3591C40F6FC730B40002B24
:102F30000AD0FB68591E7B685B685B00B1FBF3F34A
:102F40000133C3F30B0351E004234FE07B689B681C
:102F5000002B11D1FB68581E7B6859680B465B003B
:102F60000B44B0FBF3F30133C3F30B03002B0CBF93
:102F700001230023DBB212E0FB68581E7B6859680E
:102F80000B469B000B4499000B44B0FBF3F3013359
:102F9000C3F30B03002B0CBF01230023DBB2002B78
:102FA00001D0012322E07B689B68002B0ED1FB68D7
:102FB000581E7B6859680B465B000B44B0FBF3F36B
:102FC0000133C3F30B0343F400430FE0FB68581EC7
:102FD0007B6859680B469B000B4499000B44B0FB7F
:102FE000F3F30133C3F30B0343F4404379680968F7
:102FF0001343CB617B681B681B6823F0C0017B68AF
:10300000DA697B681B6A1A437B681B680A431A608B
:103010007B681B689B6823F4034323F0FF037A68F3
:1030200011697A68D26811437A6812680B43936019
:103030007B681B68DB6823F0FF017B685A697B684B
:103040009B691A437B681B680A43DA607B681B68CC
:103050001A687B681B6842F001021A607B680022D4
:103060001A647B68202283F83D207B6800221A6363
:103070007B68002283F83E20002318461037BD46A7
:1030800080BD00BFA08601007F841E00FF083D00B8
:1030900083DE1B43D34D621080B582B000AF7860F1
:1030A0007B68002B01D1012321E07B68242283F877
:1030B0003D207B681B681A687B681B6822F0010250
:1030C0001A60786800F021F87B6800221A647B6837
:1030D000002283F83D207B6800221A637B6800226F
:1030E00083F83E207B68002283F83C2000231846AA
:1030F0000837BD4680BD80B483B000AF786000BFA4
:103100000C37BD465DF8047B704780B483B000AFD8
:10311000786000BF0C37BD465DF8047B704780B512
:1031200088B002AFF8607A601A460B467B8113467E
:103130003B81FEF749F87861FB6893F83D30DBB2DC
:10314000202B40F0E0807B69009319230122704915
:10315000F86805F0C4FA0346002B01D00223D3E03F
:10316000FB6893F83C30012B01D10223CCE0FB68D3
:10317000012283F83C20FB681B681B6803F00103F5
:10318000012B07D0FB681B681A68FB681B6842F0BC
:1031900001021A60FB681B681A68FB681B6822F44E
:1031A00000621A60FB68212283F83D20FB68102230
:1031B00083F83E20FB6800221A64FB687A685A6232
:1031C000FB683A895A85FB685B8D9AB2FB681A8561
:1031D000FB68504ADA6279897B693A6AF86804F0D8
:1031E00087FE0346002B01D001238DE000233B61C5
:1031F000FB681B685B693B61FB681B689B693B6103
:103200003B6966E07A69396AF86805F03EFB034677
:10321000002B0DD0FB681B6C042B07D1FB681B68CF
:103220001A68FB681B6842F400721A6001236BE0A5
:10323000FB685B6A1A78FB681B681A61FB685B6A4B
:103240005A1CFB685A62FB685B8D9BB2013B9AB2C9
:10325000FB685A85FB681B8D013B9AB2FB681A8597
:10326000FB681B685B6903F00403042B1BD1FB683C
:103270001B8D002B17D0FB685B6A1A78FB681B68F4
:103280001A61FB685B6A5A1CFB685A62FB685B8DBB
:103290009BB2013B9AB2FB685A85FB681B8D013BD0
:1032A0009AB2FB681A857A69396AF86805F02EFBCC
:1032B0000346002B0DD0FB681B6C042B07D1FB6869
:1032C0001B681A68FB681B6842F400721A600123CD
:1032D0001AE0FB681B8D002B94D1FB681B681A68F1
:1032E000FB681B6842F400721A60FB68202283F8B6
:1032F0003D20FB68002283F83E20FB68002283F813
:103300003C20002300E0022318461837BD4680BD4C
:10331000020010000000FFFF80B58CB002AFF86023
:103320007A601A460B467B8113463B81FDF74CFFC2
:103330007862FB6893F83D30DBB2202B40F00B82C3
:103340007B6A0093192301227C49F86805F0C7F9CC
:103350000346002B01D00223FEE1FB6893F83C30CA
:10336000012B01D10223F7E1FB68012283F83C2005
:10337000FB681B681B6803F00103012B07D0FB6887
:103380001B681A68FB681B6842F001021A60FB6840
:103390001B681A68FB681B6822F400621A60FB68ED
:1033A000222283F83D20FB68102283F83E20FB6830
:1033B00000221A64FB687A685A62FB683A895A8567
:1033C000FB685B8D9AB2FB681A85FB685C4ADA621F
:1033D00079897B6A3A6BF86804F000FE0346002B9B
:1033E00001D00123B8E1FB681B8D002B13D1002312
:1033F0003B62FB681B685B693B62FB681B689B69FF
:103400003B623B6AFB681B681A68FB681B6842F4F6
:1034100000721A608CE1FB681B8D012B1BD1FB68CD
:103420001B681A68FB681B6822F480621A6000231C
:10343000FB61FB681B685B69FB61FB681B689B6940
:10344000FB61FB69FB681B681A68FB681B6842F438
:1034500000721A606CE1FB681B8D022B1BD1FB68AC
:103460001B681A68FB681B6822F480621A60FB689C
:103470001B681A68FB681B6842F400621A6000232C
:10348000BB61FB681B685B69BB61FB681B689B6970
:10349000BB61BB694CE1FB681B681A68FB681B6871
:1034A00042F480621A6000237B61FB681B685B69E1
:1034B0007B61FB681B689B697B617B6938E1FB680A
:1034C0001B8D032B00F2F180FB681B8D012B23D198
:1034D0007A6A396BF86805F097FA0346002B01D039
:1034E000012339E1FB681B681A69FB685B6AD2B289
:1034F0001A70FB685B6A5A1CFB685A62FB681B8D7A
:10350000013B9AB2FB681A85FB685B8D9BB2013B5D
:103510009AB2FB685A850BE1FB681B8D022B4ED1DA
:103520007B6A00933B6B00220649F86805F0D7F8E8
:103530000346002B08D001230EE100BF020010005B
:103540000000FFFF04000100FB681B681A68FB68AD
:103550001B6842F400721A60FB681B681A69FB68FA
:103560005B6AD2B21A70FB685B6A5A1CFB685A62CB
:10357000FB681B8D013B9AB2FB681A85FB685B8D6B
:103580009BB2013B9AB2FB685A85FB681B681A69BB
:10359000FB685B6AD2B21A70FB685B6A5A1CFB68F4
:1035A0005A62FB681B8D013B9AB2FB681A85FB6867
:1035B0005B8D9BB2013B9AB2FB685A85B8E07B6A8F
:1035C00000933B6B00226649F86805F088F80346D3
:1035D000002B01D00123BFE0FB681B681A68FB6861
:1035E0001B6822F480621A60FB681B681A69FB681A
:1035F0005B6AD2B21A70FB685B6A5A1CFB685A623B
:10360000FB681B8D013B9AB2FB681A85FB685B8DDA
:103610009BB2013B9AB2FB685A857B6A00933B6B75
:1036200000224F49F86805F05AF80346002B01D0F4
:10363000012391E0FB681B681A68FB681B6842F471
:1036400000721A60FB681B681A69FB685B6AD2B279
:103650001A70FB685B6A5A1CFB685A62FB681B8D18
:10366000013B9AB2FB681A85FB685B8D9BB2013BFC
:103670009AB2FB685A85FB681B681A69FB685B6A2B
:10368000D2B21A70FB685B6A5A1CFB685A62FB680C
:103690001B8D013B9AB2FB681A85FB685B8D9BB260
:1036A000013B9AB2FB685A8542E07A6A396BF86846
:1036B00005F0AAF90346002B01D001234CE0FB687A
:1036C0001B681A69FB685B6AD2B21A70FB685B6A96
:1036D0005A1CFB685A62FB681B8D013B9AB2FB685F
:1036E0001A85FB685B8D9BB2013B9AB2FB685A85D9
:1036F000FB681B685B6903F00403042B18D1FB68AB
:103700001B681A69FB685B6AD2B21A70FB685B6A55
:103710005A1CFB685A62FB681B8D013B9AB2FB681E
:103720001A85FB685B8D9BB2013B9AB2FB685A8598
:10373000FB681B8D002B7FF4C2AEFB68202283F850
:103740003D20FB68002283F83E20FB68002283F8BE
:103750003C20002300E0022318462837BD4680BDE8
:103760000400010080B58AB002AFF860B9603B6028
:103770001346FB80FDF728FDF861FB6893F83D30A8
:10378000DBB2202B40F0FB80BB68002B02D0FB8813
:10379000002B01D10123F3E0FB6893F83C30012BAF
:1037A00001D10223ECE0FB68012283F83C20FB6896
:1037B0001B681B6803F00103012B07D0FB681B6823
:1037C0001A68FB681B6842F001021A60FB681B68FC
:1037D0001A68FB681B6822F400621A60FB682122E9
:1037E00083F83D20FB68202283F83E20FB680022FE
:1037F0001A64FB68BA685A62FB68FA885A85FB68E3
:103800005B8D9AB2FB681A85FB685F4ADA62FB68D7
:103810001B681A68FB681B6842F480621A60FB69C7
:1038200000933B6800225949F86804F058FF0346AA
:10383000002B01D00123A3E00023BB61FB681B68C0
:103840005B69BB61FB681B689B69BB61BB69FB680B
:103850001B69B3F5404F65D1FB6900933B680022BB
:103860004A49F86804F03BFF0346002B01D00123CE
:1038700086E000237B61FB681B685B697B61FB68FA
:103880001B689B697B617B694CE0FA693968F86861
:1038900004F0FBFF0346002B09D0FB681B681A6885
:1038A000FB681B6822F480621A60012368E0FB68F1
:1038B0005B6A1A78FB681B681A61FB685B6A5A1CB2
:1038C000FB685A62FB685B8D9BB2013B9AB2FB6856
:1038D0005A85FB681B8D013B9AB2FB681A85FB6811
:1038E0001B685B6903F00403042B1BD1FB681B8D71
:1038F000002B17D0FB685B6A1A78FB681B681A619B
:10390000FB685B6A5A1CFB685A62FB685B8D9BB262
:10391000013B9AB2FB685A85FB681B8D013B9AB24A
:10392000FB681A85FB681B8D002BAED1FB690093E9
:103930003B6800224FF48231F86804F0D0FE034661
:10394000002B01D001231BE0FB681B686FF4806231
:103950005A61FB681B681A68FB681B6822F4806266
:103960001A60FB68202283F83D20FB68002283F860
:103970003E20FB68002283F83C20002300E0022365
:1039800018462037BD4680BD0000FFFF0200010041
:1039900080B58AB002AFF860B9603B601346FB8027
:1039A000FDF712FCF861FB6893F83D30DBB2202B89
:1039B00040F0EE80BB68002B02D0FB88002B01D1C9
:1039C0000123E6E0FB6893F83C30012B01D1022390
:1039D000DFE0FB68012283F83C20FB681B681B6862
:1039E00003F00103012B07D0FB681B681A68FB6812
:1039F0001B6842F001021A60FB681B681A68FB68CA
:103A00001B6822F400621A60FB68222283F83D20C2
:103A1000FB68202283F83E20FB6800221A64FB68C2
:103A2000BA685A62FB68FA885A85FB685B8D9AB25D
:103A3000FB681A85FB68594ADA62FB681B681A68DA
:103A4000FB681B6842F480621A60FB6900933B6864
:103A500000225349F86804F042FE0346002B01D0CF
:103A6000012396E00023BB61FB681B685B69BB61B7
:103A7000FB681B689B69BB61BB694EE0FA693968EA
:103A8000F86804F0C1FF0346002B09D0FB681B68EF
:103A90001A68FB681B6822F480621A60012378E0D0
:103AA000FB681B681A69FB685B6AD2B21A70FB6814
:103AB0005B6A5A1CFB685A62FB681B8D013B9AB219
:103AC000FB681A85FB685B8D9BB2013B9AB2FB6871
:103AD0005A85FB681B685B6903F00403042B1CD147
:103AE000FB681B8D002B18D0FB681B681A69FB68EC
:103AF0005B6AD2B21A70FB685B6A5A1CFB685A6236
:103B0000FB681B8D013B9AB2FB681A85FB685B8DD5
:103B10009BB2013B9AB2FB685A85FB681B8D002B58
:103B2000ACD1FA693968F86804F031FF0346002B1C
:103B300009D0FB681B681A68FB681B6822F4806266
:103B40001A60012325E000237B61FB681B685B6929
:103B50007B61FB681B681A68FB681B6842F0010206
:103B60001A607B69FB681B681A68FB681B6822F493
:103B700080621A60FB68202283F83D20FB680022E7
:103B800083F83E20FB68002283F83C20002300E0FD
:103B9000022318462037BD4680BD00BF0000FFFF4E
:103BA0000200010080B487B000AFF8607A601A4666
:103BB0000B467B8113463B8100237B61FB6893F8B6
:103BC0003D30DBB2202B40F08580464B1B68DB0884
:103BD000454AA2FB03231A0A13469B0013449A008A
:103BE00013447B617B69013B7B617B69002B16D1B0
:103BF000FB6800221A63FB68202283F83D20FB68E3
:103C0000002283F83E20FB681B6C43F02002FB6817
:103C10001A64FB68002283F83C2001235BE0FB6808
:103C20001B689B6903F00203022BDBD0FB6893F84F
:103C30003C30012B01D102234DE0FB68012283F8C7
:103C40003C20FB681B681B6803F00103012B07D0B5
:103C5000FB681B681A68FB681B6842F001021A6067
:103C6000FB681B681A68FB681B6822F400621A6014
:103C7000FB68212283F83D20FB68102283F83E2058
:103C8000FB6800221A64FB687A685A62FB683A890A
:103C90005A85FB685B8D9AB2FB681A85FB68134AEC
:103CA000DA627A89FB685A64FB681B681A68FB68E9
:103CB0001B6842F480721A60FB68002283F83C2083
:103CC000FB681B685A68FB681B6842F4E0625A6034
:103CD000002300E0022318461C37BD465DF8047B34
:103CE000704700BF0000002089B5F8140000FFFFF6
:103CF00080B487B000AFF8607A601A460B467B81CB
:103D000013463B8100237B61FB6893F83D30DBB2B7
:103D1000202B40F08D804A4B1B68DB08494AA2FBF0
:103D200003231A0A13469B0013449A0013447B6131
:103D30007B69013B7B617B69002B16D1FB6800220C
:103D40001A63FB68202283F83D20FB68002283F879
:103D50003E20FB681B6C43F02002FB681A64FB6882
:103D6000002283F83C20012363E0FB681B689B6909
:103D700003F00203022BDBD0FB6893F83C30012BED
:103D800001D1022355E0FB68012283F83C20FB6847
:103D90001B681B6803F00103012B07D0FB681B683D
:103DA0001A68FB681B6842F001021A60FB681B6816
:103DB0001A68FB681B6822F400621A60FB68222202
:103DC00083F83D20FB68102283F83E20FB68002228
:103DD0001A64FB687A685A62FB683A895A85FB68FC
:103DE0005B8D9AB2FB681A85FB68174ADA627A899A
:103DF000FB685A64FB681B681A68FB681B6842F41E
:103E000080621A60FB681B681A68FB681B6842F4D2
:103E100080721A60FB68002283F83C20FB681B68F4
:103E20005A68FB681B6842F4E0625A60002300E0B5
:103E3000022318461C37BD465DF8047B704700BF5F
:103E40000000002089B5F8140000FFFF80B485B0A1
:103E500000AFF860B9601346FB80FB6893F83D3013
:103E6000DBB2202B58D1BB68002B02D0FB88002B83
:103E700001D1012351E0FB6893F83C30012B01D1C3
:103E800002234AE0FB68012283F83C20FB681B68A0
:103E90001B6803F00103012B07D0FB681B681A683D
:103EA000FB681B6842F001021A60FB681B681A6815
:103EB000FB681B6822F400621A60FB68212283F809
:103EC0003D20FB68202283F83E20FB6800221A6414
:103ED000FB68BA685A62FB68FA885A85FB685B8D92
:103EE0009AB2FB681A85FB680F4ADA62FB681B68A6
:103EF0001A68FB681B6842F480621A60FB68002243
:103F000083F83C20FB681B685A68FB681B6842F416
:103F1000E0625A60002300E0022318461437BD46D1
:103F20005DF8047B704700BF0000FFFF80B485B0E0
:103F300000AFF860B9601346FB80FB6893F83D3032
:103F4000DBB2202B58D1BB68002B02D0FB88002BA2
:103F500001D1012351E0FB6893F83C30012B01D1E2
:103F600002234AE0FB68012283F83C20FB681B68BF
:103F70001B6803F00103012B07D0FB681B681A685C
:103F8000FB681B6842F001021A60FB681B681A6834
:103F9000FB681B6822F400621A60FB68222283F827
:103FA0003D20FB68202283F83E20FB6800221A6433
:103FB000FB68BA685A62FB68FA885A85FB685B8DB1
:103FC0009AB2FB681A85FB680F4ADA62FB681B68C5
:103FD0001A68FB681B6842F480621A60FB68002262
:103FE00083F83C20FB681B685A68FB681B6842F436
:103FF000E0625A60002300E0022318461437BD46F1
:104000005DF8047B704700BF0000FFFF80B586B0FD
:1040100000AFF8607A601A460B467B8113463B81FD
:1040200000233B61FB6893F83D30DBB2202B40F06E
:10403000F4807C4B1B68DB087B4AA2FB03231A0A33
:1040400013469B0013449A0013443B613B69013BB8
:104050003B613B69002B16D1FB6800221A63FB68A9
:10406000202283F83D20FB68002283F83E20FB6875
:104070001B6C43F02002FB681A64FB68002283F883
:104080003C200123CAE0FB681B689B6903F0020324
:10409000022BDBD0FB6893F83C30012B01D10223CB
:1040A000BCE0FB68012283F83C20FB681B681B68AE
:1040B00003F00103012B07D0FB681B681A68FB683B
:1040C0001B6842F001021A60FB681B681A68FB68F3
:1040D0001B6822F400621A60FB68212283F83D20ED
:1040E000FB68102283F83E20FB6800221A64FB68FC
:1040F0007A685A62FB683A895A85FB685B8D9AB286
:10410000FB681A85FB68494ADA627A89FB685A6457
:10411000FB681B8D002B62D0FB685B6B444ADA6343
:10412000FB685B6B434ADA64FB685B6B00221A64D2
:10413000FB685B6B00225A64FB685B6B00229A642D
:10414000FB685B6B00221A65FB68586BFB685B6A57
:104150001946FB681B6810331A46FB681B8DFDF778
:104160000AFE0346FB75FB7D002B24D1FB681B6810
:104170001A68FB681B6842F480621A60FB681B685F
:104180001A68FB681B6842F480721A60FB680022A0
:1041900083F83C20FB681B685A68FB681B6842F484
:1041A00040725A60FB681B685A68FB681B6842F4DF
:1041B00000625A602FE0FB68202283F83D20FB68F4
:1041C000002283F83E20FB681B6C43F01002FB6862
:1041D0001A64FB68002283F83C2001231EE0FB6880
:1041E0001B681A68FB681B6842F480621A60FB68EF
:1041F0001B681A68FB681B6842F480721A60FB68CF
:10420000002283F83C20FB681B685A68FB681B6827
:1042100042F4E0625A60002300E002231846183797
:10422000BD4680BD0000002089B5F8140000FFFFE6
:10423000FD8300089785000880B586B000AFF86060
:104240007A601A460B467B8113463B8100233B6113
:10425000FB6893F83D30DBB2202B40F0F4807C4BC0
:104260001B68DB087B4AA2FB03231A0A13469B0048
:1042700013449A0013443B613B69013B3B613B693A
:10428000002B16D1FB6800221A63FB68202283F8FA
:104290003D20FB68002283F83E20FB681B6C43F046
:1042A0002002FB681A64FB68002283F83C2001238B
:1042B000CAE0FB681B689B6903F00203022BDBD09A
:1042C000FB6893F83C30012B01D10223BCE0FB6872
:1042D000012283F83C20FB681B681B6803F0010384
:1042E000012B07D0FB681B681A68FB681B6842F04B
:1042F00001021A60FB681B681A68FB681B6822F4DD
:1043000000621A60FB68222283F83D20FB681022BD
:1043100083F83E20FB6800221A64FB687A685A62C0
:10432000FB683A895A85FB685B8D9AB2FB681A85EF
:10433000FB68494ADA627A89FB685A64FB681B8D1C
:10434000002B62D0FB689B6B444ADA63FB689B6B73
:10435000434ADA64FB689B6B00221A64FB689B6B20
:1043600000225A64FB689B6B00229A64FB689B6B7B
:1043700000221A65FB68986BFB681B6810331946AE
:10438000FB685B6A1A46FB681B8DFDF7F4FC03466D
:10439000FB75FB7D002B24D1FB681B681A68FB684A
:1043A0001B6842F480621A60FB681B681A68FB682D
:1043B0001B6842F480721A60FB68002283F83C207C
:1043C000FB681B685A68FB681B6842F440725A60BD
:1043D000FB681B685A68FB681B6842F400625A60FD
:1043E0002FE0FB68202283F83D20FB68002283F841
:1043F0003E20FB681B6C43F01002FB681A64FB68EC
:10440000002283F83C2001231EE0FB681B681A6829
:10441000FB681B6842F480621A60FB681B681A68BC
:10442000FB681B6842F480721A60FB68002283F804
:104430003C20FB681B685A68FB681B6842F4E0621A
:104440005A60002300E0022318461837BD4680BD9D
:104450000000002089B5F8140000FFFFFD8300086C
:104460009785000880B586B000AFF860B960134644
:10447000FB80FB6893F83D30DBB2202B40F09F803F
:10448000BB68002B02D0FB88002B01D1012397E0F1
:10449000FB6893F83C30012B01D1022390E0FB68CC
:1044A000012283F83C20FB681B681B6803F00103B2
:1044B000012B07D0FB681B681A68FB681B6842F079
:1044C00001021A60FB681B681A68FB681B6822F40B
:1044D00000621A60FB68212283F83D20FB682022DD
:1044E00083F83E20FB6800221A64FB68BA685A62AF
:1044F000FB68FA885A85FB685B8D9AB2FB681A855F
:10450000FB68314ADA62FB685B6B304ADA63FB684E
:104510005B6B2F4ADA64FB685B6B00221A64FB68F2
:104520005B6B00225A64FB685B6B00229A64FB6839
:104530005B6B00221A65FB68586BFB685B6A194667
:10454000FB681B6810331A46FB681B8DFDF713FCD4
:104550000346FB75FB7D002B1DD1FB681B681A68A9
:10456000FB681B6842F480621A60FB68002283F8D3
:104570003C20FB681B685A68FB681B6842F4407269
:104580005A60FB681B685A68FB681B6842F400624B
:104590005A60002314E0FB68202283F83D20FB686A
:1045A000002283F83E20FB681B6C43F01002FB687E
:1045B0001A64FB68002283F83C20012300E00223F8
:1045C00018461837BD4680BD0000FFFFFD83000878
:1045D0009785000880B586B000AFF860B9601346D3
:1045E000FB80FB6893F83D30DBB2202B40F09F80CE
:1045F000BB68002B02D0FB88002B01D1012397E080
:10460000FB6893F83C30012B01D1022390E0FB685A
:10461000012283F83C20FB681B681B6803F0010340
:10462000012B07D0FB681B681A68FB681B6842F007
:1046300001021A60FB681B681A68FB681B6822F499
:1046400000621A60FB68222283F83D20FB6820226A
:1046500083F83E20FB6800221A64FB68BA685A623D
:10466000FB68FA885A85FB685B8D9AB2FB681A85ED
:10467000FB68314ADA62FB689B6B304ADA63FB689D
:104680009B6B2F4ADA64FB689B6B00221A64FB6801
:104690009B6B00225A64FB689B6B00229A64FB6848
:1046A0009B6B00221A65FB68986BFB681B681033D4
:1046B0001946FB685B6A1A46FB681B8DFDF75BFBBE
:1046C0000346FB75FB7D002B1DD1FB681B681A6838
:1046D000FB681B6842F480621A60FB68002283F862
:1046E0003C20FB681B685A68FB681B6842F44072F8
:1046F0005A60FB681B685A68FB681B6842F40062DA
:104700005A60002314E0FB68202283F83D20FB68F8
:10471000002283F83E20FB681B6C43F01002FB680C
:104720001A64FB68002283F83C20012300E0022386
:1047300018461837BD4680BD0000FFFFFD83000806
:104740009785000880B588B002AFF860084611462A
:104750001A4603467B810B463B811346FB80FCF7E0
:1047600033FD7861FB6893F83D30DBB2202B40F0DD
:10477000D9807B690093192301226D49F86803F001
:10478000AEFF0346002B01D00223CCE0FB6893F878
:104790003C30012B01D10223C5E0FB68012283F8E4
:1047A0003C20FB681B681B6803F00103012B07D04A
:1047B000FB681B681A68FB681B6842F001021A60FC
:1047C000FB681B681A68FB681B6822F400621A60A9
:1047D000FB68212283F83D20FB68402283F83E20BD
:1047E000FB6800221A64FB683A6A5A62FB68BA8C5A
:1047F0005A85FB685B8D9AB2FB681A85FB684D4A47
:10480000DA62F8883A8979897B690193BB6A0093F7
:104810000346F86803F098FC0346002B52D00123AE
:1048200081E07A69B96AF86804F02FF80346002B32
:104830000DD0FB681B6C042B07D1FB681B681A6842
:10484000FB681B6842F400721A6001236BE0FB688E
:104850005B6A1A78FB681B681A61FB685B6A5A1C02
:10486000FB685A62FB681B8D013B9AB2FB681A8594
:10487000FB685B8D9BB2013B9AB2FB685A85FB6873
:104880001B685B6903F00403042B1BD1FB681B8DC1
:10489000002B17D0FB685B6A1A78FB681B681A61EB
:1048A000FB685B6A5A1CFB685A62FB681B8D013B04
:1048B0009AB2FB681A85FB685B8D9BB2013B9AB28A
:1048C000FB685A85FB681B8D002BAAD17A69B96AEF
:1048D000F86804F01BF80346002B0DD0FB681B6C36
:1048E000042B07D1FB681B681A68FB681B6842F43D
:1048F00000721A60012316E0FB681B681A68FB68E7
:104900001B6842F400721A60FB68202283F83D2085
:10491000FB68002283F83E20FB68002283F83C20DD
:10492000002300E0022318461837BD4680BD00BFB3
:10493000020010000000FFFF80B58CB002AFF860ED
:10494000084611461A4603467B810B463B811346B7
:10495000FB80FCF739FC7862FB6893F83D30DBB2F2
:10496000202B40F008827B6A0093192301227B49A7
:10497000F86803F0B4FE0346002B01D00223FBE1EC
:10498000FB6893F83C30012B01D10223F4E1FB6872
:10499000012283F83C20FB681B681B6803F00103BD
:1049A000012B07D0FB681B681A68FB681B6842F084
:1049B00001021A60FB681B681A68FB681B6822F416
:1049C00000621A60FB68222283F83D20FB684022C7
:1049D00083F83E20FB6800221A64FB683A6B5A6237
:1049E000FB68BA8E5A85FB685B8D9AB2FB681A85A4
:1049F000FB685B4ADA62F8883A8979897B6A0193B5
:104A0000BB6B00930346F86803F028FC0346002BB9
:104A100001D00123B0E1FB681B8D002B13D10023D3
:104A20003B62FB681B685B693B62FB681B689B69B8
:104A30003B623B6AFB681B681A68FB681B6842F4B0
:104A400000721A6084E1FB681B8D012B1BD1FB688F
:104A50001B681A68FB681B6822F480621A600023D6
:104A6000FB61FB681B685B69FB61FB681B689B69FA
:104A7000FB61FB69FB681B681A68FB681B6842F4F2
:104A800000721A6064E1FB681B8D022B1BD1FB686E
:104A90001B681A68FB681B6822F480621A60FB6856
:104AA0001B681A68FB681B6842F400621A600023E6
:104AB000BB61FB681B685B69BB61FB681B689B692A
:104AC000BB61BB6944E100237B61FB681B685B69D8
:104AD0007B61FB681B689B697B617B6938E1FB68D4
:104AE0001B8D032B00F2F180FB681B8D012B23D162
:104AF0007A6AB96BF86803F087FF0346002B01D090
:104B0000012339E1FB681B681A69FB685B6AD2B252
:104B10001A70FB685B6A5A1CFB685A62FB681B8D43
:104B2000013B9AB2FB681A85FB685B8D9BB2013B27
:104B30009AB2FB685A850BE1FB681B8D022B4ED1A4
:104B40007B6A0093BB6B00220649F86803F0C7FD3F
:104B50000346002B08D001230EE100BF0200100025
:104B60000000FFFF04000100FB681B681A68FB6877
:104B70001B6842F400721A60FB681B681A69FB68C4
:104B80005B6AD2B21A70FB685B6A5A1CFB685A6295
:104B9000FB681B8D013B9AB2FB681A85FB685B8D35
:104BA0009BB2013B9AB2FB685A85FB681B681A6985
:104BB000FB685B6AD2B21A70FB685B6A5A1CFB68BE
:104BC0005A62FB681B8D013B9AB2FB681A85FB6831
:104BD0005B8D9BB2013B9AB2FB685A85B8E07B6A59
:104BE0000093BB6B00226649F86803F078FD03462A
:104BF000002B01D00123BFE0FB681B681A68FB682B
:104C00001B6822F480621A60FB681B681A69FB68E3
:104C10005B6AD2B21A70FB685B6A5A1CFB685A6204
:104C2000FB681B8D013B9AB2FB681A85FB685B8DA4
:104C30009BB2013B9AB2FB685A857B6A0093BB6BBF
:104C400000224F49F86803F04AFD0346002B01D0CB
:104C5000012391E0FB681B681A68FB681B6842F43B
:104C600000721A60FB681B681A69FB685B6AD2B243
:104C70001A70FB685B6A5A1CFB685A62FB681B8DE2
:104C8000013B9AB2FB681A85FB685B8D9BB2013BC6
:104C90009AB2FB685A85FB681B681A69FB685B6AF5
:104CA000D2B21A70FB685B6A5A1CFB685A62FB68D6
:104CB0001B8D013B9AB2FB681A85FB685B8D9BB22A
:104CC000013B9AB2FB685A8542E07A6AB96BF86890
:104CD00003F09AFE0346002B01D001234CE0FB6851
:104CE0001B681A69FB685B6AD2B21A70FB685B6A60
:104CF0005A1CFB685A62FB681B8D013B9AB2FB6829
:104D00001A85FB685B8D9BB2013B9AB2FB685A85A2
:104D1000FB681B685B6903F00403042B18D1FB6874
:104D20001B681A69FB685B6AD2B21A70FB685B6A1F
:104D30005A1CFB685A62FB681B8D013B9AB2FB68E8
:104D40001A85FB685B8D9BB2013B9AB2FB685A8562
:104D5000FB681B8D002B7FF4C2AEFB68202283F81A
:104D60003D20FB68002283F83E20FB68002283F888
:104D70003C20002300E0022318462837BD4680BDB2
:104D80000400010080B487B000AFF8600846114607
:104D90001A4603467B810B463B811346FB8000236A
:104DA0007B61FB6893F83D30DBB2202B40F08E80B6
:104DB0004A4B1B68DB084A4AA2FB03231A0A134624
:104DC0009B0013449A0013447B617B69013B7B6128
:104DD0007B69002B16D1FB6800221A63FB68202236
:104DE00083F83D20FB68002283F83E20FB681B6CA3
:104DF00043F02002FB681A64FB68002283F83C2021
:104E0000012364E0FB681B689B6903F00203022B2B
:104E1000DBD0FB6893F83C30012B01D1022356E034
:104E2000FB68012283F83C20FB681B681B6803F0C9
:104E30000103012B07D0FB681B681A68FB681B681D
:104E400042F001021A60FB681B681A68FB681B6865
:104E500022F400621A60FB68212283F83D20FB687F
:104E6000402283F83E20FB6800221A64FB683A6AFD
:104E70005A62FB68BA8C5A85FB685B8D9AB2FB68F4
:104E80001A85FB68174ADA627A89FB685A643A899C
:104E9000FB689A64FA88FB68DA64FB6800221A658A
:104EA000FB681B681A68FB681B6842F480721A6012
:104EB000FB68002283F83C20FB681B685A68FB688B
:104EC0001B6842F4E0625A60002300E002231846A7
:104ED0001C37BD465DF8047B704700BF0000002012
:104EE00089B5F8140000FFFF80B487B000AFF86008
:104EF000084611461A4603467B810B463B81134602
:104F0000FB8000237B61FB6893F83D30DBB2202BF4
:104F100040F09A80504B1B68DB08504AA2FB0323E9
:104F20001A0A13469B0013449A0013447B617B6961
:104F3000013B7B617B69002B16D1FB6800221A6361
:104F4000FB68202283F83D20FB68002283F83E2086
:104F5000FB681B6C43F02002FB681A64FB680022AC
:104F600083F83C20012370E0FB681B689B6903F019
:104F70000203022BDBD0FB6893F83C30012B01D1FC
:104F8000022362E0FB68012283F83C20FB681B6877
:104F90001B6803F00103012B07D0FB681B681A682C
:104FA000FB681B6842F001021A60FB681B681A6804
:104FB000FB681B6822F400621A60FB68222283F8F7
:104FC0003D20FB68402283F83E20FB6800221A64E3
:104FD000FB683A6A5A62FB68BA8C5A85FB685B8D3B
:104FE0009AB2FB681A85FB681D4ADA627A89FB6807
:104FF0005A643A89FB689A64FA88FB68DA64FB6849
:1050000000221A65FB681B681A68FB681B6842F47B
:1050100080621A60FB681B681A68FB681B6842F4B0
:1050200080721A60FB68002283F83C20FB681B8DAD
:10503000002B07D0FB681B685A68FB681B6842F4AA
:10504000E0625A60002300E0022318461C37BD4688
:105050005DF8047B704700BF0000002089B5F8149C
:105060000000FFFF80B58AB002AFF8600846114625
:105070001A4603467B810B463B811346FB80002387
:105080007B61FCF7A1F8F861FB6893F83D30DBB277
:10509000202B40F0F3807C4B1B68DB087B4AA2FB93
:1050A00003231A0A13469B0013449A0013447B619E
:1050B0007B69013B7B617B69002B16D1FB68002279
:1050C0001A63FB68202283F83D20FB68002283F8E6
:1050D0003E20FB681B6C43F02002FB681A64FB68EF
:1050E000002283F83C200123C9E0FB681B689B6910
:1050F00003F00203022BDBD0FB6893F83C30012B5A
:1051000001D10223BBE0FB68012283F83C20FB684D
:105110001B681B6803F00103012B07D0FB681B68A9
:105120001A68FB681B6842F001021A60FB681B6882
:105130001A68FB681B6822F400621A60FB6821226F
:1051400083F83D20FB68402283F83E20FB68002264
:105150001A64FB68BA6A5A62FB68BA8D5A85FB68A2
:105160005B8D9AB2FB681A85FB68494ADA62FB6874
:105170001B8D002B6ED0FB685B6B464ADA63FB68C5
:105180005B6B454ADA64FB685B6B00221A64FB6860
:105190005B6B00225A64FB685B6B00229A64FB68BD
:1051A0005B6B00221A65FB68586BFB685B6A1946EB
:1051B000FB681B6810331A46FB681B8DFCF7DBFD90
:1051C0000346FB76FB7E002B30D1F8883A8979893B
:1051D000FB690193232300930346F86802F0B4FFB0
:1051E0000346002B01D0012349E000233B61FB680B
:1051F0001B685B693B61FB681B689B693B613B69A2
:10520000FB68002283F83C20FB681B685A68FB6837
:105210001B6842F480725A60FB681B685A68FB681E
:105220001B6842F400625A60002328E0FB682022D9
:1052300083F83D20FB68002283F83E20FB681B6C4E
:1052400043F01002FB681A64FB68002283F83C20DC
:10525000012314E0FB68202283F83D20FB68002234
:1052600083F83E20FB681B6C43F04002FB681A6425
:10527000FB68002283F83C20012300E0022318464B
:105280002037BD4680BD00BF0000002089B5F8145E
:105290000000FFFFFD8300089785000880B58CB0F3
:1052A00002AFF860084611461A4603467B810B465A
:1052B0003B811346FB80FBF787FF78620023FB618D
:1052C000FB6893F83D30DBB2202B40F02381944BF8
:1052D0001B68DB08934AA2FB03231A0A13469B00B0
:1052E00013449A001344FB61FB69013BFB61FB69BA
:1052F000002B16D1FB6800221A63FB68202283F87A
:105300003D20FB68002283F83E20FB681B6C43F0C5
:105310002002FB681A64FB68002283F83C2001230A
:10532000F9E0FB681B689B6903F00203022BDBD0EA
:10533000FB6893F83C30012B01D10223EBE0FB68C2
:10534000012283F83C20FB681B681B6803F0010303
:10535000012B07D0FB681B681A68FB681B6842F0CA
:1053600001021A60FB681B681A68FB681B6822F45C
:1053700000621A60FB68222283F83D20FB6840220D
:1053800083F83E20FB6800221A64FB683A6B5A627D
:10539000FB68BA8E5A85FB685B8D9AB2FB681A85EA
:1053A000FB68614ADA62FB681B8D002B00F0858088
:1053B000FB689B6B5D4ADA63FB689B6B5C4ADA6453
:1053C000FB689B6B00221A64FB689B6B00225A648B
:1053D000FB689B6B00229A64FB689B6B00221A653A
:1053E000FB68986BFB681B6810331946FB685B6AA7
:1053F0001A46FB681B8DFCF7BEFC034687F823307A
:1054000097F82330002B44D1F8883A8979897B6A50
:105410000193232300930346F86802F01FFF03461D
:10542000002B01D0012376E0FB681B8D012B08D1F6
:10543000FB681B681A68FB681B6822F480621A60AC
:1054400007E0FB681B685A68FB681B6842F48052DF
:105450005A600023BB61FB681B685B69BB61FB682A
:105460001B689B69BB61BB69FB68002283F83C2019
:10547000FB681B685A68FB681B6842F480725A60BC
:10548000FB681B685A68FB681B6842F400625A603C
:105490003EE0FB68202283F83D20FB68002283F871
:1054A0003E20FB681B6C43F01002FB681A64FB682B
:1054B000002283F83C2001232DE0F8883A8979897D
:1054C0007B6A0193232300930346F86802F0C6FE2B
:1054D0000346002B01D001231DE000237B61FB6804
:1054E0001B685B697B61FB681B689B697B617B69EF
:1054F000FB681B681A68FB681B6842F400721A603C
:10550000FB68202283F83D20FB68002283F83C20C2
:10551000002300E0022318462837BD4680BD00BFA7
:105520000000002089B5F8140000FFFFFD8300088B
:105530009785000880B58AB002AFF8607A603B605A
:105540000B467B81FBF740FEF8610123BB61FB68E2
:1055500093F83D30DBB2202B40F00581FB690093CE
:10556000192301228249F86803F0B9F80346002B99
:1055700001D00223F8E0FB6893F83C30012B01D105
:105580000223F1E0FB68012283F83C20FB681B68E2
:105590001B6803F00103012B07D0FB681B681A6826
:1055A000FB681B6842F001021A60FB681B681A68FE
:1055B000FB681B6822F400621A60FB68242283F8EF
:1055C0003D20FB6800221A64FB686A4ADA62FB68C5
:1055D0001B681A68FB681B6842F480721A60FB69DA
:1055E00000933B6800224FF00111F86803F077F850
:1055F0000346002B01D00123B6E07B89DBB21A46BB
:10560000FB681B6802F0FE021A61FBF7DDFDF86122
:10561000FB681B685B6903F00203022B0CBF0123CC
:105620000023DBB2FB75FB681B685B6903F48063D6
:10563000B3F5806F0CBF01230023DBB2BB7525E0FF
:10564000FBF7C2FD0246FB69D31A3A689A4202D3BD
:105650003B68002B03D1FB68A02283F83D20FB6848
:105660001B685B6903F00203022B0CBF01230023BC
:10567000DBB2FB75FB681B685B6903F48063B3F501
:10568000806F0CBF01230023DBB2BB75FB6893F86E
:105690003D30DBB2A02B05D0FB7D002B02D1BB7DC2
:1056A000002BCDD0FB68202283F83D20FB681B68CF
:1056B0005B6903F00203022B29D1FB681B681A689F
:1056C000FB681B6842F400721A6000233B61FB68B0
:1056D0001B685B693B61FB681B689B693B613B69BD
:1056E000FB690093192301222149F86802F0F7FFB2
:1056F0000346002B01D0012336E0FB68202283F80B
:105700003D20FB68002283F83C2000232CE0FB684E
:105710001B681A68FB681B6842F400721A60FB6819
:105720001B686FF480625A61FB69009319230122A0
:105730000F49F86802F0D3FF0346002B01D0012384
:1057400012E0BB690133BB61BA697B689A42FFF41E
:105750003EAFFB68202283F83D20FB68002283F8DF
:105760003C20012300E0022318462037BD4680BDBF
:10577000020010000000FFFF80B487B000AFF860A7
:105780007A601A460B467B8113463B8100237B617E
:1057900000233B61FB6893F83D30DBB2202B40F0E7
:1057A0009E803B6A082B02D03B6A012B30D14F4BC5
:1057B0001B68DB084E4AA2FB03231A0A13469B0010
:1057C00013449A0013443B613B69013B3B613B69D5
:1057D000002B16D1FB6800221A63FB68202283F895
:1057E0003D20FB68002283F83E20FB681B6C43F0E1
:1057F0002002FB681A64FB68002283F83C20012326
:105800006EE0FB681B689B6903F00203022BDBD090
:10581000FB6893F83C30012B01D1022360E0FB6868
:10582000012283F83C20FB681B681B6803F001031E
:10583000012B07D0FB681B681A68FB681B6842F0E5
:1058400001021A60FB681B681A68FB681B6822F477
:1058500000621A60FB68212283F83D20FB68102259
:1058600083F83E20FB6800221A64FB687A685A625B
:10587000FB683A895A85FB685B8D9AB2FB681A858A
:10588000FB683A6ADA627A89FB685A64FB681B6BC8
:105890007B617B69112B0CD13B6AB3F52A0F03D0D6
:1058A0003B6AB3F12A4F01D1012300E00023012B11
:1058B00007D1FB681B681A68FB681B6842F480729A
:1058C0001A60FB68002283F83C20FB681B685A685A
:1058D000FB681B6842F4E0625A60002300E0022388
:1058E00018461C37BD465DF8047B70470000002059
:1058F00089B5F81480B588B000AFF8607A601A46B0
:105900000B467B8113463B810023BB6100237B61F7
:10591000FB6893F83D30DBB2202B40F01E81BB6A60
:10592000082B02D0BB6A012B30D18E4B1B68DB08E1
:105930008D4AA2FB03231A0A13469B0013449A00C4
:1059400013447B617B69013B7B617B69002B16D132
:10595000FB6800221A63FB68202283F83D20FB6865
:10596000002283F83E20FB681B6C43F02002FB689A
:105970001A64FB68002283F83C200123EEE0FB68F8
:105980001B689B6903F00203022BDBD0FB6893F8D2
:105990003C30012B01D10223E0E0FB68012283F8B7
:1059A0003C20FB681B681B6803F00103012B07D038
:1059B000FB681B681A68FB681B6842F001021A60EA
:1059C000FB681B681A68FB681B6822F400621A6097
:1059D000FB68212283F83D20FB68102283F83E20DB
:1059E000FB6800221A64FB687A685A62FB683A898D
:1059F0005A85FB685B8D9AB2FB681A85FB68BA6AA8
:105A0000DA627A89FB685A64FB681B6BBB61FB68CE
:105A10001B8D002B73D0FB685B6B544ADA63FB6809
:105A20005B6B534ADA64FB685B6B00221A64FB68A9
:105A30005B6B00221A65FB68586BFB685B6A194652
:105A4000FB681B6810331A46FB681B8DFCF793F943
:105A50000346FB77FB7F002B3DD1FB681B681A6870
:105A6000FB681B6842F480621A60BB69112B0CD181
:105A7000BB6AB3F52A0F03D0BB6AB3F12A4F01D139
:105A8000012300E00023012B07D1FB681B681A6883
:105A9000FB681B6842F480721A60FB68002283F87E
:105AA0003C20BB6A042B05D0BB6A202B02D0BB6A0A
:105AB000102B07D1FB681B685A68FB681B6842F40F
:105AC00000625A60FB681B685A68FB681B6842F4F6
:105AD00040725A603FE0FB68202283F83D20FB685B
