:020000040800F2
:1000000000000220DDD8010865050008730500081E
:10001000790500087F05000885050008000000003C
:100020000000000000000000000000008B05000838
:100030009905000800000000A7050008B5050008A4
:1000400021D9010821D9010821D9010821D90108A4
:1000500021D9010821D9010821D9010821D9010894
:1000600021D9010821D9010821D9010821D9010884
:1000700021D9010821D9010821D9010821D9010874
:1000800021D9010821D9010821D9010821D9010864
:1000900021D9010821D9010821D9010821D9010854
:1000A00021D9010821D9010821D9010821D9010844
:1000B00021D9010821D9010821D9010821D9010834
:1000C00021D9010821D9010821D9010821D9010824
:1000D00021D9010821D9010821D9010821D9010814
:1000E00021D9010821D9010821D9010821D9010804
:1000F00021D9010821D9010821D9010821D90108F4
:1001000021D9010821D9010821D9010821D90108E3
:1001100021D9010821D9010821D9010821D90108D3
:1001200021D9010821D9010821D9010821D90108C3
:1001300021D9010821D9010821D9010821D90108B3
:1001400021D9010821D9010821D9010821D90108A3
:1001500021D9010821D9010821D9010821D9010893
:1001600021D9010821D9010821D9010821D9010883
:1001700021D9010821D9010821D9010821D9010873
:0801800021D9010821D9010871
:1001880010B5054C237833B9044B13B10448AFF3C9
:1001980000800123237010BDF40800200000000037
:1001A800A806020808B5034B1BB103490348AFF37F
:1001B800008008BD00000000F8080020A80602081A
:1001C800154B002B08BF134B9D46A3F5803A002121
:1001D8008B460F461348144A121A20F0C7F80F4BE3
:1001E800002B00D098470E4B002B00D098470020DA
:1001F800002104000D000D48002802D00C4820F012
:1002080067F920F08FF82000290000F02EF820F080
:1002180079F800BF0000080000000000000000009E
:1002280000000000F4080020E40B0020D9040208B4
:10023800E5040208D806020800000020F40800209F
:10024800F4080020E40B002080B483B000AF78608D
:1002580002E07B68013B7B607B68002BF9D100BF23
:100268000C37BD465DF8047B704780B500AF02F0DF
:10027800D9FB00F013F8002001F0C4F8012001F0C8
:10028800C1F80548FFF7E0FF002001F043F901201D
:1002980001F040F9F5E700BFFFFF0F0080B594B00B
:1002A80000AF0023BB602F4B1B6C2E4A43F08053DA
:1002B80013642C4B1B6C03F08053BB60BB6800239A
:1002C8007B60294B1B68284A43F480431360264B04
:1002D8001B6803F480437B607B680123FB604FF459
:1002E80080333B6102237B624FF48003BB620823A7
:1002F800FB624FF4A8733B6302237B630723BB6352
:1003080007F10C0318460FF02DF80346002B01D017
:1003180000F06BF80F23FB6302233B6400237B642C
:100328004FF4A053BB644FF48053FB6407F13C03C4
:10033800052118460FF058FA0346002B01D000F0AB
:1003480054F802F099FC024641F201039A4205D1A1
:10035800064B1B68054A43F48073136000BF50378F
:10036800BD4680BD0038024000700040003C02409D
:1003780080B586B000AF00233B60114B1B6B104A61
:1003880043F0010313630E4B1B6B03F001033B6047
:100398003B680C4BBB600023FB6001237B603B1D6B
:1003A8001946094803F0A8FE00220221062002F09F
:1003B80008FF062002F021FF00BF1837BD4680BDA8
:1003C80000380240000021100000024080B582B0D1
:1003D80000AF0346FB80002001F09CF8012001F0EB
:1003E80099F800BF0837BD4680BD80B500AF002032
:1003F80001F05CF8FEE700BF80B400AF164BD3F8FD
:100408008830154A43F47003C2F88830134B1B68D0
:10041800124A43F001031360104B00229A600F4BFD
:100428001B680E4A23F0847323F4803313600B4B4C
:100438000B4A5A60094B1B68084A23F4802313604F
:10044800064B0022DA60044B4FF000629A6000BF4E
:10045800BD465DF8047B704700ED00E000380240BF
:100468001030002480B487B000AF00233B61002324
:100478007B610223FB600023BB6002237B60324B5D
:100488009B6803F00C033B613B69042B09D03B6973
:10049800082B0AD03B69002B3DD12C4B2C4A1A6003
:1004A8003DE02A4B2B4A1A6039E0274B5B689B0DCD
:1004B80003F00103BB60244B5B6803F03F037B60E0
:1004C800BB68002B0CD0234A7B68B2FBF3F31E4AAF
:1004D80052689209C2F3080202FB03F37B610BE046
:1004E8001B4A7B68B2FBF3F3174A52689209C2F3BE
:1004F800080202FB03F37B61134B5B681B0C03F0E0
:10050800030301335B00FB607A69FB68B2FBF3F31A
:100518000E4A136003E00D4B0D4A1A6000BF0A4BE8
:100528009B681B0903F00F030B4AD35C3B61074B25
:100538001A683B6922FA03F3044A136000BF1C37A8
:10054800BD465DF8047B7047003802400400002077
:100558000024F40000127A00CC05020880B400AF31
:1005680000BFBD465DF8047B704780B400AFFEE76E
:1005780080B400AFFEE780B400AFFEE780B400AF00
:10058800FEE780B400AF00BFBD465DF8047B70474E
:1005980080B400AF00BFBD465DF8047B704780B4EF
:1005A80000AF00BFBD465DF8047B704780B500AF63
:1005B80002F0BEFA00BF80BD80B586B000AF01234F
:1005C800FB750023BB8200233B7200237B72002350
:1005D800BB723C4B9B68984703463B2B38D13A4B40
:1005E800384A1A6040233B7300237B730723BB738D
:1005F8000023FB7300233B747A7B3B7B1343DAB203
:10060800FB7B1343DAB23B7C1343DAB2BB7B134365
:10061800DBB2BB822C4B1B681B68BA8A1046984712
:1006280020233B7201237B720C23BB723A7A7B7ABC
:100638001343DAB2BB7A1343DBB2BB82224B1B688B
:100648009B6ABA8AD2B2104698470023FB7534E0F9
:100658001E4B9B68984703463F2B2CD11A4B1B4ACD
:100668001A6060233B7007237B700023BB70002354
:10067800FB7000233B7100237B713A787B7813432E
:10068800DBB2BB82BA78FB781343DAB23B79134307
:10069800DAB27B791343DBB29BB21B029AB2BB8AF4
:1006A8001343BB82084B1B681B68BA8A10469847DD
:1006B8000023FB7501E00123FB75FB7D1846183705
:1006C800BD4680BD50000020100900208400002095
:1006D80080B582B000AF0023FB71084B1B689B6894
:1006E800002B05D0054B1B689B6898470346FB7198
:1006F800FB7918460837BD4680BD00BF10090020A9
:1007080080B500AF054B1B68DB68002B03D0034B9B
:100718001B68DB68984700BF80BD00BF1009002038
:1007280080B500AF054B1B685B69002B03D0034BFA
:100738001B685B69984700BF80BD00BF1009002097
:1007480080B500AF054B1B685B6A002B03D0034BD9
:100758001B685B6A984700BF80BD00BF1009002076
:1007680080B584B000AF78600023FB81104B1B6814
:100778001B6B002B18D00E4B1B681B6B78689847B7
:100788000B4B1B680B4A93420ED17B681B88FB817D
:100798007B68B3F902207B681A80FB895B429AB2B6
:1007A8007B68023312B21A8000BF1037BD4680BD85
:1007B800100900205000002090B585B000AF034616
:1007C8003A60FB800B467B710023FB73002239687B
:1007D8001C4800F04BF91B4B1B4A1A6019480AF0D9
:1007E8008FFD0346002B03D10021164800F098F92D
:1007F800386800F0ACFA0346002B01D00123FB73E4
:10080800FB7B002B0ED1114B9B6894209847034625
:1008180003F0F803E02B03D10D4B0C4A1A6001E0FA
:100828000123FB73FB7B002B07D1094B1B681C685A
:100838007A79F9883B689420A047FB7B18461437DF
:10084800BD4690BD2C0B0020003C00401C00002041
:100858001409002080B582B000AF78603960104B71
:100868001B68DB683A6892B2796894209847034617
:10087800002B01D001230FE03B68B3F5003F03D202
:100888003B685B089BB201E04FF6FF731A46796834
:1008980004480AF001FA002318460837BD4680BD0F
:1008A800140900202C0B002080B582B000AF7860BE
:1008B8000B467B807B881A46796803480AF0ECF976
:1008C80000BF0837BD4680BD2C0B002080B500AFA7
:1008D800074B1B681B69942098470346002B01D0DF
:1008E800012303E003480AF03BFB0023184680BDC0
:1008F800140900202C0B002080B500AF074B1B68A3
:100908005B69942098470346002B01D0012303E03C
:1009180003480AF087FB0023184680BD140900200D
:100928002C0B002080B582B000AF78600E480AF02A
:100938000DFC0E4B1B689B69796894209847034609
:10094800002B01D001230BE07B68012B07D101208C
:1009580002F046F900221021054803F079FE002331
:1009680018460837BD4680BD2C0B0020140900200E
:10097800000C024080B582B000AF0346FB71084B03
:100988001B681B6AFA791146942098470346002B86
:1009980001D0012300E0002318460837BD4680BD7A
:1009A8001409002080B582B000AF7860074B1B683F
:1009B8005B6A7968942098470346002B01D001238D
:1009C80000E0002318460837BD4680BD1409002002
:1009D80080B582B000AF0346FB71084B1B689B6A69
:1009E800FA791146942098470346002B01D0012339
:1009F80000E0002318460837BD4680BD14090020D2
:100A080080B582B000AF786000227968044800F0B1
:100A18002DF8786800F09BF900BF0837BD4680BD07
:100A28002C0B002080B582B000AF78607B681B6813
:100A3800044A934201D100F075F900BF0837BD465A
:100A480080BD00BF003C004080B582B000AF786038
:100A58007B681B68044A934201D100F06AF900BF21
:100A68000837BD4680BD00BF003C004080B58AB055
:100A780000AFF860B9607A60002387F82730FF2359
:100A880087F82630002387F8273010E097F82730BA
:100A9800204A52F82330BA689A4203D197F827308F
:100AA80087F8263097F82730013387F8273097F8EA
:100AB8002730072BEAD907F1140318460FF0CAFAB2
:100AC80097F8263003F00703002B13D101237B612D
:100AD80097F82630104A52F82330BB6197F8263031
:100AE8000E4A52F82330FB6107F1140318460FF041
:100AF800CFF90BE001237B614FF48173BB610323C2
:100B0800FB6107F1140318460FF0C2F900BF28373C
:100B1800BD4680BDE4050208040602082406020852
:100B280080B58CB000AF786039600023BB61564B4C
:100B38001B6C554A43F400431364534B1B6C03F47A
:100B48000043BB61BB6900237B614F4B1B6B4E4A63
:100B580043F0040313634C4B1B6B03F004037B61EA
:100B68007B6900233B61484B1B6B474A43F00103F9
:100B78001363454B1B6B03F001033B613B694FF467
:100B8800A053FB6102233B6200237B620223BB620A
:100B98000623FB6207F11C0319463C4803F0ACFA34
:100BA8001023FB6107F11C031946394803F0A4FA26
:100BB8000023FB60344B1B6B334A43F0040313637D
:100BC800314B1B6B03F00403FB60FB688023FB6164
:100BD80007F11C0319462D4803F08EFA0023BB6069
:100BE800294B1B6B284A43F400131363264B1B6BDA
:100BF80003F40013BB60BB687B681B68254A9342FB
:100C080036D1254B00225A60234B40229A60224B52
:100C18000022DA60204B4FF480621A611E4B4FF4B9
:100C280000625A611C4B4FF400529A611A4B002221
:100C3800DA61194B4FF400321A62174B04225A62D8
:100C4800154B03229A62144B0022DA62124B0022DF
:100C58001A63114B114A1A607B680F4A9A630E4A4D
:100C68007B6893630C4802F09DFC0B4802F0ECFB98
:100C780000220E212F2002F0A4FA2F2002F0BDFA44
:100C880000BF3037BD4680BD003802400008024032
:100C980000000240003C004018090020B8600240F3
:100CA80080B588B000AF786039602F2002F0B3FAC1
:100CB8007B681B68174A934204D17B689B6B184674
:100CC80002F070FC7B681B68DA697B681B6822F499
:100CD8008062DA614FF4A053FB60FB6819460E4846
:100CE80003F0A4FB1023FB60FB6819460B4803F0D4
:100CF8009DFB8023FB60FB681946074803F096FBC1
:100D0800074B1B6C064A23F40043136400BF2037CB
:100D1800BD4680BD003C0040000802400000024083
:100D28000038024080B400AF00BFBD465DF8047BC8
:100D3800704780B400AF00BFBD465DF8047B7047C4
:100D480080B400AF00BFBD465DF8047B704780B536
:100D580082B000AF7860174B174A1A60154B1B68B2
:100D6800DA69144B1B6822F48062DA61114A7B68E5
:100D78005361104B0022DA610E4B00229A610D4B31
:100D88000022DA600B4B4FF400721A61094B4FF4E2
:100D980000725A60074B00229A60064809F064FB0B
:100DA8000346002B01D0012300E000231846083732
:100DB800BD4680BD2C0B0020003C004080B584B0AF
:100DC80000AFF860B9607A600022F9680E4800F058
:100DD800F7F802227968F86800F01DFA0A4B0B4A06
:100DE8001A6009480AF08CFA0346002B03D1002147
:100DF800054800F011F9F86800F0A8FA0023184631
:100E08001037BD4680BD00BF740B0020003800407D
:100E180080B584B000AF786039600123FB603B681F
:100E28009BB21A467968054809F0DEFF0023FB608B
:100E3800FB68DBB218461037BD4680BD740B002036
:100E480080B582B000AF01237B6005480AF07EF9C7
:100E580000237B607B68DBB218460837BD4680BD3F
:100E6800740B002080B500AF02480AF079F800231F
:100E7800184680BD740B002080B500AF02480AF008
:100E8800D1F80023184680BD740B002080B483B0CD
:100E980000AF0346FB71FB799AB2044B1A8000231A
:100EA80018460C37BD465DF8047B704708000020E3
:100EB80080B5A4B000AF786039600023C7F88C30E3
:100EC8000023C7F88C3020E0D7F88C305B007A68B4
:100ED80013441B881B0A9BB21AB2D7F88C305B00EC
:100EE80079680B441B881B021BB213431BB29AB2CE
:100EF800D7F88C305B0007F190010B4423F8842C61
:100F0800D7F88C300133C7F88C30D7F88C303F2BAA
:100F1800DAD90023C7F88C3019E007F10C02D7F8AA
:100F28008C305B00D018D7F88C305B003A68D11849
:100F3800D7F88C304C2202FB03F3164A13441A46A6
:100F48001EF0C6FBD7F88C300133C7F88C30D7F8C1
:100F58008C30002BE1D00023C7F88C3011E0D7F893
:100F68008C309B003A681A44D7F88C309B000233C7
:100F780039680B4412881A80D7F88C300133C7F8C7
:100F88008C30D7F88C300F2BE9D9002318469037CE
:100F9800BD4680BD940A002080B582B000AF78605D
:100FA80000F024F900BF0837BD4680BD80B582B087
:100FB80000AF786000F021F900BF0837BD4680BD5A
:100FC80080B588B000AFF860B9607A6007F11003A7
:100FD80018460FF03FF8BB6803F00703002B0BD14E
:100FE80001233B61C0237B610623BB6107F110032A
:100FF80018460EF04DFF0BE001233B614FF491734F
:101008007B610223BB6107F1100318460EF040FF15
:1010180000BF2037BD4680BD80B58CB000AF78607A
:1010280039600023BB614D4B1B6C4C4A43F4804331
:1010380013644A4B1B6C03F48043BB61BB690023F8
:101048007B61464B1B6B454A43F002031363434BDA
:101058001B6B03F002037B617B6900233B613F4B01
:101068001B6B3E4A43F0040313633C4B1B6B03F0BA
:1010780004033B613B6902233B6200237B6202233A
:10108800BB624FF48063FB610523FB6207F11C031D
:101098001946334803F030F80823FB610523FB6247
:1010A80007F11C0319462F4803F026F80023FB60BC
:1010B8002A4B1B6B294A43F400131363274B1B6B02
:1010C80003F40013FB60FB687B681B68264A9342A5
:1010D80037D1264B00225A60244B00229A60234BBA
:1010E8000022DA60214B4FF480621A611F4B4FF4E3
:1010F80000625A611D4B4FF400529A611B4B4FF42A
:101108008072DA61194B4FF400321A62174B0022D1
:101118005A62164B03229A62144B0022DA62134B6E
:1011280000221A63114B124A1A607B680F4ADA636D
:101138000E4A7B6893630D4802F034FA0B4802F0BC
:1011480083F900220F210E2002F03BF80E2002F056
:1011580054F800BF3037BD4680BD00BF003802409C
:1011680000040240000802400038004078090020CE
:101178005860024080B588B000AF786039600E20B2
:1011880002F049F87B681B68144A934204D17B68D3
:10119800DB6B184602F006FA7B681B68DA697B6825
:1011A8001B6822F48062DA614FF48063FB60FB689D
:1011B80019460B4803F03AF90823FB60FB68194607
:1011C800084803F033F9084B1B6C074A23F48043A3
:1011D800136400BF2037BD4680BD00BF0038004003
:1011E80000040240000802400038024080B400AF0A
:1011F80000BFBD465DF8047B704780B400AF00BFF8
:10120800BD465DF8047B704780B400AF00BFBD46A3
:101218005DF8047B704780B586B000AFF860B960B0
:101228007A6000237B6100233B61434B1B6B424A7E
:1012380043F480531363404B1B6B03F480533B61AF
:101248003B6900237B616EE03C4A7B694C2101FBD2
:1012580003F3134400221A80384A7B694C2101FBAE
:1012680003F31344023300221A80344A7B694C2169
:1012780001FB03F313440433314A1A607B6898B2C4
:101288002E4A7B694C2101FB03F313440A330246BF
:101298001A80BB6898B2294A7B694C2101FB03F389
:1012A8001344083302461A807B694C2202FB03F37D
:1012B800224A134418461EF081F8FB68214AA2FB13
:1012C80003239B0998B220497A6913465B001344AB
:1012D8005B000B44023302461A801B497A691346A5
:1012E8005B0013445B000B44043318221A80164930
:1012F8007A6913465B0013445B000B4402221A8090
:101308007B694C2202FB03F30C4A98187A6913464E
:101318005B0013445B000C4A134419461EF0D8F8CE
:101328007B6901337B617A69BB689A428CD300BFC1
:101338001837BD4680BD00BF00380240940A00201F
:10134800489D807ED34D6210880A002080B582B007
:1013580000AF7860174B184A1A60164B1B68DA6999
:10136800144B1B6822F48062DA617B685B00114AC7
:101378005361104B0022DA610E4B08229A610D4B23
:101388000022DA600B4B00221A610A4B4FF44072BC
:101398005A60084B20229A60064809F065F803460F
:1013A800002B01D0012300E0002318460837BD4672
:1013B80080BD00BF740B00200038004080B582B0AB
:1013C80000AF78607B681B68074A934201D1FFF73A
:1013D800B7FC7B681B68054A934201D1FFF714FFED
:1013E80000BF0837BD4680BD003C004000380040C3
:1013F80080B400AF024B1846BD465DF8047B7047C9
:101408000003010280B58AB000AF0346FB71FB7987
:10141800002B0ED100233B61214B1B6B204A43F06C
:10142800200313631E4B1B6B03F020033B613B69D6
:1014380010E0FB79012B0DD10023FB60184B1B6BCF
:10144800174A43F020031363154B1B6B03F020036B
:10145800FB60FB68FB79134A32F813307B61012388
:10146800BB610123FB6102233B62FB790E4A52F800
:10147800233007F114021146184602F03DFEFB79AD
:10148800094A52F82300FB79064A32F81330012240
:10149800194603F0DDF800BF2837BD4680BD00BF00
:1014A80000380240440602080C00002080B582B0D3
:1014B80000AF0346FB71FB79074A52F82300FB791A
:1014C800064A32F813300022194603F0C1F800BF6B
:1014D8000837BD4680BD00BF0C0000204406020846
:1014E80080B582B000AF0346FB71FB79074A52F81A
:1014F8002300FB79064A32F813300122194603F01B
:10150800A7F800BF0837BD4680BD00BF0C0000200B
:101518004406020880B582B000AF0346FB71FB7930
:10152800064A52F82300FB79054A32F81330194667
:1015380003F0A7F800BF0837BD4680BD0C000020A7
:101548004406020880B588B000AF03460A46FB711E
:101558001346BB710023BB602B4B1B6B2A4A43F01D
:1015680010031363284B1B6B03F01003BB60BB68AD
:10157800BB79002B15D1FB79244A32F81330FB6074
:1015880000233B61FB79002B01D1022300E00123FA
:101598007B610223BB6107F10C0319461C4802F06A
:1015A800ABFDBB79012B2AD10223BB61FB79002B50
:1015B80001D1184B00E0184B3B61FB79002B01D19E
:1015C800022300E001237B61FB79104A32F81330D3
:1015D800FB6007F10C0319460D4802F08DFDFB79FD
:1015E8000E4AD35C5BB200220221184601F0E9FDE5
:1015F800FB790A4AD35C5BB2184601F0FEFD00BFD6
:101608002037BD4680BD00BF0038024048060208AA
:1016180000100240000011100000211050060208BE
:1016280080B582B000AF0346FB71FB79054A32F8FA
:1016380013301946044802F0F3FF034618460837EA
:10164800BD4680BD480602080010024080B500AFC4
:1016580019480CF06FFF0346002B2AD1164B174A86
:101668001A60154B1822DA61134B00229A60124B4C
:1016780000225A61104B00221A610F4B00229A6215
:101688000D4B0722DA620C4B0022DA600A4B00226B
:101698001A62094B4FF400729A61074B00225A6292
:1016A800054B4FF482725A6000F036F802480BF08E
:1016B8005FF900BF80BD00BFD8090020003001409D
:1016C80080B586B002AF0346FB710023FB730A4B5B
:1016D8001B6807F10F02F91D0093012307480BF05F
:1016E800C3FC0346002B01D000F00AF8FB7B184628
:1016F8001037BD4680BD00BF18000020D809002063
:1017080080B500AF03480BF09EF9FFF79FFF00BFBD
:1017180080BD00BFD809002080B588B000AF002385
:10172800BB60174B5B6C164A43F480535364144BED
:101738005B6C03F48053BB60BB6800237B60104B79
:101748001B6B0F4A43F0010313630D4B1B6B03F034
:1017580001037B607B68E023FB6002233B6102237B
:101768007B610123BB610523FB6107F10C0319466B
:10177800044802F0C1FC00BF2037BD4680BD00BF51
:10178800003802400000024080B592B000AF786097
:1017980039607B68BB603B68FB6000233B610023CA
:1017A8007B610023BB6100233B620C23FB610023A8
:1017B8007B6207F10803184619F0E4FD00BF4837BB
:1017C800BD4680BD80B500AF0E4806F02CFF03462D
:1017D800002B14D10B4B0C4A5A600A4B00229A601A
:1017E800084B3322DA60074B4FF480421A61054BED
:1017F800064A1A6000F076F8024802F0A9FF00BF16
:1018080080BD00BF300A0020A086010000540040BF
:1018180080B588B004AF0346FB710B46BB71134615
:101828007B710023FB73FB7999B2BB799AB20C4B9D
:101838001B680293012301937B1D00930123094830
:1018480004F010FC0346FB73FB7B002B03D0FB79F1
:10185800184600F037F800BF1037BD4680BD00BFFE
:1018680014000020300A002080B588B004AF034679
:101878000A46FB711346BB710023FB730023BB733D
:10188800FB7999B2BB799AB20C4B1B68029301237E
:10189800019307F10E0300930123094804F0DCFCCF
:1018A8000346FB73FB7B002B03D0FB79184600F043
:1018B80009F8BB7B18461037BD4680BD14000020D0
:1018C800300A002080B582B000AF0346FB7104489F
:1018D80003F072F8FFF776FF00BF0837BD4680BDFA
:1018E800300A002080B588B000AF0023BB60254BCC
:1018F8001B6B244A43F002031363224B1B6B03F058
:101908000203BB60BB684FF41073FB6012233B619A
:101918000223BB6100237B610423FB6107F10C03F5
:101928001946194802F0E8FB00237B60154B1B6C35
:10193800144A43F400131364124B1B6C03F4001392
:101948007B607B680F4B1B6A0E4A43F400131362DB
:101958000C4B1B6A0B4A23F400131362002200216C
:101968001F2001F02EFC1F2001F047FC002200215F
:10197800202001F026FC202001F03FFC00BF20378A
:10198800BD4680BD003802400004024080B586B0E4
:1019980000AF00233B60124B1B6B114A43F010034E
:1019A80013630F4B1B6B03F010033B603B6808236A
:1019B8007B600123BB600023FB6001233B613B1D6F
:1019C8001946084802F098FB01220821054802F050
:1019D8003FFEFFF73BFE00BF1837BD4680BD00BF86
:1019E800003802400010024080B586B000AF0023E6
:1019F8003B60124B1B6B114A43F0100313630F4BF0
:101A08001B6B03F010033B603B6802237B600C4BAD
:101A1800BB6002233B610023FB603B1D194609485C
:101A280002F06AFB00220F21072001F0CAFB072001
:101A380001F0E3FB00BF1837BD4680BD0038024007
:101A4800000011100010024080B582B000AF78602D
:101A58000B46FB7013463B803B88012B03D9FB7870
:101A680043F04003FB70002208210F4802F0F0FD0C
:101A7800FB781846FFF724FE0AE07B681B781846B7
:101A8800FFF71EFE3B88013B3B807B6801337B6090
:101A98003B88002BF1D101220821034802F0D8FD30
:101AA80000BF0837BD4680BD0010024080B582B037
:101AB80000AF78600B46FB7013463B803B88012BD8
:101AC80004D9FB7863F03F03FB7003E0FB7863F015
:101AD8007F03FB7000220821104802F0B9FDFB7853
:101AE8001846FFF7EDFD0CE00020FFF7E9FD03467F
:101AF8001A467B681A703B88013B3B807B68013340
:101B08007B603B88002BEFD101220821034802F0BB
:101B18009FFD00BF0837BD4680BD00BF00100240D2
:101B280080B586B000AF00233B60174B1B6B164A8D
:101B380043F008031363144B1B6B03F008033B606B
:101B48003B6810237B600123BB6002233B610023B9
:101B5800FB603B1D19460D4802F0CEFAFFF732FE36
:101B680000221021094802F073FD052001F038F821
:101B780001221021054802F06BFD052001F030F824
:101B880000BF1837BD4680BD00380240000C024037
:101B980080B400AF00BFBD465DF8047B704780B5D8
:101BA80082B000AF0346FB710B46BB7113467B71D5
:101BB8007A79B979FB791846FFF72AFE00BF08370A
:101BC800BD4680BD80B582B000AF03460A46FB71B2
:101BD8001346BB71BA79FB7911461846FFF744FEE4
:101BE800034618460837BD4680BD00BF80B586B09D
:101BF80000AF7B600346FB810B46BB811346FB723B
:101C080000237B61FFF78CFFFB89DBB201220221F5
:101C1800184600F0FFFA03461A467B6913447B61B5
:101C2800BB89013B032B1BD801A252F823F000BF4C
:101C3800491C0008511C0008591C0008611C0008B8
:101C48005B4BFA221A700FE0594BAF221A700BE067
:101C5800574BAA221A7007E0554B05221A7003E069
:101C6800534B05221A7000BFFB89D8B2504B1B7822
:101C7800DBB21A46042100F0CDFA03461A467B6906
:101C880013447B61FB89DBB281220521184600F0F1
:101C9800C1FA03461A467B6913447B61FB89DBB2B0
:101CA80004220621184600F0B5FA03461A467B6955
:101CB80013447B61FA7AFB891146184600F064F9EF
:101CC80002467B6913447B61BB89022B23D0FB89C5
:101CD800DBB206220F21184600F09CFA03461A468A
:101CE8007B6913447B61FB89DBB2002224211846FF
:101CF80000F090FA03461A467B6913447B61FB891E
:101D0800DBB200222521184600F084FA03461A4661
:101D18007B6913447B61FB89DBB200220A211846E8
:101D280000F078FA03461A467B6913447B61FB8905
:101D3800DBB204220E21184600F06CFA03461A465C
:101D48007B6913447B61FB89DBB20022272118469B
:101D580000F060FA03461A467B6913447B61FB89ED
:101D6800DBB20F221F21184600F054FA03461A4628
:101D78007B6913447B61FB89DBB20A221A2118466E
:101D880000F048FA03461A467B6913447B61FB89D5
:101D9800DBB20A221B21184600F03CFA03461A4619
:101DA8007B6913447B617B6918461837BD4680BD43
:101DB800840A002080B500AFFFF7EAFE00BF80BDAF
:101DC80080B584B000AF0346FB80FFF7A9FEFB880F
:101DD800DBB201211846FFF7F5FE0346FB73FB7BD8
:101DE80023F00703FB73FB7B18461037BD4680BD05
:101DF80080B584B000AF03463960FB801346BB80D2
:101E08000023FB60164B1B78012B23D1FB88DBB228
:101E180006220E21184600F0FDF903461A46FB6813
:101E28001344FB60FB880021184600F018F90246AD
:101E3800FB681344FB60FB88DBB29E220221184634
:101E480000F0E8F903461A46FB681344FB60044BAC
:101E580000221A70FB6818461037BD4680BD00BFC7
:101E68004C00002080B584B000AF0346FB800023FF
:101E7800FB60FB880121184600F0F1F80246FB6878
:101E88001344FB60FB88DBB201220221184600F0F4
:101E9800C1F903461A46FB681344FB60FB68184601
:101EA8001037BD4680BD80B584B000AF0346FB80C7
:101EB8000023FB600023BB60FB880021184600F06C
:101EC800CEF80246FB681344FB600023BB6002E0C7
:101ED800BB680133BB60BB68FE2BF9D9FB88D8B25D
:101EE8000E4B1B78DBB21A46042100F093F9034627
:101EF8001A46FB681344FB60FB88DBB29E22022172
:101F0800184600F087F903461A46FB681344FB603D
:101F1800FB6818461037BD4680BD00BF840A002004
:101F280080B584B000AF03463960FB800023FB60B6
:101F3800FB880121184600F092F80246FB6813441A
:101F4800FB60FB88DBB204220E21184600F062F920
:101F580003461A46FB681344FB60FB88DBB29F22EA
:101F68000221184600F056F903461A46FB68134446
:101F7800FB60044B01221A70FB6818461037BD46F7
:101F880080BD00BF4C00002080B584B000AF034680
:101F98000A46FB8013467B710023FB607B79642B28
:101FA8000BD87A7913461B029B1A254A82FB031227
:101FB8005211DB17D31ADBB200E0FF23FB72FB7A66
:101FC800E62B1CD9FB88D8B2FB7A1933DBB21A4648
:101FD800202100F01FF903461A46FB681344FB60F2
:101FE800FB88D8B2FB7A1933DBB21A46212100F0FC
:101FF80011F903461A46FB681344FB601BE0FB8893
:10200800D8B2FB7A1933DBB21A46202100F002F964
:1020180003461A46FB681344FB60FB88D8B2FB7A78
:102028001933DBB21A46212100F0F4F803461A46A8
:10203800FB681344FB60FB6818461037BD4680BD3B
:102048001F85EB5180B483B000AF03463960FB8035
:10205800002318460C37BD465DF8047B704780B5F1
:1020680084B000AF03463960FB800023FB603B6807
:10207800012B24D1FB88DBB2FF220421184600F093
:10208800C9F803461A46FB681344FB60FB88DBB2B9
:1020980001222221184600F0BDF803461A46FB68C3
:1020A8001344FB60FB88DBB201222321184600F0B1
:1020B800B1F803461A46FB681344FB6025E0FB8829
:1020C800DBB200222221184600F0A4F803461A4683
:1020D800FB681344FB60FB88DBB20022232118460F
:1020E80000F098F803461A46FB681344FB60FB8827
:1020F800D8B2084B1B78DBB21A46042100F08AF8E4
:1021080003461A46FB681344FB60FB681846103701
:10211800BD4680BD840A002080B584B000AF034668
:102128000A46FB8013467B710023FB607B79013BE9
:10213800032B4BD801A252F823F000BF5521000809
:102148007521000895210008B5210008FB88DBB23D
:10215800FA220421184600F05DF803461A46FB6887
:102168001344FB60244BFA221A703FE0FB88DBB271
:10217800AF220421184600F04DF803461A46FB68C2
:102188001344FB601C4BAF221A702FE0FB88DBB2B4
:10219800AA220421184600F03DF803461A46FB68B7
:1021A8001344FB60144BAA221A701FE0FB88DBB2B1
:1021B80005220421184600F02DF803461A46FB684C
:1021C8001344FB600C4B05221A700FE0FB88DBB24E
:1021D80005220421184600F01DF803461A46FB683C
:1021E8001344FB60044B05221A7000BFFB681846B5
:1021F8001037BD4680BD00BF840A002080B483B07C
:1022080000AF0346FB80002318460C37BD465DF837
:10221800047B704780B584B000AF0346FB710B4662
:10222800BB7113467B710023FB607A79B979FB791E
:102238001846FFF7B4FCFB68DBB218461037BD46FA
:1022480080BD00BF80B584B000AF0346FB8000238B
:10225800FB73FFF79BFBFB88DBB2FB7307F10F03F4
:10226800012220211846FFF7EFFB00BF1037BD46BB
:1022780080BD80B400AF00BFBD465DF8047B7047E9
:1022880080B582B000AF0023FB71FFF77FFBFB1D19
:1022980001220F211846FFF709FCFB791846083779
:1022A800BD4680BD80B584B000AF0346FB710023F6
:1022B800FB7307F10F03012221211846FFF7F6FBF4
:1022C800FB7B23F02F03DBB2FB73FA7BFB79134311
:1022D800DBB2FB7307F10F03012221211846FFF738
:1022E800B3FB00BF1037BD4680BD80B584B000AFDA
:1022F80078600023FB7307F10F0301223821184689
:10230800FFF7D4FB7B681A787B685B781343DAB2F3
:102318007B689B781343DBB2FB7307F10F03012241
:1023280038211846FFF790FB00BF1037BD4680BD27
:1023380080B582B000AF0023FB71FFF755FB402347
:102348003B7110237B712023BB713B1D1846FFF79F
:10235800CCFF3F23FB71FB1D012222211846FFF70A
:1023680073FB5023FB71FB1D012238211846FFF730
:102378006BFBAA23FB71FB1D01223B211846FFF7CB
:1023880063FB0A23FB71FB1D01223C211846FFF762
:102398005BFB4C23FB71FB1D012230211846FFF724
:1023A80053FB0323FB71FB1D01223D211846FFF758
:1023B8004BFB7F23FB71FB1D01223E211846FFF7D3
:1023C80043FB7F23FB71FB1D01223F211846FFF7CA
:1023D8003BFB00BF0837BD4680BD80B584B000AF69
:1023E8000023FB71FB1D012239211846FFF75EFB14
:1023F80007F10803062227211846FFF757FB00BFFD
:102408001037BD4680BD80B584B000AF0346FB7170
:1024180007F10F03012220211846FFF747FBFB7B3A
:1024280023F04003DBB2FB73FA7BFB791343DBB287
:10243800FB7307F10F03012220211846FFF704FB65
:1024480000BF1037BD4680BD80B584B000AF0346DD
:10245800FB7107F10F03012220211846FFF726FB25
:10246800FB7B03F07F03DBB2FB73FA7BFB7913433F
:10247800DBB2FB7307F10F03012220211846FFF797
:10248800E3FA00BF1037BD4680BD80B584B000AF09
:102498000346FB7107F10F03012220211846FFF7BD
:1024A80005FBFB7B23F02003DBB2FB73FA7BFB7994
:1024B8001343DBB2FB7307F10F03012220211846F7
:1024C800FFF7C2FA00BF1037BD4680BD80B582B0A5
:1024D80000AFFB1D012221211846FFF7E7FAFB791F
:1024E80043F04003DBB2FB71FB1D0122212118469A
:1024F800FFF7AAFA00BF0837BD4680BD80B588B08F
:1025080000AF78601223FB770023BB7707F10F0336
:10251800012220211846FFF7C9FA07F118030622FD
:1025280029211846FFF7C2FA0023BB7711E0BB7FC9
:102538005B0007F12002134413F9082CBB7F12B289
:102548005B0007F120010B4423F8102CBB7F0133FB
:10255800BB77BB7F022BEAD9FB7B03F02003002B60
:1025680002D0202B03D005E01223FB7702E048239A
:10257800FB7700BF0023BB7715E0BB7F5B0007F14B
:102588002002134433F9103C9AB2FB7F9BB212FB32
:1025980003F399B2BB7F5B007A6813440AB21A80CE
:1025A800BB7F0133BB77BB7F022BE6D900BF203747
:1025B800BD4680BD80B584B000AF0346FB800023D4
:1025C800FB73FFF7E3F9FB88DBB2FB7307F10F033B
:1025D800012220211846FFF737FAFB881B0A9BB215
:1025E800DBB2FB7307F10F03012224211846FFF722
:1025F8002BFA00BF1037BD4680BD80B400AF00BFC6
:10260800BD465DF8047B704780B582B000AF0023FB
:10261800FB71FFF7BBF9FB1D01220F211846FFF7DD
:1026280045FAFB7918460837BD4680BD80B584B0A9
:1026380000AF78600023FB737B685A787B681B784F
:102648001343DAB27B689B781343DBB2FB7307F161
:102658000F03012223211846FFF7F6F97B68DA7881
:102668007B681B791343DBB2FB7307F10F0301226D
:1026780021211846FFF7E8F97B685A797B689B792E
:102688001343DBB2FB7307F10F0301222221184623
:10269800FFF7DAF900BF1037BD4680BD80B582B0BC
:1026A80000AF0023FB71FFF79FF900237B70002325
:1026B8003B704023BB700023FB7001237B71002318
:1026C800BB713B461846FFF7B1FF0323FB71FB1DA7
:1026D800012252211846FFF7B7F9C823FB71FB1DE9
:1026E800012254211846FFF7AFF94523FB71FB1D62
:1026F800012256211846FFF7A7F9FC23FB71FB1DA1
:1027080001225A211846FFF79FF9A123FB71FB1DEF
:1027180001225B211846FFF797F90123FB71FB1D86
:1027280001225C211846FFF78FF9FB1D01227B214E
:102738001846FFF789F9FB1D012260211846FFF7AB
:1027480083F90623FB71FB1D012261211846FFF75F
:102758007BF92823FB71FB1D012262211846FFF734
:1027680073F91123FB71FB1D012263211846FFF742
:102778006BF900BF0837BD4680BD80B584B000AF97
:102788000346FB7107F10F03012220211846FFF7CA
:102798008DF9FB7B23F06003DBB2FB73FA7BFB79DB
:1027A8001343DBB2FB7307F10F0301222021184604
:1027B800FFF74AF900BF1037BD4680BD80B584B029
:1027C80000AF0346FB7107F10F03012220211846D1
:1027D800FFF76CF9FB7B23F07003DBB2FB73FA7B2A
:1027E800FB791343DBB2FB7307F10F0301222021AE
:1027F8001846FFF729F900BF1037BD4680BD80B5E0
:1028080084B000AF0346FB7107F10F0301222421B6
:102818001846FFF74BF9FB7B23F02003DBB2FB7371
:10282800FA7BFB791343DBB2FB7307F10F03012239
:1028380024211846FFF708F900BF1037BD4680BDB0
:1028480080B582B000AFFB1D012225211846FFF795
:102858002DF9FB7963F07F03DBB2FB71FB1D0122CD
:1028680025211846FFF7F0F800BF0837BD4680BDA0
:1028780080B588B000AF78600023FB77644BBB61FC
:102888004FF000037B6107F10B0301222421184656
:10289800FFF70CF907F10C03012228211846FFF76E
:1028A80005F907F10C030133012229211846FFF726
:1028B800FDF807F10C03023301222A211846FFF71D
:1028C800F5F807F10C03033301222B211846FFF713
:1028D800EDF807F10C03043301222C211846FFF709
:1028E800E5F807F10C03053301222D211846FFF7FF
:1028F800DDF8FB7A03F03803202B54D801A252F8F4
:1029080023F000BF91290008AF290008AF2900086B
:10291800AF290008AF290008AF290008AF2900082F
:10292800AF29000897290008AF290008AF29000837
:10293800AF290008AF290008AF290008AF2900080F
:10294800AF2900089D290008AF290008AF29000811
:10295800AF290008AF290008AF290008AF290008EF
:10296800AF290008A3290008AF290008AF290008EB
:10297800AF290008AF290008AF290008AF290008CF
:10298800AF290008A9290008214BBB610CE0214BA5
:10299800BB6109E0204BBB6106E0204BBB6103E053
:1029A8001F4BBB6100E000BF0023FB7729E0FB7FE2
:1029B8005B00013307F12002134413F9143C1B0296
:1029C800FA7F520007F120010A4412F9142C13442B
:1029D80007EE903AF8EEE77A97ED067A67EE277AEF
:1029E800C7ED057AFB7F5B007A681344D7ED057A5B
:1029F800FDEEE77A17EE902A12B21A80FB7F0133B8
:102A0800FB77FB7F022BD2D900BF2037BD4680BDA4
:102A18008FC2753D8FC2F53DEC51383E8FC2753E71
:102A280048E13A3F80B500AF0B4B1B680A4A43F4B4
:102A380000731360084B1B68074A43F480631360F4
:102A4800032000F0B3FB0F2000F042F800F032F84A
:102A58000023184680BD00BF003C024080B500AF8F
:102A6800134B4FF0FF321A62114B00221A62104BBF
:102A78004FF0FF325A620E4B00225A620C4B4FF055
:102A8800FF321A610A4B00221A61094B4FF0FF32DC
:102A98005A61074B00225A61054B4FF0FF329A6189
:102AA800034B00229A6100F00CF80023184680BD01
:102AB8000038024080B400AF00BFBD465DF8047B1B
:102AC800704780B400AF00BFBD465DF8047B704717
:102AD80080B582B000AF7860124B1A68124B1B7831
:102AE80019464FF47A73B3FBF1F3B2FBF3F31846CC
:102AF80000F0A3FB0346002B01D001230EE07B6806
:102B08000F2B0AD8002279684FF0FF3000F059FBEC
:102B1800064A7B681360002300E001231846083743
:102B2800BD4680BD04000020BC000020B800002085
:102B380080B400AF064B1B781A46064B1B6813443B
:102B4800044A136000BFBD465DF8047B704700BFB0
:102B5800BC000020BC0B002080B400AF034B1B68F6
:102B68001846BD465DF8047B704700BFBC0B0020CB
:102B780080B400AF034B1B681846BD465DF8047B64
:102B8800704700BFB800002080B584B000AF03468E
:102B9800FB710023FB730A4B1B78FA799A4209D020
:102BA800074AFB791370074B1B681846FFF790FF1D
:102BB8000346FB73FB7B18461037BD4680BD00BF3C
:102BC800BC000020B800002080B400AF034B1B7885
:102BD8001846BD465DF8047B704700BFBC00002066
:102BE80080B584B000AF7860FFF7B6FFB8607B6847
:102BF800FB60FB68B3F1FF3F05D0094B1B781A4611
:102C0800FB681344FB6000BFFFF7A6FF0246BB68E2
:102C1800D31AFA689A42F7D800BF1037BD4680BD6C
:102C2800BC00002080B400AF054B1B68044A23F0A9
:102C38000203136000BFBD465DF8047B704700BF08
:102C480010E000E080B400AF054B1B68044A43F075
:102C58000203136000BFBD465DF8047B704700BFE8
:102C680010E000E080B400AF024B1846BD465DF8A6
:102C7800047B70470005070180B400AF034B1B6855
:102C88001B0C1846BD465DF8047B7047002004E025
:102C980080B400AF044B1B68C3F30B031846BD4652
:102CA8005DF8047B704700BF002004E080B400AFEB
:102CB800054B5B68044A43F00103536000BFBD46FF
:102CC8005DF8047B704700BF002004E080B400AFCB
:102CD800054B5B68044A23F00103536000BFBD46FF
:102CE8005DF8047B704700BF002004E080B400AFAB
:102CF800054B5B68044A43F00203536000BFBD46BE
:102D08005DF8047B704700BF002004E080B400AF8A
:102D1800054B5B68044A23F00203536000BFBD46BD
:102D28005DF8047B704700BF002004E080B400AF6A
:102D3800054B5B68044A43F00403536000BFBD467B
:102D48005DF8047B704700BF002004E080B400AF4A
:102D5800054B5B68044A23F00403536000BFBD467B
:102D68005DF8047B704700BF002004E080B400AF2A
:102D7800034B01221A6000BFBD465DF8047B704713
:102D88000004274280B400AF034B00221A6000BF42
:102D9800BD465DF8047B70470004274280B400AF4D
:102DA800034B1B681846BD465DF8047B704700BF9F
:102DB800107AFF1F80B400AF034B1B681846BD464E
:102DC8005DF8047B704700BF147AFF1F80B400AF22
:102DD800034B1B681846BD465DF8047B704700BF6F
:102DE800187AFF1F80B485B000AF78607B6803F065
:102DF8000703FB600C4BDB68BB60BA684FF6FF0348
:102E08001340BB60FB681A02BB68134343F0BF63FF
:102E180043F40033BB60044ABB68D36000BF143777
:102E2800BD465DF8047B704700ED00E080B400AF5C
:102E3800044BDB681B0A03F007031846BD465DF820
:102E4800047B704700ED00E080B483B000AF034618
:102E5800FB7197F90730002B0BDBFB7903F01F029E
:102E6800074997F907305B09012000FA02F241F897
:102E7800232000BF0C37BD465DF8047B704700BFB8
:102E880000E100E080B483B000AF0346FB7197F91E
:102E98000730002B10DBFB7903F01F02094997F973
:102EA80007305B09012000FA02F2203341F82320A1
:102EB800BFF34F8FBFF36F8F00BF0C37BD465DF870
:102EC800047B704700E100E080B483B000AF0346A4
:102ED800FB7197F90730002B0EDB0B4A97F9073087
:102EE8005B09403352F82320FB7903F01F0322FAD1
:102EF80003F303F0010300E0002318460C37BD4636
:102F08005DF8047B704700BF00E100E080B483B047
:102F180000AF0346FB7197F90730002B0CDBFB79F8
:102F280003F01F02074997F907305B09012000FAEF
:102F380002F2403341F8232000BF0C37BD465DF84C
:102F4800047B704700E100E080B483B000AF034623
:102F5800FB7197F90730002B0CDBFB7903F01F029C
:102F6800074997F907305B09012000FA02F260333C
:102F780041F8232000BF0C37BD465DF8047B70473D
:102F880000E100E080B483B000AF0346FB7197F91D
:102F98000730002B0EDB0B4A97F907305B098033AB
:102FA80052F82320FB7903F01F0322FA03F303F0FE
:102FB800010300E0002318460C37BD465DF8047B8A
:102FC800704700BF00E100E080B483B000AF034663
:102FD8003960FB7197F90730002B0ADB3B68DAB2DE
:102FE8000C4997F907301201D2B20B4483F8002339
:102FF8000AE03B68DAB20849FB7903F00F03043BA7
:103008001201D2B20B441A7600BF0C37BD465DF8E8
:10301800047B704700E100E000ED00E080B483B07D
:1030280000AF0346FB7197F90730002B09DB0D4A07
:1030380097F90730134493F80033DBB21B09DBB26E
:1030480009E0094AFB7903F00F03043B13441B7E94
:10305800DBB21B09DBB218460C37BD465DF8047BB2
:10306800704700BF00E100E000ED00E080B489B0E7
:1030780000AFF860B9607A60FB6803F00703FB6192
:10308800FB69C3F10703042B28BF0423BB61FB6959
:103098000433062B02D9FB69033B00E000237B6164
:1030A8004FF0FF32BB6902FA03F3DA43BB681A40F8
:1030B8007B699A404FF0FF317B6901FA03F3D943EA
:1030C8007B680B40134318462437BD465DF8047BE4
:1030D800704780B489B000AFF860B9607A603B602F
:1030E800BB6803F00703FB61FB69C3F10703042B0B
:1030F80028BF0423BB61FB690433062B02D9FB6993
:10310800033B00E000237B61FA687B69DA404FF0FB
:10311800FF31BB6901FA03F3DB431A407B681A608D
:103128004FF0FF327B6902FA03F3DA43FB681A4077
:103138003B681A6000BF2437BD465DF8047B7047C2
:1031480080B400AFBFF34F8F054BDB6803F4E06238
:103158000349044B1343CB60BFF34F8F00BFFDE718
:1031680000ED00E00400FA0580B582B000AF786099
:103178007B68013BB3F1807F01D301230FE00A4A4A
:103188007B68013B53600F214FF0FF30FFF71CFFB6
:10319800054B00229A60044B07221A600023184648
:1031A8000837BD4680BD00BF10E000E080B582B0A2
:1031B80000AF78607868FFF715FE00BF0837BD4696
:1031C80080BD80B586B000AF0346B9607A60FB73F6
:1031D80000237B61FFF72AFE78617A68B96878690D
:1031E800FFF744FF024697F90F3011461846FFF7DC
:1031F800EBFE00BF1837BD4680BD80B582B000AF7A
:103208000346FB7197F907301846FFF71DFE00BF0C
:103218000837BD4680BD80B582B000AF0346FB715C
:1032280097F907301846FFF72DFE00BF0837BD464F
:1032380080BD80B500AFFFF783FF80B582B000AFD7
:1032480078607868FFF790FF034618460837BD4650
:1032580080BD80B400AFBFF35F8F074B5B6A064A3F
:1032680023F480335362054B00225A6000BFBD46E9
:103278005DF8047B704700BF00ED00E090ED00E0D2
:1032880080B483B000AF78600A4A7B6843F00103DA
:103298005360094B5B6A084A43F480335362BFF3B7
:1032A8004F8FBFF36F8F00BF0C37BD465DF8047BAF
:1032B800704700BF90ED00E000ED00E080B483B0FF
:1032C80000AF78607B685A781D4B9A607B681B78E2
:1032D800002B29D01A4A7B685B68D3607B681B7B0C
:1032E8001A077B68DB7A1B061A437B689B7ADB0428
:1032F8001A437B685B7B9B041A437B689B7B5B045C
:103308001A437B68DB7B1B041A437B685B7A1B02CE
:103318001A437B681B7A5B0013437A68127811465C
:10332800074A0B43136105E0054B0022DA60044BA2
:1033380000221A6100BF0C37BD465DF8047B704758
:1033480090ED00E080B500AFFFF770FD034618462A
:1033580080BD80B584B000AFB9607A603B60034639
:10336800FB7397F90F301846FFF758FE3B687A68E9
:10337800B968FFF7AEFE00BF1037BD4680BD80B507
:1033880082B000AF0346FB7197F907301846FFF784
:10339800BDFD00BF0837BD4680BD80B582B000AF17
:1033A8000346FB7197F907301846FFF78DFD034672
:1033B80018460837BD4680BD80B582B000AF0346C9
:1033C800FB7197F907301846FFF7BEFD00BF0837B5
:1033D800BD4680BD80B582B000AF0346FB7197F94A
:1033E80007301846FFF7CEFD034618460837BD4696
:1033F80080BD80B483B000AF78607B68042B06D1B1
:10340800094B1B68084A43F00403136005E0064BA8
:103418001B68054A23F00403136000BF0C37BD4640
:103428005DF8047B704700BF10E000E080B500AF96
:1034380000F002F800BF80BD80B400AF00BFBD46F9
:103448005DF8047B704700BF80B586B000AF786038
:1034580000237B61FFF780FB38617B68002B01D17B
:10346800012399E07B68002283F834207B680222DC
:1034780083F835207B681B681A687B681B6822F014
:1034880001021A600FE0FFF767FB02463B69D31A97
:10349800052B08D97B6820225A657B68032283F8AC
:1034A8003520032378E07B681B681B6803F0010361
:1034B800002BE8D17B681B681B687B617A69384BF5
:1034C80013407B617B685A687B689B681A437B68FA
:1034D800DB681A437B681B691A437B685B691A437C
:1034E8007B689B691A437B68DB691A437B681B6AA4
:1034F80013437A6913437B617B685B6A042B07D1AA
:103508007B68DA6A7B681B6B13437A6913437B61B8
:103518007B681B687A691A607B681B685B697B61DA
:103528007B6923F007037B617B685B6A7A691343D5
:103538007B617B685B6A042B17D17B689B6A7A691D
:1035480013437B617B68DB6A002B0ED0786800F040
:1035580057FD0346002B08D07B6840225A657B68DC
:10356800012283F83520012316E07B681B687A69FD
:103578005A61786800F00EFD0346FB607B68DB6DDE
:103588003F229A40FB689A607B6800225A657B68F4
:10359800012283F83520002318461837BD4680BD20
:1035A8003F8010F080B584B000AF78607B68002B56
:1035B80001D1012350E07B6893F83530DBB2022B50
:1035C80001D1022348E07B681B681A687B681B6886
:1035D80022F001021A607B681B6800221A607B686F
:1035E8001B6800225A607B681B6800229A607B680F
:1035F8001B680022DA607B681B6800221A617B68FE
:103608001B6821225A61786800F0C4FC0346FB60FD
:103618007B680022DA637B6800221A647B680022D8
:103628005A647B6800229A647B680022DA647B68AB
:1036380000221A657B68DB6D3F229A40FB689A601E
:103648007B6800225A657B68002283F835207B68F6
:10365800002283F83420002318461037BD4680BD69
:1036680080B586B000AFF860B9607A603B6000232F
:10367800FB75FB6893F83430012B01D1022326E057
:10368800FB68012283F83420FB6893F83530DBB2FD
:10369800012B15D1FB68022283F83520FB68002234
:1036A8005A653B687A68B968F86800F045FCFB68B9
:1036B8001B681A68FB681B6842F001021A6005E083
:1036C800FB68002283F834200223FB75FB7D184633
:1036D8001837BD4680BD80B586B000AFF860B960C8
:1036E8007A603B600023FB75FB689B6D3B61FB6860
:1036F80093F83430012B01D1022348E0FB68012202
:1037080083F83420FB6893F83530DBB2012B37D1CE
:10371800FB68022283F83520FB6800225A653B6863
:103728007A68B968F86800F007FCFB68DB6D3F222F
:103738009A403B699A60FB681B681A68FB681B68BB
:1037480042F016021A60FB681B685A69FB681B681E
:1037580042F080025A61FB681B6C002B07D0FB68A3
:103768001B681A68FB681B6842F008021A60FB684D
:103778001B681A68FB681B6842F001021A6005E0C2
:10378800FB68002283F834200223FB75FB7D184672
:103798001837BD4680BD80B584B000AF78607B68BF
:1037A8009B6DFB60FFF7D8F9B8607B6893F83530FC
:1037B800DBB2022B08D07B6880225A657B68002226
:1037C80083F83420012352E07B681B681A687B6801
:1037D8001B6822F016021A607B681B685A697B68AE
:1037E8001B6822F080025A617B681B6C002B03D196
:1037F8007B689B6C002B07D07B681B681A687B680A
:103808001B6822F008021A607B681B681A687B68CC
:103818001B6822F001021A6013E0FFF79DF90246C7
:10382800BB68D31A052B0CD97B6820225A657B68A4
:10383800002283F834207B68032283F83520032391
:1038480015E07B681B681B6803F00103002BE4D1BB
:103858007B68DB6D3F229A40FB689A607B68002298
:1038680083F834207B68012283F83520002318462A
:103878001037BD4680BD80B483B000AF78607B68E8
:1038880093F83530DBB2022B04D07B6880225A656E
:1038980001230CE07B68052283F835207B681B68D0
:1038A8001A687B681B6822F001021A600023184618
:1038B8000C37BD465DF8047B704780B58AB000AF11
:1038C800F8600B467A60FB720023FB77FFF744F938
:1038D800B861FB6893F83530DBB2022B08D0FB687F
:1038E80080225A65FB68002283F834200123BFE058
:1038F800FB681B681B6803F48073002B05D0FB680A
:103908004FF480725A650123B2E0FB7A002B06D18E
:10391800FB68DB6D202202FA03F37B6205E0FB689B
:10392800DB6D102202FA03F37B62FB689B6D7B61FF
:103938007B691B683B625AE07B68B3F1FF3F17D095
:103948007B68002B07D0FFF707F90246BB69D31A3B
:103958007A689A420CD2FB6820225A65FB680022DA
:1039680083F83420FB68012283F8352003237FE0A5
:103978007B691B683B62FB68DB6D08229A403B6AE7
:103988001340002B0BD0FB685B6D43F00102FB6812
:103998005A65FB68DB6D08229A407B699A60FB6870
:1039A800DB6D01229A403B6A1340002B0BD0FB6869
:1039B8005B6D43F00202FB685A65FB68DB6D012210
:1039C8009A407B699A60FB68DB6D04229A403B6AE7
:1039D8001340002B0BD0FB685B6D43F00402FB68BF
:1039E8005A65FB68DB6D04229A407B699A603A6AE3
:1039F8007B6A1340002B05D1FB685B6D03F0010364
:103A0800002B99D0FB685B6D002B18D0FB685B6DB1
:103A180003F00103002B12D0F868FFF7BCFEFB6827
:103A2800DB6D30229A407B699A60FB68002283F83C
:103A38003420FB68012283F83520012318E0FB7A43
:103A4800002B0ED1FB68DB6D30229A407B699A60AF
:103A5800FB68002283F83420FB68012283F83520B4
:103A680005E0FB68DB6D10229A407B699A60FB7F5A
:103A780018462837BD4680BD80B586B000AF78604F
:103A88000023BB60924B1B68924AA2FB03239B0A4C
:103A98007B617B689B6D3B613B691B68FB607B6856
:103AA800DB6D08229A40FB681340002B1AD07B6814
:103AB8001B681B6803F00403002B13D07B681B688A
:103AC8001A687B681B6822F004021A607B68DB6D49
:103AD80008229A403B699A607B685B6D43F001025B
:103AE8007B685A657B68DB6D01229A40FB6813404E
:103AF800002B12D07B681B685B6903F08003002BE6
:103B08000BD07B68DB6D01229A403B699A607B6829
:103B18005B6D43F002027B685A657B68DB6D0422AB
:103B28009A40FB681340002B12D07B681B681B6807
:103B380003F00203002B0BD07B68DB6D04229A4054
:103B48003B699A607B685B6D43F004027B685A6549
:103B58007B68DB6D10229A40FB681340002B43D032
:103B68007B681B681B6803F00803002B3CD07B684C
:103B7800DB6D10229A403B699A607B681B681B6862
:103B880003F48023002B18D07B681B681B6803F4A0
:103B98000023002B08D17B681B6C002B24D07B688A
:103BA8001B6C786898471FE07B689B6C002B1BD0C8
:103BB8007B689B6C7868984716E07B681B681B6875
:103BC80003F48073002B07D17B681B681A687B6835
:103BD8001B6822F008021A607B681B6C002B03D05C
:103BE8007B681B6C786898477B68DB6D20229A405D
:103BF800FB681340002B00F08E807B681B681B68F5
:103C080003F01003002B00F086807B68DB6D202218
:103C18009A403B699A607B6893F83530DBB2052B94
:103C280036D17B681B681A687B681B6822F016020D
:103C38001A607B681B685A697B681B6822F08002DF
:103C48005A617B681B6C002B03D17B689B6C002B33
:103C580007D07B681B681A687B681B6822F008021B
:103C68001A607B68DB6D3F229A403B699A607B68EB
:103C7800002283F834207B68012283F835207B6892
:103C88001B6D002B7DD07B681B6D7868984778E0AA
:103C98007B681B681B6803F48023002B1CD07B689F
:103CA8001B681B6803F40023002B08D17B685B6C3E
:103CB800002B30D07B685B6C786898472BE07B687A
:103CC800DB6B002B27D07B68DB6B7868984722E09A
:103CD80004000020B5814E1B7B681B681B6803F439
:103CE8008073002B0FD17B681B681A687B681B6880
:103CF80022F010021A607B68002283F834207B6867
:103D0800012283F835207B68DB6B002B03D07B68AE
:103D1800DB6B786898477B685B6D002B32D07B68DB
:103D28005B6D03F00103002B22D07B68052283F82A
:103D380035207B681B681A687B681B6822F00102C3
:103D48001A60BB680133BB607A699A4207D37B6803
:103D58001B681B6803F00103002BF2D100E000BFD1
:103D68007B68002283F834207B68012283F83520A1
:103D78007B68DB6C002B05D07B68DB6C7868984728
:103D880000E000BF1837BD4680BD80B487B000AFE3
:103D9800F8600B467A60FB720023FB75FB6893F8AA
:103DA8003430012B01D102233DE0FB68012283F866
:103DB8003420FB6893F83530DBB2012B2AD1FB7A2B
:103DC800052B2AD801A252F823F000BFED3D0008C8
:103DD800F53D0008FD3D0008053E00080D3E0008C1
:103DE800153E0008FB687A68DA6317E0FB687A68B2
:103DF8001A6413E0FB687A685A640FE0FB687A6813
:103E08009A640BE0FB687A68DA6407E0FB687A6812
:103E18001A6503E00123FB7500E000BFFB68002280
:103E280083F83420FB7D18461C37BD465DF8047BBB
:103E3800704780B485B000AF78600B46FB700023F4
:103E4800FB737B6893F83430012B01D1022353E0D4
:103E58007B68012283F834207B6893F83530DBB225
:103E6800012B42D1FB78062B3BD801A252F823F054
:103E7800953E00089D3E0008A53E0008AD3E00089E
:103E8800B53E0008BD3E0008C53E00087B6800221C
:103E9800DA632CE07B6800221A6428E07B68002241
:103EA8005A6424E07B6800229A6420E07B68002240
:103EB800DA641CE07B6800221A6518E07B6800223F
:103EC800DA637B6800221A647B6800225A647B6884
:103ED80000229A647B680022DA647B6800221A65F3
:103EE80005E00123FB7300BF01E00123FB737B683E
:103EF800002283F83420FB7B18461437BD465DF852
:103F0800047B704780B483B000AF78607B6893F817
:103F18003530DBB218460C37BD465DF8047B704778
:103F280080B483B000AF78607B685B6D18460C374F
:103F3800BD465DF8047B704780B485B000AFF8607B
:103F4800B9607A603B60FB681B681A68FB681B688D
:103F580022F480221A60FB681B683A685A60FB6882
:103F68009B68402B08D1FB681B687A689A60FB68DD
:103F78001B68BA68DA6007E0FB681B68BA689A6071
:103F8800FB681B687A68DA6000BF1437BD465DF8C5
:103F9800047B704780B485B000AF78607B681B688D
:103FA800DBB2103B144AA2FB03231B09FB60134A34
:103FB800FB6813441B781A467B68DA65FB68032B99
:103FC80009D97B681B6823F47F7323F003031A1D48
:103FD8007B689A6507E07B681B6823F47F7323F08E
:103FE80003037A6893657B689B6D18461437BD4652
:103FF8005DF8047B704700BFABAAAAAA5406020862
:1040080080B485B000AF78600023FB737B689B6A3F
:10401800BB607B689B69002B1FD1BB68032B56D8FC
:1040280001A252F823F000BF4140000853400008A5
:1040380041400008D74000087B68DB6A03F08073C2
:10404800002B46D00123FB7343E07B68DB6AB3F1A6
:10405800C07F40D10123FB733DE07B689B69B3F5CA
:10406800005F21D1BB68032B37D801A252F823F097
:10407800894000088F40000889400008A1400008D6
:104088000123FB7330E07B68DB6A03F08073002B4D
:1040980025D00123FB7322E07B68DB6AB3F1C07F84
:1040A8001FD10123FB731CE0BB68022B03D9BB683B
:1040B800032B03D018E00123FB7315E07B68DB6A50
:1040C80003F08073002B0ED00123FB730BE000BFBD
:1040D8000AE000BF08E000BF06E000BF04E000BF40
:1040E80002E000BF00E000BFFB7B18461437BD4666
:1040F8005DF8047B704700BF80B489B000AF78607A
:10410800396000237B6100233B610023BB610023EE
:10411800FB616BE10122FB6902FA03F37B613B68F7
:104128001B687A6913403B613A697B699A4240F09F
:104138005A813B685B68022B03D03B685B68122B93
:1041480023D1FB69DA087B68083253F82230BB6157
:10415800FB6903F007039B000F2202FA03F3DB431A
:10416800BA691340BB613B681A69FB6903F007032E
:104178009B0002FA03F3BA691343BB61FB69DA08CF
:104188007B680832B96943F822107B681B68BB61F9
:10419800FB695B00032202FA03F3DB43BA691340AD
:1041A800BB613B685B6803F00302FB695B0002FAD2
:1041B80003F3BA691343BB617B68BA691A603B6849
:1041C8005B68012B0BD03B685B68022B07D03B6810
:1041D8005B68112B03D03B685B68122B30D17B687E
:1041E8009B68BB61FB695B00032202FA03F3DB43B4
:1041F800BA691340BB613B68DA68FB695B0002FA85
:1042080003F3BA691343BB617B68BA699A607B6838
:104218005B68BB610122FB6902FA03F3DB43BA69FD
:104228001340BB613B685B681B0903F00102FB6933
:1042380002FA03F3BA691343BB617B68BA695A602F
:104248007B68DB68BB61FB695B00032202FA03F34E
:10425800DB43BA691340BB613B689A68FB695B0042
:1042680002FA03F3BA691343BB617B68BA69DA607F
:104278003B685B6803F08053002B00F0B480002398
:10428800FB605F4B5B6C5E4A43F4804353645C4B5A
:104298005B6C03F48043FB60FB685A4AFB699B082C
:1042A800023352F82330BB61FB6903F003039B0020
:1042B8000F2202FA03F3DB43BA691340BB617B6840
:1042C800514A93422BD07B68504A934225D07B6851
:1042D8004F4A93421FD07B684E4A934219D07B685D
:1042E8004D4A934213D07B684C4A93420DD07B6869
:1042F8004B4A934207D07B684A4A934201D107232D
:104308000EE008230CE006230AE0052308E0042356
:1043180006E0032304E0022302E0012300E0002377
:10432800FA6902F0030292009340BA691343BB6131
:104338003449FB699B080233BA6941F823203A4B98
:104348001B68BB613B69DB43BA691340BB613B68CF
:104358005B6803F48033002B03D0BA693B691343CD
:10436800BB61314ABB6913602F4B5B68BB613B691A
:10437800DB43BA691340BB613B685B6803F40033F5
:10438800002B03D0BA693B691343BB61264ABB695A
:104398005360254B9B68BB613B69DB43BA6913409B
:1043A800BB613B685B6803F48013002B03D0BA69D8
:1043B8003B691343BB611C4ABB6993601A4BDB68BA
:1043C800BB613B69DB43BA691340BB613B685B680F
:1043D80003F40013002B03D0BA693B691343BB6194
:1043E800114ABB69D360FB690133FB61FB690F2B81
:1043F8007FF690AE00BF2437BD465DF8047B70475A
:104408000038024000380140000002400004024029
:1044180000080240000C0240001002400014024054
:1044280000180240001C0240003C014080B487B0E4
:1044380000AF7860396000233B610023FB600023F4
:10444800BB6000237B61CDE001227B6902FA03F3A4
:104458003B613A683B691340FB60FA683B699A42E2
:1044680040F0BD80644A7B699B08023352F82330D0
:10447800BB607B6903F003039B000F2202FA03F37E
:10448800BA681340BB607B685C4A93422BD07B6858
:104498005B4A934225D07B685A4A93421FD07B6877
:1044A800594A934219D07B68584A934213D07B6883
:1044B800574A93420DD07B68564A934207D07B688F
:1044C800554A934201D107230EE008230CE0062346
:1044D8000AE0052308E0042306E0032304E002239E
:1044E80002E0012300E000237A6902F0030292004F
:1044F8009340BA689A4232D17B6903F003039B0068
:104508000F2202FA03F3BB603B4A7B699B08023324
:1045180052F82310BB68DA4337487B699B080A4086
:10452800023340F823203D4B1A68FB68DB433B49C4
:1045380013400B60394B5A68FB68DB43374913401B
:104548004B60364B9A68FB68DB43344913408B60F9
:10455800324BDA68FB68DB4330491340CB607B6839
:104568001A687B695B00032101FA03F3DB431A40F5
:104578007B681A607B69DA087B68083253F8221076
:104588007B6903F007039B000F2202FA03F3DB4366
:104598007A69D20819407B68083243F822107B6890
:1045A8009A687B695B00032101FA03F3DB431A4035
:1045B8007B689A607B685A6801217B6901FA03F37A
:1045C800DB431A407B685A607B68DA687B695B006A
:1045D800032101FA03F3DB431A407B68DA607B6945
:1045E80001337B617B690F2B7FF62EAF00BF1C3731
:1045F800BD465DF8047B704700380140000002406A
:104608000004024000080240000C02400010024072
:104618000014024000180240001C0240003C014007
:1046280080B485B000AF78600B467B807B681A69E0
:104638007B881340002B02D00123FB7301E0002389
:10464800FB73FB7B18461437BD465DF8047B704747
:1046580080B483B000AF78600B467B8013467B70D4
:104668007B78002B03D07A887B689A6103E07B888B
:104678001A047B689A6100BF0C37BD465DF8047B5D
:10468800704780B483B000AF78600B467B807B684E
:104698005A697B881A407B889A4204D17B881A041D
:1046A8007B689A6102E07A887B689A6100BF0C3760
:1046B800BD465DF8047B704780B485B000AF786074
:1046C8000B467B804FF48033FB607A88FB6813438A
:1046D800FB60FA687B68DA617A887B68DA61FA6875
:1046E8007B68DA617B68DB69FB607B68DB6903F404
:1046F8008033002B01D0002300E001231846143733
:10470800BD465DF8047B704780B582B000AF0346B4
:10471800FB80084B5A69FB881340002B06D0054ADA
:10472800FB885361FB881846FBF750FE00BF08372B
:10473800BD4680BD003C014080B483B000AF034655
:10474800FB8000BF0C37BD465DF8047B704700BF97
:1047580080B584B000AF78607B68002B01D101235D
:104768001BE17B6893F83D30DBB2002B06D17B68F8
:10477800002283F83C20786800F04DF97B682422F9
:1047880083F83D207B681B681A687B681B6822F0E9
:1047980001021A600BF072FAF8607B685B68814A64
:1047A800934207D8FB68804A934294BF01230023B1
:1047B800DBB206E0FB687D4A934294BF01230023E5
:1047C800DBB2002B01D00123E7E0FB68784AA2FBAB
:1047D80003239B0CBB607B681B685B6823F03F016D
:1047E8007B681B68BA680A435A607B681B681B6A47
:1047F80023F03F017B685B686A4A934202D8BB6832
:10480800013309E0BB684FF4967202FB03F3694A6F
:10481800A2FB03239B0901337A6812680B431362D6
:104828007B681B68DB6923F44F4222F0FF027B6838
:104838005B685C498B4219D8FB68591E7B685B68CA
:104848005B00B1FBF3F3591C40F6FC730B40002BE3
:104858000AD0FB68591E7B685B685B00B1FBF3F309
:104868000133C3F30B0351E004234FE07B689B68DB
:10487800002B11D1FB68581E7B6859680B465B00FA
:104888000B44B0FBF3F30133C3F30B03002B0CBF52
:1048980001230023DBB212E0FB68581E7B685968CD
:1048A8000B469B000B4499000B44B0FBF3F3013318
:1048B800C3F30B03002B0CBF01230023DBB2002B37
:1048C80001D0012322E07B689B68002B0ED1FB6896
:1048D800581E7B6859680B465B000B44B0FBF3F32A
:1048E8000133C3F30B0343F400430FE0FB68581E86
:1048F8007B6859680B469B000B4499000B44B0FB3E
:10490800F3F30133C3F30B0343F4404379680968B5
:104918001343CB617B681B681B6823F0C0017B686D
:10492800DA697B681B6A1A437B681B680A431A604A
:104938007B681B689B6823F4034323F0FF037A68B2
:1049480011697A68D26811437A6812680B439360D8
:104958007B681B68DB6823F0FF017B685A697B680A
:104968009B691A437B681B680A43DA607B681B688B
:104978001A687B681B6842F001021A607B68002293
:104988001A647B68202283F83D207B6800221A6322
:104998007B68002283F83E20002318461037BD4666
:1049A80080BD00BFA08601007F841E00FF083D0077
:1049B80083DE1B43D34D621080B582B000AF7860B0
:1049C8007B68002B01D1012321E07B68242283F836
:1049D8003D207B681B681A687B681B6822F001020F
:1049E8001A60786800F021F87B6800221A647B68F6
:1049F800002283F83D207B6800221A637B6800222E
:104A080083F83E207B68002283F83C200023184668
:104A18000837BD4680BD80B483B000AF786000BF62
:104A28000C37BD465DF8047B704780B483B000AF97
:104A3800786000BF0C37BD465DF8047B704780B5D1
:104A480088B002AFF8607A601A460B467B8113463D
:104A58003B81FEF781F87861FB6893F83D30DBB263
:104A6800202B40F0E0807B690093192301227049D4
:104A7800F86805F0C4FA0346002B01D00223D3E0FE
:104A8800FB6893F83C30012B01D10223CCE0FB6892
:104A9800012283F83C20FB681B681B6803F00103B4
:104AA800012B07D0FB681B681A68FB681B6842F07B
:104AB80001021A60FB681B681A68FB681B6822F40D
:104AC80000621A60FB68212283F83D20FB681022EF
:104AD80083F83E20FB6800221A64FB687A685A62F1
:104AE800FB683A895A85FB685B8D9AB2FB681A8520
:104AF800FB68504ADA6279897B693A6AF86804F097
:104B080087FE0346002B01D001238DE000233B6183
:104B1800FB681B685B693B61FB681B689B693B61C1
:104B28003B6966E07A69396AF86805F03EFB034636
:104B3800002B0DD0FB681B6C042B07D1FB681B688E
:104B48001A68FB681B6842F400721A6001236BE064
:104B5800FB685B6A1A78FB681B681A61FB685B6A0A
:104B68005A1CFB685A62FB685B8D9BB2013B9AB288
:104B7800FB685A85FB681B8D013B9AB2FB681A8556
:104B8800FB681B685B6903F00403042B1BD1FB68FB
:104B98001B8D002B17D0FB685B6A1A78FB681B68B3
:104BA8001A61FB685B6A5A1CFB685A62FB685B8D7A
:104BB8009BB2013B9AB2FB685A85FB681B8D013B8F
:104BC8009AB2FB681A857A69396AF86805F02EFB8B
:104BD8000346002B0DD0FB681B6C042B07D1FB6828
:104BE8001B681A68FB681B6842F400721A6001238C
:104BF8001AE0FB681B8D002B94D1FB681B681A68B0
:104C0800FB681B6842F400721A60FB68202283F874
:104C18003D20FB68002283F83E20FB68002283F8D1
:104C28003C20002300E0022318461837BD4680BD0B
:104C3800020010000000FFFF80B58CB002AFF860E2
:104C48007A601A460B467B8113463B81FDF784FF49
:104C58007862FB6893F83D30DBB2202B40F00B8282
:104C68007B6A0093192301227C49F86805F0C7F98B
:104C78000346002B01D00223FEE1FB6893F83C3089
:104C8800012B01D10223F7E1FB68012283F83C20C4
:104C9800FB681B681B6803F00103012B07D0FB6846
:104CA8001B681A68FB681B6842F001021A60FB68FF
:104CB8001B681A68FB681B6822F400621A60FB68AC
:104CC800222283F83D20FB68102283F83E20FB68EF
:104CD80000221A64FB687A685A62FB683A895A8526
:104CE800FB685B8D9AB2FB681A85FB685C4ADA62DE
:104CF80079897B6A3A6BF86804F000FE0346002B5A
:104D080001D00123B8E1FB681B8D002B13D10023D0
:104D18003B62FB681B685B693B62FB681B689B69BD
:104D28003B623B6AFB681B681A68FB681B6842F4B5
:104D380000721A608CE1FB681B8D012B1BD1FB688C
:104D48001B681A68FB681B6822F480621A600023DB
:104D5800FB61FB681B685B69FB61FB681B689B69FF
:104D6800FB61FB69FB681B681A68FB681B6842F4F7
:104D780000721A606CE1FB681B8D022B1BD1FB686B
:104D88001B681A68FB681B6822F480621A60FB685B
:104D98001B681A68FB681B6842F400621A600023EB
:104DA800BB61FB681B685B69BB61FB681B689B692F
:104DB800BB61BB694CE1FB681B681A68FB681B6830
:104DC80042F480621A6000237B61FB681B685B69A0
:104DD8007B61FB681B689B697B617B6938E1FB68C9
:104DE8001B8D032B00F2F180FB681B8D012B23D157
:104DF8007A6A396BF86805F097FA0346002B01D0F8
:104E0800012339E1FB681B681A69FB685B6AD2B247
:104E18001A70FB685B6A5A1CFB685A62FB681B8D38
:104E2800013B9AB2FB681A85FB685B8D9BB2013B1C
:104E38009AB2FB685A850BE1FB681B8D022B4ED199
:104E48007B6A00933B6B00220649F86805F0D7F8A7
:104E58000346002B08D001230EE100BF020010001A
:104E68000000FFFF04000100FB681B681A68FB686C
:104E78001B6842F400721A60FB681B681A69FB68B9
:104E88005B6AD2B21A70FB685B6A5A1CFB685A628A
:104E9800FB681B8D013B9AB2FB681A85FB685B8D2A
:104EA8009BB2013B9AB2FB685A85FB681B681A697A
:104EB800FB685B6AD2B21A70FB685B6A5A1CFB68B3
:104EC8005A62FB681B8D013B9AB2FB681A85FB6826
:104ED8005B8D9BB2013B9AB2FB685A85B8E07B6A4E
:104EE80000933B6B00226649F86805F088F8034692
:104EF800002B01D00123BFE0FB681B681A68FB6820
:104F08001B6822F480621A60FB681B681A69FB68D8
:104F18005B6AD2B21A70FB685B6A5A1CFB685A62F9
:104F2800FB681B8D013B9AB2FB681A85FB685B8D99
:104F38009BB2013B9AB2FB685A857B6A00933B6B34
:104F480000224F49F86805F05AF80346002B01D0B3
:104F5800012391E0FB681B681A68FB681B6842F430
:104F680000721A60FB681B681A69FB685B6AD2B238
:104F78001A70FB685B6A5A1CFB685A62FB681B8DD7
:104F8800013B9AB2FB681A85FB685B8D9BB2013BBB
:104F98009AB2FB685A85FB681B681A69FB685B6AEA
:104FA800D2B21A70FB685B6A5A1CFB685A62FB68CB
:104FB8001B8D013B9AB2FB681A85FB685B8D9BB21F
:104FC800013B9AB2FB685A8542E07A6A396BF86805
:104FD80005F0AAF90346002B01D001234CE0FB6839
:104FE8001B681A69FB685B6AD2B21A70FB685B6A55
:104FF8005A1CFB685A62FB681B8D013B9AB2FB681E
:105008001A85FB685B8D9BB2013B9AB2FB685A8597
:10501800FB681B685B6903F00403042B18D1FB6869
:105028001B681A69FB685B6AD2B21A70FB685B6A14
:105038005A1CFB685A62FB681B8D013B9AB2FB68DD
:105048001A85FB685B8D9BB2013B9AB2FB685A8557
:10505800FB681B8D002B7FF4C2AEFB68202283F80F
:105068003D20FB68002283F83E20FB68002283F87D
:105078003C20002300E0022318462837BD4680BDA7
:105088000400010080B58AB002AFF860B9603B60E7
:105098001346FB80FDF760FDF861FB6893F83D302F
:1050A800DBB2202B40F0FB80BB68002B02D0FB88D2
:1050B800002B01D10123F3E0FB6893F83C30012B6E
:1050C80001D10223ECE0FB68012283F83C20FB6855
:1050D8001B681B6803F00103012B07D0FB681B68E2
:1050E8001A68FB681B6842F001021A60FB681B68BB
:1050F8001A68FB681B6822F400621A60FB682122A8
:1051080083F83D20FB68202283F83E20FB680022BC
:105118001A64FB68BA685A62FB68FA885A85FB68A1
:105128005B8D9AB2FB681A85FB685F4ADA62FB6896
:105138001B681A68FB681B6842F480621A60FB6986
:1051480000933B6800225949F86804F058FF034669
:10515800002B01D00123A3E00023BB61FB681B687F
:105168005B69BB61FB681B689B69BB61BB69FB68CA
:105178001B69B3F5404F65D1FB6900933B6800227A
:105188004A49F86804F03BFF0346002B01D001238D
:1051980086E000237B61FB681B685B697B61FB68B9
:1051A8001B689B697B617B694CE0FA693968F86820
:1051B80004F0FBFF0346002B09D0FB681B681A6844
:1051C800FB681B6822F480621A60012368E0FB68B0
:1051D8005B6A1A78FB681B681A61FB685B6A5A1C71
:1051E800FB685A62FB685B8D9BB2013B9AB2FB6815
:1051F8005A85FB681B8D013B9AB2FB681A85FB68D0
:105208001B685B6903F00403042B1BD1FB681B8D2F
:10521800002B17D0FB685B6A1A78FB681B681A6159
:10522800FB685B6A5A1CFB685A62FB685B8D9BB221
:10523800013B9AB2FB685A85FB681B8D013B9AB209
:10524800FB681A85FB681B8D002BAED1FB690093A8
:105258003B6800224FF48231F86804F0D0FE034620
:10526800002B01D001231BE0FB681B686FF48062F0
:105278005A61FB681B681A68FB681B6822F4806225
:105288001A60FB68202283F83D20FB68002283F81F
:105298003E20FB68002283F83C20002300E0022324
:1052A80018462037BD4680BD0000FFFF0200010000
:1052B80080B58AB002AFF860B9603B601346FB80E6
:1052C800FDF74AFCF861FB6893F83D30DBB2202B10
:1052D80040F0EE80BB68002B02D0FB88002B01D188
:1052E8000123E6E0FB6893F83C30012B01D102234F
:1052F800DFE0FB68012283F83C20FB681B681B6821
:1053080003F00103012B07D0FB681B681A68FB68D0
:105318001B6842F001021A60FB681B681A68FB6888
:105328001B6822F400621A60FB68222283F83D2081
:10533800FB68202283F83E20FB6800221A64FB6881
:10534800BA685A62FB68FA885A85FB685B8D9AB21C
:10535800FB681A85FB68594ADA62FB681B681A6899
:10536800FB681B6842F480621A60FB6900933B6823
:1053780000225349F86804F042FE0346002B01D08E
:10538800012396E00023BB61FB681B685B69BB6176
:10539800FB681B689B69BB61BB694EE0FA693968A9
:1053A800F86804F0C1FF0346002B09D0FB681B68AE
:1053B8001A68FB681B6822F480621A60012378E08F
:1053C800FB681B681A69FB685B6AD2B21A70FB68D3
:1053D8005B6A5A1CFB685A62FB681B8D013B9AB2D8
:1053E800FB681A85FB685B8D9BB2013B9AB2FB6830
:1053F8005A85FB681B685B6903F00403042B1CD106
:10540800FB681B8D002B18D0FB681B681A69FB68AA
:105418005B6AD2B21A70FB685B6A5A1CFB685A62F4
:10542800FB681B8D013B9AB2FB681A85FB685B8D94
:105438009BB2013B9AB2FB685A85FB681B8D002B17
:10544800ACD1FA693968F86804F031FF0346002BDB
:1054580009D0FB681B681A68FB681B6822F4806225
:105468001A60012325E000237B61FB681B685B69E8
:105478007B61FB681B681A68FB681B6842F00102C5
:105488001A607B69FB681B681A68FB681B6822F452
:1054980080621A60FB68202283F83D20FB680022A6
:1054A80083F83E20FB68002283F83C20002300E0BC
:1054B800022318462037BD4680BD00BF0000FFFF0D
:1054C8000200010080B487B000AFF8607A601A4625
:1054D8000B467B8113463B8100237B61FB6893F875
:1054E8003D30DBB2202B40F08580464B1B68DB0843
:1054F800454AA2FB03231A0A13469B0013449A0049
:1055080013447B617B69013B7B617B69002B16D16E
:10551800FB6800221A63FB68202283F83D20FB68A1
:10552800002283F83E20FB681B6C43F02002FB68D6
:105538001A64FB68002283F83C2001235BE0FB68C7
:105548001B689B6903F00203022BDBD0FB6893F80E
:105558003C30012B01D102234DE0FB68012283F886
:105568003C20FB681B681B6803F00103012B07D074
:10557800FB681B681A68FB681B6842F001021A6026
:10558800FB681B681A68FB681B6822F400621A60D3
:10559800FB68212283F83D20FB68102283F83E2017
:1055A800FB6800221A64FB687A685A62FB683A89C9
:1055B8005A85FB685B8D9AB2FB681A85FB68134AAB
:1055C800DA627A89FB685A64FB681B681A68FB68A8
:1055D8001B6842F480721A60FB68002283F83C2042
:1055E800FB681B685A68FB681B6842F4E0625A60F3
:1055F800002300E0022318461C37BD465DF8047BF3
:10560800704700BF0400002089B5F8140000FFFFB0
:1056180080B487B000AFF8607A601A460B467B8189
:1056280013463B8100237B61FB6893F83D30DBB276
:10563800202B40F08D804A4B1B68DB08494AA2FBAF
:1056480003231A0A13469B0013449A0013447B61F0
:105658007B69013B7B617B69002B16D1FB680022CB
:105668001A63FB68202283F83D20FB68002283F838
:105678003E20FB681B6C43F02002FB681A64FB6841
:10568800002283F83C20012363E0FB681B689B69C8
:1056980003F00203022BDBD0FB6893F83C30012BAC
:1056A80001D1022355E0FB68012283F83C20FB6806
:1056B8001B681B6803F00103012B07D0FB681B68FC
:1056C8001A68FB681B6842F001021A60FB681B68D5
:1056D8001A68FB681B6822F400621A60FB682222C1
:1056E80083F83D20FB68102283F83E20FB680022E7
:1056F8001A64FB687A685A62FB683A895A85FB68BB
:105708005B8D9AB2FB681A85FB68174ADA627A8958
:10571800FB685A64FB681B681A68FB681B6842F4DC
:1057280080621A60FB681B681A68FB681B6842F491
:1057380080721A60FB68002283F83C20FB681B68B3
:105748005A68FB681B6842F4E0625A60002300E074
:10575800022318461C37BD465DF8047B704700BF1E
:105768000400002089B5F8140000FFFF80B485B05C
:1057780000AFF860B9601346FB80FB6893F83D30D2
:10578800DBB2202B58D1BB68002B02D0FB88002B42
:1057980001D1012351E0FB6893F83C30012B01D182
:1057A80002234AE0FB68012283F83C20FB681B685F
:1057B8001B6803F00103012B07D0FB681B681A68FC
:1057C800FB681B6842F001021A60FB681B681A68D4
:1057D800FB681B6822F400621A60FB68212283F8C8
:1057E8003D20FB68202283F83E20FB6800221A64D3
:1057F800FB68BA685A62FB68FA885A85FB685B8D51
:105808009AB2FB681A85FB680F4ADA62FB681B6864
:105818001A68FB681B6842F480621A60FB68002201
:1058280083F83C20FB681B685A68FB681B6842F4D5
:10583800E0625A60002300E0022318461437BD4690
:105848005DF8047B704700BF0000FFFF80B485B09F
:1058580000AFF860B9601346FB80FB6893F83D30F1
:10586800DBB2202B58D1BB68002B02D0FB88002B61
:1058780001D1012351E0FB6893F83C30012B01D1A1
:1058880002234AE0FB68012283F83C20FB681B687E
:105898001B6803F00103012B07D0FB681B681A681B
:1058A800FB681B6842F001021A60FB681B681A68F3
:1058B800FB681B6822F400621A60FB68222283F8E6
:1058C8003D20FB68202283F83E20FB6800221A64F2
:1058D800FB68BA685A62FB68FA885A85FB685B8D70
:1058E8009AB2FB681A85FB680F4ADA62FB681B6884
:1058F8001A68FB681B6842F480621A60FB68002221
:1059080083F83C20FB681B685A68FB681B6842F4F4
:10591800E0625A60002300E0022318461437BD46AF
:105928005DF8047B704700BF0000FFFF80B586B0BC
:1059380000AFF8607A601A460B467B8113463B81BC
:1059480000233B61FB6893F83D30DBB2202B40F02D
:10595800F4807C4B1B68DB087B4AA2FB03231A0AF2
:1059680013469B0013449A0013443B613B69013B77
:105978003B613B69002B16D1FB6800221A63FB6868
:10598800202283F83D20FB68002283F83E20FB6834
:105998001B6C43F02002FB681A64FB68002283F842
:1059A8003C200123CAE0FB681B689B6903F00203E3
:1059B800022BDBD0FB6893F83C30012B01D102238A
:1059C800BCE0FB68012283F83C20FB681B681B686D
:1059D80003F00103012B07D0FB681B681A68FB68FA
:1059E8001B6842F001021A60FB681B681A68FB68B2
:1059F8001B6822F400621A60FB68212283F83D20AC
:105A0800FB68102283F83E20FB6800221A64FB68BA
:105A18007A685A62FB683A895A85FB685B8D9AB244
:105A2800FB681A85FB68494ADA627A89FB685A6416
:105A3800FB681B8D002B62D0FB685B6B444ADA6302
:105A4800FB685B6B434ADA64FB685B6B00221A6491
:105A5800FB685B6B00225A64FB685B6B00229A64EC
:105A6800FB685B6B00221A65FB68586BFB685B6A16
:105A78001946FB681B6810331A46FB681B8DFDF737
:105A88002AFE0346FB75FB7D002B24D1FB681B68AF
:105A98001A68FB681B6842F480621A60FB681B681E
:105AA8001A68FB681B6842F480721A60FB6800225F
:105AB80083F83C20FB681B685A68FB681B6842F443
:105AC80040725A60FB681B685A68FB681B6842F49E
